{
  "contractName": "Gateway",
  "abi": [
    {
      "inputs": [
        {
          "name": "_registry",
          "type": "address"
        }
      ],
      "payable": false,
      "stateMutability": "nonpayable",
      "type": "constructor"
    },
    {
      "constant": false,
      "inputs": [
        {
          "name": "_transaction",
          "type": "address"
        },
        {
          "name": "_ipfsHashptr",
          "type": "string"
        }
      ],
      "name": "execClaim",
      "outputs": [
        {
          "name": "_success",
          "type": "bool"
        }
      ],
      "payable": false,
      "stateMutability": "nonpayable",
      "type": "function"
    },
    {
      "constant": false,
      "inputs": [
        {
          "name": "_targetTransaction",
          "type": "address"
        },
        {
          "name": "_insurer",
          "type": "address"
        }
      ],
      "name": "insure",
      "outputs": [
        {
          "name": "_success",
          "type": "bool"
        }
      ],
      "payable": true,
      "stateMutability": "payable",
      "type": "function"
    },
    {
      "constant": false,
      "inputs": [
        {
          "name": "_targetTransaction",
          "type": "address"
        },
        {
          "name": "_owner",
          "type": "address"
        }
      ],
      "name": "verifyOwnership",
      "outputs": [
        {
          "name": "_success",
          "type": "bool"
        }
      ],
      "payable": false,
      "stateMutability": "nonpayable",
      "type": "function"
    }
  ],
  "bytecode": "0x608060405234801561001057600080fd5b5060405160208061050d8339810180604052602081101561003057600080fd5b8101908080519060200190929190505050806000806101000a81548173ffffffffffffffffffffffffffffffffffffffff021916908373ffffffffffffffffffffffffffffffffffffffff1602179055505061047c806100916000396000f3fe608060405260043610610057576000357c0100000000000000000000000000000000000000000000000000000000900463ffffffff168063079573601461005c57806374223898146100e557806375210e9214610161575b600080fd5b34801561006857600080fd5b506100cb6004803603604081101561007f57600080fd5b81019080803573ffffffffffffffffffffffffffffffffffffffff169060200190929190803573ffffffffffffffffffffffffffffffffffffffff16906020019092919050505061021f565b604051808215151515815260200191505060405180910390f35b610147600480360360408110156100fb57600080fd5b81019080803573ffffffffffffffffffffffffffffffffffffffff169060200190929190803573ffffffffffffffffffffffffffffffffffffffff169060200190929190505050610333565b604051808215151515815260200191505060405180910390f35b34801561016d57600080fd5b506102056004803603604081101561018457600080fd5b81019080803573ffffffffffffffffffffffffffffffffffffffff169060200190929190803590602001906401000000008111156101c157600080fd5b8201836020820111156101d357600080fd5b803590602001918460018302840111640100000000831117156101f557600080fd5b9091929391929390505050610447565b604051808215151515815260200191505060405180910390f35b60008060009054906101000a900473ffffffffffffffffffffffffffffffffffffffff1673ffffffffffffffffffffffffffffffffffffffff16633642ecba84846040518363ffffffff167c0100000000000000000000000000000000000000000000000000000000028152600401808373ffffffffffffffffffffffffffffffffffffffff1673ffffffffffffffffffffffffffffffffffffffff1681526020018273ffffffffffffffffffffffffffffffffffffffff1673ffffffffffffffffffffffffffffffffffffffff16815260200192505050600060405180830381600087803b15801561031157600080fd5b505af1158015610325573d6000803e3d6000fd5b505050506001905092915050565b60008060009054906101000a900473ffffffffffffffffffffffffffffffffffffffff1673ffffffffffffffffffffffffffffffffffffffff16639b284ae284846040518363ffffffff167c0100000000000000000000000000000000000000000000000000000000028152600401808373ffffffffffffffffffffffffffffffffffffffff1673ffffffffffffffffffffffffffffffffffffffff1681526020018273ffffffffffffffffffffffffffffffffffffffff1673ffffffffffffffffffffffffffffffffffffffff16815260200192505050600060405180830381600087803b15801561042557600080fd5b505af1158015610439573d6000803e3d6000fd5b505050506001905092915050565b6000939250505056fea165627a7a72305820676d7dfc0c113dcb9098973a6dbd56b52729c20a6ca214fa91956003be4ecccb0029",
  "source": "pragma solidity 0.5.0;\n\nimport \"./TransactionRegistry.sol\";\n\ncontract Gateway {\n    TransactionRegistry internal registry;\n\n    constructor(TransactionRegistry _registry) public {\n        registry = _registry;\n    }\n\n    function execClaim(address _transaction, string calldata _ipfsHashptr) external returns (bool _success) {\n        // Begin claims process\n        // TODO\n    }\n\n    function insure(address payable _targetTransaction, address payable _insurer) external payable returns (bool _success) {\n        // Begin insurance process\n        // TODO\n\n        // Contingent on success\n        registry.registerInsurer(_targetTransaction, _insurer);\n        return true;\n    }\n\n    function verifyOwnership(address payable _targetTransaction, address payable _owner) external returns (bool _success) {\n        // Begin ownership verification process\n        // TODO\n\n        // Contingent on success\n        registry.registerOwnership(_targetTransaction, _owner);\n        return true;\n    }\n}",
  "sourcePath": "/Users/robert/dev/projects/eotim/truffle/contracts/Gateway.sol",
  "compiler": {
    "name": "solc",
    "version": "0.5.0+commit.1d4f565a.Emscripten.clang"
  },
  "schemaVersion": "3.0.2",
  "updatedAt": "2019-02-19T03:14:57.275Z",
  "devdoc": {
    "methods": {}
  },
  "userdoc": {
    "methods": {}
  }
}