{
  "contractName": "InsurableTransactionFactory",
  "abi": [
    {
      "constant": true,
      "inputs": [],
      "name": "owner",
      "outputs": [
        {
          "name": "",
          "type": "address"
        }
      ],
      "payable": false,
      "stateMutability": "view",
      "type": "function"
    },
    {
      "inputs": [
        {
          "name": "_registry",
          "type": "address"
        }
      ],
      "payable": false,
      "stateMutability": "nonpayable",
      "type": "constructor"
    },
    {
      "anonymous": false,
      "inputs": [
        {
          "indexed": false,
          "name": "msg",
          "type": "string"
        },
        {
          "indexed": false,
          "name": "contractAddress",
          "type": "address"
        }
      ],
      "name": "NewContractCreated",
      "type": "event"
    },
    {
      "constant": false,
      "inputs": [
        {
          "name": "counterParty",
          "type": "address"
        },
        {
          "name": "name",
          "type": "bytes32"
        },
        {
          "name": "max",
          "type": "uint256"
        },
        {
          "name": "desc",
          "type": "bytes32"
        },
        {
          "name": "premium",
          "type": "uint256"
        }
      ],
      "name": "create",
      "outputs": [
        {
          "name": "newContractAddress",
          "type": "address"
        }
      ],
      "payable": true,
      "stateMutability": "payable",
      "type": "function"
    }
  ],
  "bytecode": "0x608060405234801561001057600080fd5b5060405160208061171f8339810180604052602081101561003057600080fd5b810190808051906020019092919050505080600160006101000a81548173ffffffffffffffffffffffffffffffffffffffff021916908373ffffffffffffffffffffffffffffffffffffffff160217905550336000806101000a81548173ffffffffffffffffffffffffffffffffffffffff021916908373ffffffffffffffffffffffffffffffffffffffff1602179055505061164d806100d26000396000f3fe60806040526004361061004c576000357c0100000000000000000000000000000000000000000000000000000000900463ffffffff1680638da5cb5b14610051578063ecc45862146100a8575b600080fd5b34801561005d57600080fd5b50610066610154565b604051808273ffffffffffffffffffffffffffffffffffffffff1673ffffffffffffffffffffffffffffffffffffffff16815260200191505060405180910390f35b610112600480360360a08110156100be57600080fd5b81019080803573ffffffffffffffffffffffffffffffffffffffff16906020019092919080359060200190929190803590602001909291908035906020019092919080359060200190929190505050610179565b604051808273ffffffffffffffffffffffffffffffffffffffff1673ffffffffffffffffffffffffffffffffffffffff16815260200191505060405180910390f35b6000809054906101000a900473ffffffffffffffffffffffffffffffffffffffff1681565b60008073ffffffffffffffffffffffffffffffffffffffff168673ffffffffffffffffffffffffffffffffffffffff161415151561021f576040517f08c379a000000000000000000000000000000000000000000000000000000000815260040180806020018281038252601b8152602001807f436f756e74657270617274792063616e6e6f74206265206e756c6c000000000081525060200191505060405180910390fd5b6000868685878633346102306104d4565b808873ffffffffffffffffffffffffffffffffffffffff1673ffffffffffffffffffffffffffffffffffffffff1681526020018781526020018681526020018581526020018481526020018373ffffffffffffffffffffffffffffffffffffffff1673ffffffffffffffffffffffffffffffffffffffff168152602001828152602001975050505050505050604051809103906000f0801580156102d8573d6000803e3d6000fd5b509050600160009054906101000a900473ffffffffffffffffffffffffffffffffffffffff1673ffffffffffffffffffffffffffffffffffffffff16633642ecba82336040518363ffffffff167c0100000000000000000000000000000000000000000000000000000000028152600401808373ffffffffffffffffffffffffffffffffffffffff1673ffffffffffffffffffffffffffffffffffffffff1681526020018273ffffffffffffffffffffffffffffffffffffffff1673ffffffffffffffffffffffffffffffffffffffff16815260200192505050600060405180830381600087803b1580156103cc57600080fd5b505af11580156103e0573d6000803e3d6000fd5b505050508073ffffffffffffffffffffffffffffffffffffffff166108fc349081150290604051600060405180830381858888f1935050505015801561042a573d6000803e3d6000fd5b507fa85cd118b65ef5cbedb78b4bc1fa5c20c073972e343b4158fed371d4f2e7913c8160405180806020018373ffffffffffffffffffffffffffffffffffffffff1673ffffffffffffffffffffffffffffffffffffffff1681526020018281038252601e8152602001807f436f6e74726163742063726561746564207375636365737366756c6c792e00008152506020019250505060405180910390a18091505095945050505050565b60405161113d806104e58339019056fe608060405260405160e08061113d833981018060405260e081101561002357600080fd5b8101908080519060200190929190805190602001909291908051906020019092919080519060200190929190805190602001909291908051906020019092919080519060200190929190505050600073ffffffffffffffffffffffffffffffffffffffff168773ffffffffffffffffffffffffffffffffffffffff1614151515610115576040517f08c379a000000000000000000000000000000000000000000000000000000000815260040180806020018281038252601d8152602001807f436f756e7465722070617274792063616e6e6f7420626520626c616e6b00000081525060200191505060405180910390fd5b86600160006101000a81548173ffffffffffffffffffffffffffffffffffffffff021916908373ffffffffffffffffffffffffffffffffffffffff16021790555081600860006101000a81548173ffffffffffffffffffffffffffffffffffffffff021916908373ffffffffffffffffffffffffffffffffffffffff160217905550836006819055508260078190555085600281905550846003819055506000600860146101000a81548160ff021916908360038111156101d257fe5b02179055508060008190555050505050505050610f49806101f46000396000f3fe6080604052600436106100e6576000357c0100000000000000000000000000000000000000000000000000000000900463ffffffff16806306fdde03146100e85780630a5d2fc81461011357806311da60b41461016a57806312065fe01461018c5780631865c57d146101b75780633c3ce17d146101f05780634173fb9d146102125780634aaf6b861461026357806355f150f11461029c578063830361b6146102c75780638da5cb5b146102f2578063a4da04e414610349578063c84d708714610374578063d8a5cc031461039f578063dbc837c514610494578063eec8cb92146104eb575b005b3480156100f457600080fd5b506100fd610516565b6040518082815260200191505060405180910390f35b34801561011f57600080fd5b5061012861051c565b604051808273ffffffffffffffffffffffffffffffffffffffff1673ffffffffffffffffffffffffffffffffffffffff16815260200191505060405180910390f35b610172610542565b604051808215151515815260200191505060405180910390f35b34801561019857600080fd5b506101a161093d565b6040518082815260200191505060405180910390f35b3480156101c357600080fd5b506101cc61095c565b604051808260038111156101dc57fe5b60ff16815260200191505060405180910390f35b6101f8610973565b604051808215151515815260200191505060405180910390f35b34801561021e57600080fd5b506102616004803603602081101561023557600080fd5b81019080803573ffffffffffffffffffffffffffffffffffffffff169060200190929190505050610c84565b005b34801561026f57600080fd5b50610278610d56565b6040518082600381111561028857fe5b60ff16815260200191505060405180910390f35b3480156102a857600080fd5b506102b1610d69565b6040518082815260200191505060405180910390f35b3480156102d357600080fd5b506102dc610d6f565b6040518082815260200191505060405180910390f35b3480156102fe57600080fd5b50610307610d75565b604051808273ffffffffffffffffffffffffffffffffffffffff1673ffffffffffffffffffffffffffffffffffffffff16815260200191505060405180910390f35b34801561035557600080fd5b5061035e610d9b565b6040518082815260200191505060405180910390f35b34801561038057600080fd5b50610389610da1565b6040518082815260200191505060405180910390f35b3480156103ab57600080fd5b506103b4610da7565b604051808c81526020018b81526020018a81526020018981526020018881526020018781526020018673ffffffffffffffffffffffffffffffffffffffff1673ffffffffffffffffffffffffffffffffffffffff1681526020018573ffffffffffffffffffffffffffffffffffffffff1673ffffffffffffffffffffffffffffffffffffffff1681526020018481526020018373ffffffffffffffffffffffffffffffffffffffff1673ffffffffffffffffffffffffffffffffffffffff1681526020018281526020019b50505050505050505050505060405180910390f35b3480156104a057600080fd5b506104a9610e89565b604051808273ffffffffffffffffffffffffffffffffffffffff1673ffffffffffffffffffffffffffffffffffffffff16815260200191505060405180910390f35b3480156104f757600080fd5b50610500610eaf565b6040518082815260200191505060405180910390f35b60025481565b600160009054906101000a900473ffffffffffffffffffffffffffffffffffffffff1681565b60006002600381111561055157fe5b600860149054906101000a900460ff16600381111561056c57fe5b14151515610608576040517f08c379a00000000000000000000000000000000000000000000000000000000081526004018080602001828103825260258152602001807f5472616e73616374696f6e2068617320616c7265616479206265656e2073657481526020017f746c65642e00000000000000000000000000000000000000000000000000000081525060400191505060405180910390fd5b600860009054906101000a900473ffffffffffffffffffffffffffffffffffffffff1673ffffffffffffffffffffffffffffffffffffffff163373ffffffffffffffffffffffffffffffffffffffff161415156106f3576040517f08c379a000000000000000000000000000000000000000000000000000000000815260040180806020018281038252602e8152602001807f5472616e736163746f6e2063616e206f6e6c7920626520736574746c6564206281526020017f7920636c61696d206f776e65722e00000000000000000000000000000000000081525060400191505060405180910390fd5b60008054905060008081905550600160009054906101000a900473ffffffffffffffffffffffffffffffffffffffff1673ffffffffffffffffffffffffffffffffffffffff166108fc829081150290604051600060405180830381858888f19350505050158015610768573d6000803e3d6000fd5b506001600381111561077657fe5b600860149054906101000a900460ff16600381111561079157fe5b1415610884576000346005540190506000600581905550600460009054906101000a900473ffffffffffffffffffffffffffffffffffffffff1673ffffffffffffffffffffffffffffffffffffffff166108fc829081150290604051600060405180830381858888f19350505050158015610810573d6000803e3d6000fd5b507f77980fe590ec3aaa964f83e59bc67228e62b66441607d8ac9eb58645d0a2cc6a600160405180806020018381526020018281038252601b8152602001807f496e737572616e6365207072656d69756d2077617320706169642e00000000008152506020019250505060405180910390a1505b6002600860146101000a81548160ff021916908360038111156108a357fe5b02179055507fbe71ffd27116cb4f6c570ac59edc69736978c960d2995ff2164848cfe24ec449600860149054906101000a900460ff1660405180806020018360038111156108ed57fe5b60ff1681526020018281038252601d8152602001807f54686520636f6e747261637420686173206265656e20736574746c65640000008152506020019250505060405180910390a1600191505090565b60003073ffffffffffffffffffffffffffffffffffffffff1631905090565b6000600860149054906101000a900460ff16905090565b60006001600381111561098257fe5b600860149054906101000a900460ff16600381111561099d57fe5b14151515610a13576040517f08c379a000000000000000000000000000000000000000000000000000000000815260040180806020018281038252601e8152602001807f5472616e73616374696f6e20697320616c726561647920696e7375726564000081525060200191505060405180910390fd5b60026003811115610a2057fe5b600860149054906101000a900460ff166003811115610a3b57fe5b14151515610ad7576040517f08c379a00000000000000000000000000000000000000000000000000000000081526004018080602001828103825260258152602001807f5472616e73616374696f6e2068617320616c7265616479206265656e2073657481526020017f746c65642e00000000000000000000000000000000000000000000000000000081525060400191505060405180910390fd5b610b04600654610aff3073ffffffffffffffffffffffffffffffffffffffff16316064610eb5565b610edf565b3411151515610b7b576040517f08c379a00000000000000000000000000000000000000000000000000000000081526004018080602001828103825260208152602001807f56616c75652063616e6e6f7420657863656564206d617820636f76657261676581525060200191505060405180910390fd5b3460056000828254019250508190555033600460006101000a81548173ffffffffffffffffffffffffffffffffffffffff021916908373ffffffffffffffffffffffffffffffffffffffff1602179055506001600860146101000a81548160ff02191690836003811115610beb57fe5b02179055507fbe71ffd27116cb4f6c570ac59edc69736978c960d2995ff2164848cfe24ec449600860149054906101000a900460ff166040518080602001836003811115610c3557fe5b60ff1681526020018281038252601e8152602001807f54686520636f6e747261637420686173206265656e20696e73757265642e00008152506020019250505060405180910390a16001905090565b600460009054906101000a900473ffffffffffffffffffffffffffffffffffffffff1673ffffffffffffffffffffffffffffffffffffffff163373ffffffffffffffffffffffffffffffffffffffff161415610d5357600073ffffffffffffffffffffffffffffffffffffffff168173ffffffffffffffffffffffffffffffffffffffff16141515610d525780600460006101000a81548173ffffffffffffffffffffffffffffffffffffffff021916908373ffffffffffffffffffffffffffffffffffffffff1602179055505b5b50565b600860149054906101000a900460ff1681565b60035481565b60075481565b600860009054906101000a900473ffffffffffffffffffffffffffffffffffffffff1681565b60005481565b60055481565b6000806000806000806000806000806000600254600354600054600554600654600754600160009054906101000a900473ffffffffffffffffffffffffffffffffffffffff16600460009054906101000a900473ffffffffffffffffffffffffffffffffffffffff16600860149054906101000a900460ff166003811115610e2b57fe5b600860009054906101000a900473ffffffffffffffffffffffffffffffffffffffff163073ffffffffffffffffffffffffffffffffffffffff16319a509a509a509a509a509a509a509a509a509a509a50909192939495969798999a565b600460009054906101000a900473ffffffffffffffffffffffffffffffffffffffff1681565b60065481565b60008082111515610ec557600080fd5b60008284811515610ed257fe5b0490508091505092915050565b600080831415610ef25760009050610f17565b60008284029050828482811515610f0557fe5b04141515610f1257600080fd5b809150505b9291505056fea165627a7a72305820d458bb2ea2e4985befb1b341611696633d0f110438ca4b061a48627373d299810029a165627a7a72305820dd39e1c689c674d371374c6645a5e1f439ae3bbf605bfe027c56bc050967b8910029",
  "source": "pragma solidity 0.5.0;\n\nimport \"./Transaction.sol\";\nimport \"./TransactionRegistry.sol\";\n\ncontract InsurableTransactionFactory {\n    address payable public owner;\n    TransactionRegistry internal registry;\n    \n    constructor(TransactionRegistry _registry) public {\n        registry = _registry;\n        owner = msg.sender;\n    }\n\n    event NewContractCreated (string msg, address contractAddress);\n\n    /// @dev Factory method to create the insurable Transaction contracts\n    /// @param counterParty the counter party of the Transaction contract\n    /// @param name the name of Transaction contract\n    /// @param max the maximum desired insurance coverage (%) for the Transaction contract\n    /// @param desc the description for the Transaction contract\n    /// @param premium the agreed upon premium (%) to pay out to insurers of the Transaction contract\n    /// @return newContractAddress: the new Transaction address\n    function create(\n        address payable counterParty, \n        bytes32 name,\n        uint max,\n        bytes32 desc,\n        uint premium)external payable returns (Transaction newContractAddress) {\n    \n        require(counterParty!=address(0), \"Counterparty cannot be null\");\n        \n        Transaction newContract = new Transaction(counterParty,name,desc,max,premium,msg.sender,uint(msg.value));\n        \n        registry.registerOwnership(address(newContract),msg.sender);\n        \n        address(newContract).transfer(msg.value);\n        emit NewContractCreated(\"Contract created successfully.\", address(newContract));\n        return newContract;\n    }\n\n}",
  "sourcePath": "/Users/robert/dev/projects/eotim/truffle/contracts/InsurableTransactionFactory.sol",
  "compiler": {
    "name": "solc",
    "version": "0.5.0+commit.1d4f565a.Emscripten.clang"
  },
  "schemaVersion": "3.0.2",
  "updatedAt": "2019-02-19T03:14:57.276Z",
  "devdoc": {
    "methods": {
      "create(address,bytes32,uint256,bytes32,uint256)": {
        "details": "Factory method to create the insurable Transaction contracts",
        "params": {
          "counterParty": "the counter party of the Transaction contract",
          "desc": "the description for the Transaction contract",
          "max": "the maximum desired insurance coverage (%) for the Transaction contract",
          "name": "the name of Transaction contract",
          "premium": "the agreed upon premium (%) to pay out to insurers of the Transaction contract"
        },
        "return": "newContractAddress: the new Transaction address"
      }
    }
  },
  "userdoc": {
    "methods": {}
  }
}