{
  "contractName": "TransactionRegistry",
  "abi": [
    {
      "constant": true,
      "inputs": [],
      "name": "owner",
      "outputs": [
        {
          "name": "",
          "type": "address"
        }
      ],
      "payable": false,
      "stateMutability": "view",
      "type": "function"
    },
    {
      "inputs": [],
      "payable": false,
      "stateMutability": "nonpayable",
      "type": "constructor"
    },
    {
      "constant": true,
      "inputs": [],
      "name": "getTransactions",
      "outputs": [
        {
          "name": "trxns",
          "type": "address[]"
        }
      ],
      "payable": false,
      "stateMutability": "view",
      "type": "function"
    },
    {
      "constant": true,
      "inputs": [],
      "name": "count",
      "outputs": [
        {
          "name": "_count",
          "type": "uint256"
        }
      ],
      "payable": false,
      "stateMutability": "view",
      "type": "function"
    },
    {
      "constant": false,
      "inputs": [
        {
          "name": "_transactionAddress",
          "type": "address"
        },
        {
          "name": "_insurer",
          "type": "address"
        }
      ],
      "name": "registerInsurer",
      "outputs": [],
      "payable": false,
      "stateMutability": "nonpayable",
      "type": "function"
    },
    {
      "constant": false,
      "inputs": [
        {
          "name": "_transactionAddress",
          "type": "address"
        },
        {
          "name": "_owner",
          "type": "address"
        }
      ],
      "name": "registerOwnership",
      "outputs": [],
      "payable": false,
      "stateMutability": "nonpayable",
      "type": "function"
    },
    {
      "constant": true,
      "inputs": [
        {
          "name": "_address",
          "type": "address"
        }
      ],
      "name": "getContractsOwnedBy",
      "outputs": [
        {
          "name": "_contracts",
          "type": "address[]"
        }
      ],
      "payable": false,
      "stateMutability": "view",
      "type": "function"
    },
    {
      "constant": true,
      "inputs": [
        {
          "name": "_address",
          "type": "address"
        }
      ],
      "name": "getContractsInsuredBy",
      "outputs": [
        {
          "name": "_contracts",
          "type": "address[]"
        }
      ],
      "payable": false,
      "stateMutability": "view",
      "type": "function"
    },
    {
      "constant": true,
      "inputs": [],
      "name": "getBalance",
      "outputs": [
        {
          "name": "_balance",
          "type": "uint256"
        }
      ],
      "payable": false,
      "stateMutability": "view",
      "type": "function"
    }
  ],
  "bytecode": "0x608060405234801561001057600080fd5b50336000806101000a81548173ffffffffffffffffffffffffffffffffffffffff021916908373ffffffffffffffffffffffffffffffffffffffff160217905550610997806100606000396000f3fe60806040526004361061008e576000357c0100000000000000000000000000000000000000000000000000000000900463ffffffff16806306661abd1461009357806312065fe0146100be57806312fff8ad146100e95780633642ecba1461018f57806383920e90146102005780638da5cb5b1461026c5780639b284ae2146102c3578063b0b1ef0d14610334575b600080fd5b34801561009f57600080fd5b506100a86103da565b6040518082815260200191505060405180910390f35b3480156100ca57600080fd5b506100d36103e7565b6040518082815260200191505060405180910390f35b3480156100f557600080fd5b506101386004803603602081101561010c57600080fd5b81019080803573ffffffffffffffffffffffffffffffffffffffff169060200190929190505050610406565b6040518080602001828103825283818151815260200191508051906020019060200280838360005b8381101561017b578082015181840152602081019050610160565b505050509050019250505060405180910390f35b34801561019b57600080fd5b506101fe600480360360408110156101b257600080fd5b81019080803573ffffffffffffffffffffffffffffffffffffffff169060200190929190803573ffffffffffffffffffffffffffffffffffffffff1690602001909291905050506104d3565b005b34801561020c57600080fd5b5061021561065f565b6040518080602001828103825283818151815260200191508051906020019060200280838360005b8381101561025857808201518184015260208101905061023d565b505050509050019250505060405180910390f35b34801561027857600080fd5b506102816106ed565b604051808273ffffffffffffffffffffffffffffffffffffffff1673ffffffffffffffffffffffffffffffffffffffff16815260200191505060405180910390f35b3480156102cf57600080fd5b50610332600480360360408110156102e657600080fd5b81019080803573ffffffffffffffffffffffffffffffffffffffff169060200190929190803573ffffffffffffffffffffffffffffffffffffffff169060200190929190505050610712565b005b34801561034057600080fd5b506103836004803603602081101561035757600080fd5b81019080803573ffffffffffffffffffffffffffffffffffffffff16906020019092919050505061089e565b6040518080602001828103825283818151815260200191508051906020019060200280838360005b838110156103c65780820151818401526020810190506103ab565b505050509050019250505060405180910390f35b6000600480549050905090565b60003073ffffffffffffffffffffffffffffffffffffffff1631905090565b6060600260008373ffffffffffffffffffffffffffffffffffffffff1673ffffffffffffffffffffffffffffffffffffffff1681526020019081526020016000208054806020026020016040519081016040528092919081815260200182805480156104c757602002820191906000526020600020905b8160009054906101000a900473ffffffffffffffffffffffffffffffffffffffff1673ffffffffffffffffffffffffffffffffffffffff168152602001906001019080831161047d575b50505050509050919050565b60008290508173ffffffffffffffffffffffffffffffffffffffff168173ffffffffffffffffffffffffffffffffffffffff1673ffffffffffffffffffffffffffffffffffffffff161415156105b7576040517f08c379a00000000000000000000000000000000000000000000000000000000081526004018080602001828103825260338152602001807f5472616e73616374696f6e206973206e6f74206f776e65642062792070726f7081526020017f6f736564207265676973747279206f776e65720000000000000000000000000081525060400191505060405180910390fd5b600360008373ffffffffffffffffffffffffffffffffffffffff1673ffffffffffffffffffffffffffffffffffffffff1681526020019081526020016000208390806001815401808255809150509060018203906000526020600020016000909192909190916101000a81548173ffffffffffffffffffffffffffffffffffffffff021916908373ffffffffffffffffffffffffffffffffffffffff16021790555050505050565b606060048054806020026020016040519081016040528092919081815260200182805480156106e357602002820191906000526020600020905b8160009054906101000a900473ffffffffffffffffffffffffffffffffffffffff1673ffffffffffffffffffffffffffffffffffffffff1681526020019060010190808311610699575b5050505050905090565b6000809054906101000a900473ffffffffffffffffffffffffffffffffffffffff1681565b60008290508173ffffffffffffffffffffffffffffffffffffffff168173ffffffffffffffffffffffffffffffffffffffff1673ffffffffffffffffffffffffffffffffffffffff161415156107f6576040517f08c379a00000000000000000000000000000000000000000000000000000000081526004018080602001828103825260378152602001807f5472616e73616374696f6e206973206e6f7420696e737572656420627920707281526020017f6f706f73656420726567697374727920696e737572657200000000000000000081525060400191505060405180910390fd5b600260008473ffffffffffffffffffffffffffffffffffffffff1673ffffffffffffffffffffffffffffffffffffffff1681526020019081526020016000208290806001815401808255809150509060018203906000526020600020016000909192909190916101000a81548173ffffffffffffffffffffffffffffffffffffffff021916908373ffffffffffffffffffffffffffffffffffffffff16021790555050505050565b6060600360008373ffffffffffffffffffffffffffffffffffffffff1673ffffffffffffffffffffffffffffffffffffffff16815260200190815260200160002080548060200260200160405190810160405280929190818152602001828054801561095f57602002820191906000526020600020905b8160009054906101000a900473ffffffffffffffffffffffffffffffffffffffff1673ffffffffffffffffffffffffffffffffffffffff1681526020019060010190808311610915575b5050505050905091905056fea165627a7a7230582007f1e0e02069e382d78723d0d3896bd4c228dfbd6155d831ebdd0a3e5387b5680029",
  "source": "pragma solidity 0.5.0;\n\n\nimport \"./Transaction.sol\";\n\ncontract TransactionRegistry {\n\n    address payable public owner;\n    TransactionRegistry internal registry;\n    mapping(address => address[]) contractsInsuredBy;\n    mapping(address => address[]) contractsOwned;\n    address[] contracts;\n\n\n   /// @dev getter for all Transaction contracts\n    /// @return trxns An array of Transaction structs\n    function getTransactions() public view returns (address[] memory trxns) {\n        return contracts;\n    }\n    \n    /// @dev counts number of contracts currently in the factory\n    /// @return _count: count of contracts currently in the factory\n    function count() public view returns (uint _count) { \n        return contracts.length;\n    }\n       \n    /// @dev constructor\n    constructor() public {\n        owner = msg.sender;\n    }\n\n\n    /// @dev Registration method for new insured contracts\n    /// @param _transactionAddress address of the transaction\n    /// @param _insurer address of proposed insurer\n    function registerInsurer(address payable _transactionAddress, address payable _insurer) public {\n        Transaction trxnInsurer = Transaction(_transactionAddress);\n        require(address(trxnInsurer.insurer) == _insurer, \"Transaction is not insured by proposed registry insurer\");\n        contractsInsuredBy[_transactionAddress].push(_insurer);\n\n    }\n\n    /// @dev Registration method for new owned contracts\n    /// @param _transactionAddress address of the transaction\n    /// @param _owner address of proposed owner\n    function registerOwnership(address payable _transactionAddress, address payable _owner) public {\n        Transaction trxnOwner = Transaction(_transactionAddress);\n        require(address(trxnOwner.owner) == _owner, \"Transaction is not owned by proposed registry owner\");\n        contractsOwned[_owner].push(_transactionAddress);\n    }\n\n\n    /// @dev A lookup method for finding all contracts currently owned by parameter `address`\n    /// @param _address address to lookup\n    /// @return contracts an array of contracts owned by the user with parameter `address` in this factory\n    function getContractsOwnedBy(address _address) public view returns (address[] memory _contracts) {\n        return contractsOwned[_address];\n    }\n\n    /// @dev A lookup method for finding all contracts currently insured by parameter `address`\n    /// @param _address address to lookup\n    /// @return contracts an array of contracts owned by the user with parameter `address` in this factory\n    function getContractsInsuredBy(address _address) public view returns (address[] memory _contracts) {\n        return contractsInsuredBy[_address];\n    }\n\n    /// @dev returns the balance of the factory contract\n    /// @return _balance \n    function getBalance() public view returns (uint _balance) {\n        return address(this).balance;\n    }\n\n\n}",
  "sourcePath": "/Users/robert/dev/projects/eotim/truffle/contracts/TransactionRegistry.sol",
  "compiler": {
    "name": "solc",
    "version": "0.5.0+commit.1d4f565a.Emscripten.clang"
  },
  "schemaVersion": "3.0.2",
  "updatedAt": "2019-02-19T03:14:57.279Z",
  "devdoc": {
    "methods": {
      "constructor": {
        "details": "constructor"
      },
      "count()": {
        "details": "counts number of contracts currently in the factory",
        "return": "_count: count of contracts currently in the factory"
      },
      "getBalance()": {
        "details": "returns the balance of the factory contract",
        "return": "_balance "
      },
      "getContractsInsuredBy(address)": {
        "details": "A lookup method for finding all contracts currently insured by parameter `address`",
        "params": {
          "_address": "address to lookup"
        },
        "return": "contracts an array of contracts owned by the user with parameter `address` in this factory"
      },
      "getContractsOwnedBy(address)": {
        "details": "A lookup method for finding all contracts currently owned by parameter `address`",
        "params": {
          "_address": "address to lookup"
        },
        "return": "contracts an array of contracts owned by the user with parameter `address` in this factory"
      },
      "getTransactions()": {
        "details": "getter for all Transaction contracts",
        "return": "trxns An array of Transaction structs"
      },
      "registerInsurer(address,address)": {
        "details": "Registration method for new insured contracts",
        "params": {
          "_insurer": "address of proposed insurer",
          "_transactionAddress": "address of the transaction"
        }
      },
      "registerOwnership(address,address)": {
        "details": "Registration method for new owned contracts",
        "params": {
          "_owner": "address of proposed owner",
          "_transactionAddress": "address of the transaction"
        }
      }
    }
  },
  "userdoc": {
    "methods": {}
  }
}