{
  "contractName": "Transaction",
  "abi": [
    {
      "constant": true,
      "inputs": [],
      "name": "name",
      "outputs": [
        {
          "name": "",
          "type": "bytes32"
        }
      ],
      "payable": false,
      "stateMutability": "view",
      "type": "function"
    },
    {
      "constant": true,
      "inputs": [],
      "name": "counter_party",
      "outputs": [
        {
          "name": "",
          "type": "address"
        }
      ],
      "payable": false,
      "stateMutability": "view",
      "type": "function"
    },
    {
      "constant": true,
      "inputs": [],
      "name": "contract_state",
      "outputs": [
        {
          "name": "",
          "type": "uint8"
        }
      ],
      "payable": false,
      "stateMutability": "view",
      "type": "function"
    },
    {
      "constant": true,
      "inputs": [],
      "name": "desc",
      "outputs": [
        {
          "name": "",
          "type": "bytes32"
        }
      ],
      "payable": false,
      "stateMutability": "view",
      "type": "function"
    },
    {
      "constant": true,
      "inputs": [],
      "name": "premium_percent",
      "outputs": [
        {
          "name": "",
          "type": "uint256"
        }
      ],
      "payable": false,
      "stateMutability": "view",
      "type": "function"
    },
    {
      "constant": true,
      "inputs": [],
      "name": "owner",
      "outputs": [
        {
          "name": "",
          "type": "address"
        }
      ],
      "payable": false,
      "stateMutability": "view",
      "type": "function"
    },
    {
      "constant": true,
      "inputs": [],
      "name": "transaction_value",
      "outputs": [
        {
          "name": "",
          "type": "uint256"
        }
      ],
      "payable": false,
      "stateMutability": "view",
      "type": "function"
    },
    {
      "constant": true,
      "inputs": [],
      "name": "current_coverage",
      "outputs": [
        {
          "name": "",
          "type": "uint256"
        }
      ],
      "payable": false,
      "stateMutability": "view",
      "type": "function"
    },
    {
      "constant": true,
      "inputs": [],
      "name": "insurer",
      "outputs": [
        {
          "name": "",
          "type": "address"
        }
      ],
      "payable": false,
      "stateMutability": "view",
      "type": "function"
    },
    {
      "constant": true,
      "inputs": [],
      "name": "max_coverage",
      "outputs": [
        {
          "name": "",
          "type": "uint256"
        }
      ],
      "payable": false,
      "stateMutability": "view",
      "type": "function"
    },
    {
      "inputs": [
        {
          "name": "_counterparty",
          "type": "address"
        },
        {
          "name": "_name",
          "type": "bytes32"
        },
        {
          "name": "_desc",
          "type": "bytes32"
        },
        {
          "name": "_max_coverage",
          "type": "uint256"
        },
        {
          "name": "_prem",
          "type": "uint256"
        },
        {
          "name": "_owner",
          "type": "address"
        },
        {
          "name": "_value",
          "type": "uint256"
        }
      ],
      "payable": true,
      "stateMutability": "payable",
      "type": "constructor"
    },
    {
      "payable": true,
      "stateMutability": "payable",
      "type": "fallback"
    },
    {
      "anonymous": false,
      "inputs": [
        {
          "indexed": false,
          "name": "message",
          "type": "string"
        },
        {
          "indexed": false,
          "name": "state",
          "type": "uint8"
        }
      ],
      "name": "TransactionStatusChange",
      "type": "event"
    },
    {
      "anonymous": false,
      "inputs": [
        {
          "indexed": false,
          "name": "message",
          "type": "string"
        },
        {
          "indexed": false,
          "name": "value",
          "type": "uint256"
        }
      ],
      "name": "PremiumPaid",
      "type": "event"
    },
    {
      "constant": true,
      "inputs": [],
      "name": "getState",
      "outputs": [
        {
          "name": "state",
          "type": "uint8"
        }
      ],
      "payable": false,
      "stateMutability": "view",
      "type": "function"
    },
    {
      "constant": true,
      "inputs": [],
      "name": "getTransactionDetails",
      "outputs": [
        {
          "name": "_name",
          "type": "bytes32"
        },
        {
          "name": "_desc",
          "type": "bytes32"
        },
        {
          "name": "_value",
          "type": "uint256"
        },
        {
          "name": "_coverage",
          "type": "uint256"
        },
        {
          "name": "_maxCoverage",
          "type": "uint256"
        },
        {
          "name": "_premium_percent",
          "type": "uint256"
        },
        {
          "name": "_counterParty",
          "type": "address"
        },
        {
          "name": "_insurer",
          "type": "address"
        },
        {
          "name": "status",
          "type": "uint256"
        },
        {
          "name": "_owner",
          "type": "address"
        },
        {
          "name": "_balance",
          "type": "uint256"
        }
      ],
      "payable": false,
      "stateMutability": "view",
      "type": "function"
    },
    {
      "constant": false,
      "inputs": [
        {
          "name": "newOwner",
          "type": "address"
        }
      ],
      "name": "transferInsurer",
      "outputs": [],
      "payable": false,
      "stateMutability": "nonpayable",
      "type": "function"
    },
    {
      "constant": false,
      "inputs": [],
      "name": "insure",
      "outputs": [
        {
          "name": "_success",
          "type": "bool"
        }
      ],
      "payable": true,
      "stateMutability": "payable",
      "type": "function"
    },
    {
      "constant": false,
      "inputs": [],
      "name": "settle",
      "outputs": [
        {
          "name": "_success",
          "type": "bool"
        }
      ],
      "payable": true,
      "stateMutability": "payable",
      "type": "function"
    },
    {
      "constant": true,
      "inputs": [],
      "name": "getBalance",
      "outputs": [
        {
          "name": "_balance",
          "type": "uint256"
        }
      ],
      "payable": false,
      "stateMutability": "view",
      "type": "function"
    }
  ],
  "bytecode": "0x608060405260405160e08061113d833981018060405260e081101561002357600080fd5b8101908080519060200190929190805190602001909291908051906020019092919080519060200190929190805190602001909291908051906020019092919080519060200190929190505050600073ffffffffffffffffffffffffffffffffffffffff168773ffffffffffffffffffffffffffffffffffffffff1614151515610115576040517f08c379a000000000000000000000000000000000000000000000000000000000815260040180806020018281038252601d8152602001807f436f756e7465722070617274792063616e6e6f7420626520626c616e6b00000081525060200191505060405180910390fd5b86600160006101000a81548173ffffffffffffffffffffffffffffffffffffffff021916908373ffffffffffffffffffffffffffffffffffffffff16021790555081600860006101000a81548173ffffffffffffffffffffffffffffffffffffffff021916908373ffffffffffffffffffffffffffffffffffffffff160217905550836006819055508260078190555085600281905550846003819055506000600860146101000a81548160ff021916908360038111156101d257fe5b02179055508060008190555050505050505050610f49806101f46000396000f3fe6080604052600436106100e6576000357c0100000000000000000000000000000000000000000000000000000000900463ffffffff16806306fdde03146100e85780630a5d2fc81461011357806311da60b41461016a57806312065fe01461018c5780631865c57d146101b75780633c3ce17d146101f05780634173fb9d146102125780634aaf6b861461026357806355f150f11461029c578063830361b6146102c75780638da5cb5b146102f2578063a4da04e414610349578063c84d708714610374578063d8a5cc031461039f578063dbc837c514610494578063eec8cb92146104eb575b005b3480156100f457600080fd5b506100fd610516565b6040518082815260200191505060405180910390f35b34801561011f57600080fd5b5061012861051c565b604051808273ffffffffffffffffffffffffffffffffffffffff1673ffffffffffffffffffffffffffffffffffffffff16815260200191505060405180910390f35b610172610542565b604051808215151515815260200191505060405180910390f35b34801561019857600080fd5b506101a161093d565b6040518082815260200191505060405180910390f35b3480156101c357600080fd5b506101cc61095c565b604051808260038111156101dc57fe5b60ff16815260200191505060405180910390f35b6101f8610973565b604051808215151515815260200191505060405180910390f35b34801561021e57600080fd5b506102616004803603602081101561023557600080fd5b81019080803573ffffffffffffffffffffffffffffffffffffffff169060200190929190505050610c84565b005b34801561026f57600080fd5b50610278610d56565b6040518082600381111561028857fe5b60ff16815260200191505060405180910390f35b3480156102a857600080fd5b506102b1610d69565b6040518082815260200191505060405180910390f35b3480156102d357600080fd5b506102dc610d6f565b6040518082815260200191505060405180910390f35b3480156102fe57600080fd5b50610307610d75565b604051808273ffffffffffffffffffffffffffffffffffffffff1673ffffffffffffffffffffffffffffffffffffffff16815260200191505060405180910390f35b34801561035557600080fd5b5061035e610d9b565b6040518082815260200191505060405180910390f35b34801561038057600080fd5b50610389610da1565b6040518082815260200191505060405180910390f35b3480156103ab57600080fd5b506103b4610da7565b604051808c81526020018b81526020018a81526020018981526020018881526020018781526020018673ffffffffffffffffffffffffffffffffffffffff1673ffffffffffffffffffffffffffffffffffffffff1681526020018573ffffffffffffffffffffffffffffffffffffffff1673ffffffffffffffffffffffffffffffffffffffff1681526020018481526020018373ffffffffffffffffffffffffffffffffffffffff1673ffffffffffffffffffffffffffffffffffffffff1681526020018281526020019b50505050505050505050505060405180910390f35b3480156104a057600080fd5b506104a9610e89565b604051808273ffffffffffffffffffffffffffffffffffffffff1673ffffffffffffffffffffffffffffffffffffffff16815260200191505060405180910390f35b3480156104f757600080fd5b50610500610eaf565b6040518082815260200191505060405180910390f35b60025481565b600160009054906101000a900473ffffffffffffffffffffffffffffffffffffffff1681565b60006002600381111561055157fe5b600860149054906101000a900460ff16600381111561056c57fe5b14151515610608576040517f08c379a00000000000000000000000000000000000000000000000000000000081526004018080602001828103825260258152602001807f5472616e73616374696f6e2068617320616c7265616479206265656e2073657481526020017f746c65642e00000000000000000000000000000000000000000000000000000081525060400191505060405180910390fd5b600860009054906101000a900473ffffffffffffffffffffffffffffffffffffffff1673ffffffffffffffffffffffffffffffffffffffff163373ffffffffffffffffffffffffffffffffffffffff161415156106f3576040517f08c379a000000000000000000000000000000000000000000000000000000000815260040180806020018281038252602e8152602001807f5472616e736163746f6e2063616e206f6e6c7920626520736574746c6564206281526020017f7920636c61696d206f776e65722e00000000000000000000000000000000000081525060400191505060405180910390fd5b60008054905060008081905550600160009054906101000a900473ffffffffffffffffffffffffffffffffffffffff1673ffffffffffffffffffffffffffffffffffffffff166108fc829081150290604051600060405180830381858888f19350505050158015610768573d6000803e3d6000fd5b506001600381111561077657fe5b600860149054906101000a900460ff16600381111561079157fe5b1415610884576000346005540190506000600581905550600460009054906101000a900473ffffffffffffffffffffffffffffffffffffffff1673ffffffffffffffffffffffffffffffffffffffff166108fc829081150290604051600060405180830381858888f19350505050158015610810573d6000803e3d6000fd5b507f77980fe590ec3aaa964f83e59bc67228e62b66441607d8ac9eb58645d0a2cc6a600160405180806020018381526020018281038252601b8152602001807f496e737572616e6365207072656d69756d2077617320706169642e00000000008152506020019250505060405180910390a1505b6002600860146101000a81548160ff021916908360038111156108a357fe5b02179055507fbe71ffd27116cb4f6c570ac59edc69736978c960d2995ff2164848cfe24ec449600860149054906101000a900460ff1660405180806020018360038111156108ed57fe5b60ff1681526020018281038252601d8152602001807f54686520636f6e747261637420686173206265656e20736574746c65640000008152506020019250505060405180910390a1600191505090565b60003073ffffffffffffffffffffffffffffffffffffffff1631905090565b6000600860149054906101000a900460ff16905090565b60006001600381111561098257fe5b600860149054906101000a900460ff16600381111561099d57fe5b14151515610a13576040517f08c379a000000000000000000000000000000000000000000000000000000000815260040180806020018281038252601e8152602001807f5472616e73616374696f6e20697320616c726561647920696e7375726564000081525060200191505060405180910390fd5b60026003811115610a2057fe5b600860149054906101000a900460ff166003811115610a3b57fe5b14151515610ad7576040517f08c379a00000000000000000000000000000000000000000000000000000000081526004018080602001828103825260258152602001807f5472616e73616374696f6e2068617320616c7265616479206265656e2073657481526020017f746c65642e00000000000000000000000000000000000000000000000000000081525060400191505060405180910390fd5b610b04600654610aff3073ffffffffffffffffffffffffffffffffffffffff16316064610eb5565b610edf565b3411151515610b7b576040517f08c379a00000000000000000000000000000000000000000000000000000000081526004018080602001828103825260208152602001807f56616c75652063616e6e6f7420657863656564206d617820636f76657261676581525060200191505060405180910390fd5b3460056000828254019250508190555033600460006101000a81548173ffffffffffffffffffffffffffffffffffffffff021916908373ffffffffffffffffffffffffffffffffffffffff1602179055506001600860146101000a81548160ff02191690836003811115610beb57fe5b02179055507fbe71ffd27116cb4f6c570ac59edc69736978c960d2995ff2164848cfe24ec449600860149054906101000a900460ff166040518080602001836003811115610c3557fe5b60ff1681526020018281038252601e8152602001807f54686520636f6e747261637420686173206265656e20696e73757265642e00008152506020019250505060405180910390a16001905090565b600460009054906101000a900473ffffffffffffffffffffffffffffffffffffffff1673ffffffffffffffffffffffffffffffffffffffff163373ffffffffffffffffffffffffffffffffffffffff161415610d5357600073ffffffffffffffffffffffffffffffffffffffff168173ffffffffffffffffffffffffffffffffffffffff16141515610d525780600460006101000a81548173ffffffffffffffffffffffffffffffffffffffff021916908373ffffffffffffffffffffffffffffffffffffffff1602179055505b5b50565b600860149054906101000a900460ff1681565b60035481565b60075481565b600860009054906101000a900473ffffffffffffffffffffffffffffffffffffffff1681565b60005481565b60055481565b6000806000806000806000806000806000600254600354600054600554600654600754600160009054906101000a900473ffffffffffffffffffffffffffffffffffffffff16600460009054906101000a900473ffffffffffffffffffffffffffffffffffffffff16600860149054906101000a900460ff166003811115610e2b57fe5b600860009054906101000a900473ffffffffffffffffffffffffffffffffffffffff163073ffffffffffffffffffffffffffffffffffffffff16319a509a509a509a509a509a509a509a509a509a509a50909192939495969798999a565b600460009054906101000a900473ffffffffffffffffffffffffffffffffffffffff1681565b60065481565b60008082111515610ec557600080fd5b60008284811515610ed257fe5b0490508091505092915050565b600080831415610ef25760009050610f17565b60008284029050828482811515610f0557fe5b04141515610f1257600080fd5b809150505b9291505056fea165627a7a72305820d458bb2ea2e4985befb1b341611696633d0f110438ca4b061a48627373d299810029",
  "source": "pragma solidity 0.5.0;\nimport 'openzeppelin-solidity/contracts/math/SafeMath.sol';\n\ncontract Transaction  {\n    using SafeMath for uint256;\n\n    // value of the transaction \n    uint256 public transaction_value;\n    // Counter party is the party which is on the receiving end of this transaction\n    address payable public counter_party;\n    // Name of the transaction contract\n    bytes32 public name;\n    // description of the transaction\n    bytes32 public desc;\n    // person insuring this contract\n    address payable public insurer;\n    // the current insurance coverage deposited in this contract\n    uint public current_coverage;\n    // maximum coverage allowed\n    uint public max_coverage;\n    // premium to be paid for the insurance\n    uint public premium_percent;\n    // owner\n    address payable public owner;\n\n    enum TransactionState { Uninsured, Insured, Settled, ClaimPending }\n    TransactionState public contract_state;\n\n    event TransactionStatusChange(string message, TransactionState state);\n    event PremiumPaid(string message, uint value);\n\n    /// @dev basic constructor \n    /// @param  _counterparty counter party of contract\n    /// @param _name name of transaction\n    /// @param _desc description of transaction\n    /// @param _max_coverage maximum set converage\n    /// @param _prem premium of transaction\n    /// @param _owner owner of transaction\n    /// @param _value value of the transaction\n    constructor(\n        address payable _counterparty, \n        bytes32 _name, \n        bytes32 _desc, \n        uint _max_coverage, \n        uint _prem,\n        address payable _owner,\n        uint _value) public payable {\n        \n        require(_counterparty!=address(0), \"Counter party cannot be blank\");\n        \n        counter_party = _counterparty;\n        owner = _owner;\n        max_coverage = _max_coverage;\n        premium_percent = _prem;\n        name = _name;\n        desc = _desc;\n        contract_state = TransactionState.Uninsured;\n        transaction_value = _value;\n    }\n\n    /// @dev The current state of the contract in the lifecycle\n    /// @return state, the state of the transaction\n    function getState() public view returns (TransactionState state) {\n        return contract_state;\n    }\n\n    /// @dev gets the transaction details \n    /// @return _name, name of transaction\n    /// @return _desc,  description of transaction\n    /// @return _value, value of transaction\n    /// @return _coverage, current coverage\n    /// @return _maxCoverage, maximum set coverage\n    /// @return _premium_percent, premium perecent\n    /// @return _counterParty, counterparty of the transaction\n    /// @return _insurer, insurer address\n    /// @return _status, the state of the contract\n    /// @return _owner, owner of this contract\n    /// @return _balance, balance of contract\n    function getTransactionDetails() public view returns (\n            bytes32 _name, \n            bytes32 _desc, \n            uint _value,\n            uint _coverage,\n            uint _maxCoverage,\n            uint _premium_percent,\n            address payable _counterParty,\n            address payable  _insurer,\n            uint status,\n            address payable _owner,\n            uint _balance\n            ) {\n\n        return (\n            name, \n            desc, \n            transaction_value, \n            current_coverage, \n            max_coverage,\n            premium_percent,\n            counter_party,\n            insurer,\n            uint(contract_state),\n            owner,\n            uint(address(this).balance)\n        );\n    }\n\n    /// @dev insurer modifier\n    modifier onlyInsurer() {\n        if (msg.sender == insurer)\n        _;\n    }\n\n    /// @dev allows the currently insurer to transfer their rights to a new insurer\n    /// @param newOwner new insurer who is entitle to insurance settlment\n    function transferInsurer(address payable newOwner) public onlyInsurer  {\n        if (newOwner != address(0)) {\n            insurer = newOwner;\n        }\n    }\n\n    /// @dev insures the transaction locking up to the maximum coverage \n    /// @return _success \n    function insure() public payable returns (bool _success) {\n        require(contract_state!=TransactionState.Insured,\"Transaction is already insured\");\n        require(contract_state!=TransactionState.Settled, \"Transaction has already been settled.\");\n        require((msg.value) <= (SafeMath.mul(max_coverage,SafeMath.div(address(this).balance,100))),\"Value cannot exceed max coverage\");\n        \n        current_coverage += msg.value;\n        insurer = msg.sender;\n        contract_state = TransactionState.Insured;\n        emit TransactionStatusChange(\"The contract has been insured.\",contract_state);\n        return true;\n    }\n\n    /// @dev Begins a flow to settle the state of the escrow transaction, transfering the value\n    /// ---- of contract to the counter party, and if insured transfers the exisiting coverage\n    /// ---- and settlement fee is transfered to the insurer.  \n    /// @return _success, successfully insured the contract or not\n    function settle() public payable returns (bool _success) {\n        require(contract_state!=TransactionState.Settled, \"Transaction has already been settled.\"); \n        require(msg.sender == owner, \"Transacton can only be settled by claim owner.\");\n        \n        uint amount = transaction_value;\n        transaction_value = 0;\n        address(counter_party).transfer(amount);\n        if (contract_state==TransactionState.Insured)\n        {\n            uint insurer_payback = current_coverage+msg.value;\n            current_coverage = 0;\n            address(insurer).transfer(insurer_payback);\n            emit PremiumPaid(\"Insurance premium was paid.\",1);\n        } \n        contract_state = TransactionState.Settled;\n        emit TransactionStatusChange(\"The contract has been settled\", contract_state);\n        return true;\n    }\n\n    \n\n    /// @dev gets the balance of the contract\n    /// @return _balance balance of this contract\n    function getBalance() public view returns (uint _balance) {\n        return address(this).balance;\n    }\n\n      /// @dev fallback payable function\n    function() external payable  {}\n\n\n    /// =================== NOT REAL =============================\n\n    /// @dev THIS IS FOR FUN PURPOSES ONLY & WOULD BE DELETED IN A REAL APP\n    /// ---- a true clams process would need to provide a real IPFS document hash\n    /// ---- and a set of validations would be made using perhaps an oracle\n    /// ---- in order to execute the claims payback\n    // function fMakeDemoClaim(string proofHash) external  {\n    //     require(contract_state == TransactionState.Insured, \"Transaction must be insured to escalate to make a claim\");\n    //     require(keccak256(proofHash) == keccak256(demoClaimHash), \"Evidence is not substantial enough to escalate to claims process\");\n    //     // Proof has been provided yay, transfer coverage to defaultee!\n\n    //     address(counter_party).transfer(current_coverage);\n    //     current_coverage = 0;\n\n    //     contract_state = TransactionState.Settled;\n    //     emit TransactionStatusChange(\"The claim on the contract has been settled\", contract_state);\n    // }\n\n    /// ==========================================================\n}",
  "sourcePath": "/Users/robert/dev/projects/eotim/truffle/contracts/Transaction.sol",
  "compiler": {
    "name": "solc",
    "version": "0.5.0+commit.1d4f565a.Emscripten.clang"
  },
  "schemaVersion": "3.0.2",
  "updatedAt": "2019-02-19T03:14:57.277Z",
  "devdoc": {
    "methods": {
      "constructor": {
        "details": "basic constructor ",
        "params": {
          "_counterparty": "counter party of contract",
          "_desc": "description of transaction",
          "_max_coverage": "maximum set converage",
          "_name": "name of transaction",
          "_owner": "owner of transaction",
          "_prem": "premium of transaction",
          "_value": "value of the transaction"
        }
      },
      "getBalance()": {
        "details": "gets the balance of the contract",
        "return": "_balance balance of this contract"
      },
      "getState()": {
        "details": "The current state of the contract in the lifecycle",
        "return": "state, the state of the transaction"
      },
      "getTransactionDetails()": {
        "details": "gets the transaction details ",
        "return": "_name, name of transaction_desc,  description of transaction_value, value of transaction_coverage, current coverage_maxCoverage, maximum set coverage_premium_percent, premium perecent_counterParty, counterparty of the transaction_insurer, insurer address_status, the state of the contract_owner, owner of this contract_balance, balance of contract"
      },
      "insure()": {
        "details": "insures the transaction locking up to the maximum coverage ",
        "return": "_success "
      },
      "settle()": {
        "details": "Begins a flow to settle the state of the escrow transaction, transfering the value ---- of contract to the counter party, and if insured transfers the exisiting coverage ---- and settlement fee is transfered to the insurer.  ",
        "return": "_success, successfully insured the contract or not"
      },
      "transferInsurer(address)": {
        "details": "allows the currently insurer to transfer their rights to a new insurer",
        "params": {
          "newOwner": "new insurer who is entitle to insurance settlment"
        }
      }
    }
  },
  "userdoc": {
    "methods": {}
  }
}