{
  "contractName": "InsurableTransactionFactory",
  "abi": [
    {
      "constant": true,
      "inputs": [],
      "name": "owner",
      "outputs": [
        {
          "name": "",
          "type": "address"
        }
      ],
      "payable": false,
      "stateMutability": "view",
      "type": "function"
    },
    {
      "inputs": [],
      "payable": false,
      "stateMutability": "nonpayable",
      "type": "constructor"
    },
    {
      "anonymous": false,
      "inputs": [
        {
          "indexed": false,
          "name": "msg",
          "type": "string"
        },
        {
          "indexed": false,
          "name": "contractAddress",
          "type": "address"
        }
      ],
      "name": "NewContractCreated",
      "type": "event"
    },
    {
      "constant": true,
      "inputs": [
        {
          "name": "_address",
          "type": "address"
        }
      ],
      "name": "getContractsOwnedBy",
      "outputs": [
        {
          "name": "_contracts",
          "type": "address[]"
        }
      ],
      "payable": false,
      "stateMutability": "view",
      "type": "function"
    },
    {
      "constant": true,
      "inputs": [],
      "name": "count",
      "outputs": [
        {
          "name": "_count",
          "type": "uint256"
        }
      ],
      "payable": false,
      "stateMutability": "view",
      "type": "function"
    },
    {
      "constant": false,
      "inputs": [
        {
          "name": "counterParty",
          "type": "address"
        },
        {
          "name": "name",
          "type": "bytes32"
        },
        {
          "name": "max",
          "type": "uint256"
        },
        {
          "name": "desc",
          "type": "bytes32"
        },
        {
          "name": "premium",
          "type": "uint256"
        }
      ],
      "name": "create",
      "outputs": [
        {
          "name": "newContractAddress",
          "type": "address"
        }
      ],
      "payable": true,
      "stateMutability": "payable",
      "type": "function"
    },
    {
      "constant": true,
      "inputs": [],
      "name": "getTransactions",
      "outputs": [
        {
          "name": "trxns",
          "type": "address[]"
        }
      ],
      "payable": false,
      "stateMutability": "view",
      "type": "function"
    }
  ],
  "bytecode": "0x608060405234801561001057600080fd5b50336000806101000a81548173ffffffffffffffffffffffffffffffffffffffff021916908373ffffffffffffffffffffffffffffffffffffffff160217905550611bd3806100606000396000f30060806040526004361061006d576000357c0100000000000000000000000000000000000000000000000000000000900463ffffffff16806306661abd1461007257806383920e901461009d5780638da5cb5b14610109578063b0b1ef0d14610160578063ecc45862146101f8575b600080fd5b34801561007e57600080fd5b5061008761029e565b6040518082815260200191505060405180910390f35b3480156100a957600080fd5b506100b26102e8565b6040518080602001828103825283818151815260200191508051906020019060200280838360005b838110156100f55780820151818401526020810190506100da565b505050509050019250505060405180910390f35b34801561011557600080fd5b5061011e610376565b604051808273ffffffffffffffffffffffffffffffffffffffff1673ffffffffffffffffffffffffffffffffffffffff16815260200191505060405180910390f35b34801561016c57600080fd5b506101a1600480360381019080803573ffffffffffffffffffffffffffffffffffffffff16906020019092919050505061039b565b6040518080602001828103825283818151815260200191508051906020019060200280838360005b838110156101e45780820151818401526020810190506101c9565b505050509050019250505060405180910390f35b61025c600480360381019080803573ffffffffffffffffffffffffffffffffffffffff169060200190929190803560001916906020019092919080359060200190929190803560001916906020019092919080359060200190929190505050610468565b604051808273ffffffffffffffffffffffffffffffffffffffff1673ffffffffffffffffffffffffffffffffffffffff16815260200191505060405180910390f35b6000600160003373ffffffffffffffffffffffffffffffffffffffff1673ffffffffffffffffffffffffffffffffffffffff16815260200190815260200160002080549050905090565b6060600280548060200260200160405190810160405280929190818152602001828054801561036c57602002820191906000526020600020905b8160009054906101000a900473ffffffffffffffffffffffffffffffffffffffff1673ffffffffffffffffffffffffffffffffffffffff1681526020019060010190808311610322575b5050505050905090565b6000809054906101000a900473ffffffffffffffffffffffffffffffffffffffff1681565b6060600160008373ffffffffffffffffffffffffffffffffffffffff1673ffffffffffffffffffffffffffffffffffffffff16815260200190815260200160002080548060200260200160405190810160405280929190818152602001828054801561045c57602002820191906000526020600020905b8160009054906101000a900473ffffffffffffffffffffffffffffffffffffffff1673ffffffffffffffffffffffffffffffffffffffff1681526020019060010190808311610412575b50505050509050919050565b60008060008773ffffffffffffffffffffffffffffffffffffffff16141515156104fa576040517f08c379a000000000000000000000000000000000000000000000000000000000815260040180806020018281038252601b8152602001807f436f756e74657270617274792063616e6e6f74206265206e756c6c000000000081525060200191505060405180910390fd5b868685878633346105096107bd565b808873ffffffffffffffffffffffffffffffffffffffff1673ffffffffffffffffffffffffffffffffffffffff168152602001876000191660001916815260200186600019166000191681526020018581526020018481526020018373ffffffffffffffffffffffffffffffffffffffff1673ffffffffffffffffffffffffffffffffffffffff168152602001828152602001975050505050505050604051809103906000f0801580156105c1573d6000803e3d6000fd5b50905060028190806001815401808255809150509060018203906000526020600020016000909192909190916101000a81548173ffffffffffffffffffffffffffffffffffffffff021916908373ffffffffffffffffffffffffffffffffffffffff16021790555050600160003373ffffffffffffffffffffffffffffffffffffffff1673ffffffffffffffffffffffffffffffffffffffff1681526020019081526020016000208190806001815401808255809150509060018203906000526020600020016000909192909190916101000a81548173ffffffffffffffffffffffffffffffffffffffff021916908373ffffffffffffffffffffffffffffffffffffffff160217905550508073ffffffffffffffffffffffffffffffffffffffff166108fc349081150290604051600060405180830381858888f19350505050158015610713573d6000803e3d6000fd5b507fa85cd118b65ef5cbedb78b4bc1fa5c20c073972e343b4158fed371d4f2e7913c8160405180806020018373ffffffffffffffffffffffffffffffffffffffff1673ffffffffffffffffffffffffffffffffffffffff1681526020018281038252601e8152602001807f436f6e74726163742063726561746564207375636365737366756c6c792e00008152506020019250505060405180910390a18091505095945050505050565b6040516113da806107ce833901905600608060405260405160e0806113da83398101806040528101908080519060200190929190805190602001909291908051906020019092919080519060200190929190805190602001909291908051906020019092919080519060200190929190505050336000806101000a81548173ffffffffffffffffffffffffffffffffffffffff021916908373ffffffffffffffffffffffffffffffffffffffff16021790555060008773ffffffffffffffffffffffffffffffffffffffff16141515156100c857600080fd5b86600260006101000a81548173ffffffffffffffffffffffffffffffffffffffff021916908373ffffffffffffffffffffffffffffffffffffffff16021790555081600960006101000a81548173ffffffffffffffffffffffffffffffffffffffff021916908373ffffffffffffffffffffffffffffffffffffffff1602179055508360078190555082600881905550856003816000191690555084600481600019169055506000600b60006101000a81548160ff0219169083600281111561018d57fe5b0217905550806001819055505050505050505061122b806101af6000396000f300608060405260043610610107576000357c0100000000000000000000000000000000000000000000000000000000900463ffffffff16806306fdde03146101095780630a5d2fc81461013c57806311da60b4146101935780631865c57d146101b55780633c3ce17d146101ee5780634173fb9d1461021057806341c0e1b51461025357806355f150f11461026a578063715018a61461029d578063830361b6146102b457806388ac429e146102df5780638da5cb5b1461030a578063a4da04e414610361578063c84d70871461038c578063d8a5cc03146103b7578063dbc837c5146104b5578063eec8cb921461050c578063f2fde38b14610537578063f9c319141461057a575b005b34801561011557600080fd5b5061011e6105b3565b60405180826000191660001916815260200191505060405180910390f35b34801561014857600080fd5b506101516105b9565b604051808273ffffffffffffffffffffffffffffffffffffffff1673ffffffffffffffffffffffffffffffffffffffff16815260200191505060405180910390f35b61019b6105df565b604051808215151515815260200191505060405180910390f35b3480156101c157600080fd5b506101ca6109ff565b604051808260028111156101da57fe5b60ff16815260200191505060405180910390f35b6101f6610a16565b604051808215151515815260200191505060405180910390f35b34801561021c57600080fd5b50610251600480360381019080803573ffffffffffffffffffffffffffffffffffffffff169060200190929190505050610ced565b005b34801561025f57600080fd5b50610268610dbf565b005b34801561027657600080fd5b5061027f610e54565b60405180826000191660001916815260200191505060405180910390f35b3480156102a957600080fd5b506102b2610e5a565b005b3480156102c057600080fd5b506102c9610f5c565b6040518082815260200191505060405180910390f35b3480156102eb57600080fd5b506102f4610f62565b6040518082815260200191505060405180910390f35b34801561031657600080fd5b5061031f610f68565b604051808273ffffffffffffffffffffffffffffffffffffffff1673ffffffffffffffffffffffffffffffffffffffff16815260200191505060405180910390f35b34801561036d57600080fd5b50610376610f8e565b6040518082815260200191505060405180910390f35b34801561039857600080fd5b506103a1610f94565b6040518082815260200191505060405180910390f35b3480156103c357600080fd5b506103cc610f9a565b604051808b600019166000191681526020018a600019166000191681526020018981526020018881526020018781526020018681526020018573ffffffffffffffffffffffffffffffffffffffff1673ffffffffffffffffffffffffffffffffffffffff1681526020018473ffffffffffffffffffffffffffffffffffffffff1673ffffffffffffffffffffffffffffffffffffffff1681526020018381526020018273ffffffffffffffffffffffffffffffffffffffff1673ffffffffffffffffffffffffffffffffffffffff1681526020019a505050505050505050505060405180910390f35b3480156104c157600080fd5b506104ca61105f565b604051808273ffffffffffffffffffffffffffffffffffffffff1673ffffffffffffffffffffffffffffffffffffffff16815260200191505060405180910390f35b34801561051857600080fd5b50610521611085565b6040518082815260200191505060405180910390f35b34801561054357600080fd5b50610578600480360381019080803573ffffffffffffffffffffffffffffffffffffffff16906020019092919050505061108b565b005b34801561058657600080fd5b5061058f6110f2565b6040518082600281111561059f57fe5b60ff16815260200191505060405180910390f35b60035481565b600260009054906101000a900473ffffffffffffffffffffffffffffffffffffffff1681565b6000806000809054906101000a900473ffffffffffffffffffffffffffffffffffffffff1673ffffffffffffffffffffffffffffffffffffffff163373ffffffffffffffffffffffffffffffffffffffff1614151561063d57600080fd5b60028081111561064957fe5b600b60009054906101000a900460ff16600281111561066457fe5b14151515610700576040517f08c379a00000000000000000000000000000000000000000000000000000000081526004018080602001828103825260258152602001807f5472616e73616374696f6e2068617320616c7265616479206265656e2073657481526020017f746c65642e00000000000000000000000000000000000000000000000000000081525060400191505060405180910390fd5b600960009054906101000a900473ffffffffffffffffffffffffffffffffffffffff1673ffffffffffffffffffffffffffffffffffffffff163373ffffffffffffffffffffffffffffffffffffffff161415156107eb576040517f08c379a000000000000000000000000000000000000000000000000000000000815260040180806020018281038252602e8152602001807f5472616e736163746f6e2063616e206f6e6c7920626520736574746c6564206281526020017f7920636c61696d206f776e65722e00000000000000000000000000000000000081525060400191505060405180910390fd5b600260009054906101000a900473ffffffffffffffffffffffffffffffffffffffff1673ffffffffffffffffffffffffffffffffffffffff166108fc6001549081150290604051600060405180830381858888f19350505050158015610855573d6000803e3d6000fd5b506001600281111561086357fe5b600b60009054906101000a900460ff16600281111561087e57fe5b141561096a5734600654019050600560009054906101000a900473ffffffffffffffffffffffffffffffffffffffff1673ffffffffffffffffffffffffffffffffffffffff166108fc829081150290604051600060405180830381858888f193505050501580156108f3573d6000803e3d6000fd5b507f77980fe590ec3aaa964f83e59bc67228e62b66441607d8ac9eb58645d0a2cc6a600160405180806020018381526020018281038252601b8152602001807f496e737572616e6365207072656d69756d2077617320706169642e00000000008152506020019250505060405180910390a161096b565b5b6002600b60006101000a81548160ff0219169083600281111561098a57fe5b02179055507f6a35ff865d7fbe3becf31aef02fd29d13459668f14a174f8f57a7e02be6fa5a96040518080602001828103825260078152602001807f536574746c65640000000000000000000000000000000000000000000000000081525060200191505060405180910390a1600191505090565b6000600b60009054906101000a900460ff16905090565b600060016002811115610a2557fe5b600b60009054906101000a900460ff166002811115610a4057fe5b14151515610ab6576040517f08c379a000000000000000000000000000000000000000000000000000000000815260040180806020018281038252601e8152602001807f5472616e73616374696f6e20697320616c726561647920696e7375726564000081525060200191505060405180910390fd5b600280811115610ac257fe5b600b60009054906101000a900460ff166002811115610add57fe5b14151515610b79576040517f08c379a00000000000000000000000000000000000000000000000000000000081526004018080602001828103825260258152602001807f5472616e73616374696f6e2068617320616c7265616479206265656e2073657481526020017f746c65642e00000000000000000000000000000000000000000000000000000081525060400191505060405180910390fd5b600a670de0b6b3a764000060075402811515610b9157fe5b043411151515610c09576040517f08c379a00000000000000000000000000000000000000000000000000000000081526004018080602001828103825260208152602001807f56616c75652063616e6e6f7420657863656564206d617820636f76657261676581525060200191505060405180910390fd5b346006600082825401925050819055506001600b60006101000a81548160ff02191690836002811115610c3857fe5b021790555033600560006101000a81548173ffffffffffffffffffffffffffffffffffffffff021916908373ffffffffffffffffffffffffffffffffffffffff1602179055507f6a35ff865d7fbe3becf31aef02fd29d13459668f14a174f8f57a7e02be6fa5a96040518080602001828103825260078152602001807f496e73757265640000000000000000000000000000000000000000000000000081525060200191505060405180910390a16001905090565b600560009054906101000a900473ffffffffffffffffffffffffffffffffffffffff1673ffffffffffffffffffffffffffffffffffffffff163373ffffffffffffffffffffffffffffffffffffffff161415610dbc57600073ffffffffffffffffffffffffffffffffffffffff168173ffffffffffffffffffffffffffffffffffffffff16141515610dbb5780600560006101000a81548173ffffffffffffffffffffffffffffffffffffffff021916908373ffffffffffffffffffffffffffffffffffffffff1602179055505b5b50565b6000809054906101000a900473ffffffffffffffffffffffffffffffffffffffff1673ffffffffffffffffffffffffffffffffffffffff163373ffffffffffffffffffffffffffffffffffffffff16141515610e1a57600080fd5b6000809054906101000a900473ffffffffffffffffffffffffffffffffffffffff1673ffffffffffffffffffffffffffffffffffffffff16ff5b60045481565b6000809054906101000a900473ffffffffffffffffffffffffffffffffffffffff1673ffffffffffffffffffffffffffffffffffffffff163373ffffffffffffffffffffffffffffffffffffffff16141515610eb557600080fd5b6000809054906101000a900473ffffffffffffffffffffffffffffffffffffffff1673ffffffffffffffffffffffffffffffffffffffff167ff8df31144d9c2f0f6b59d69b8b98abd5459d07f2742c4df920b25aae33c6482060405160405180910390a260008060006101000a81548173ffffffffffffffffffffffffffffffffffffffff021916908373ffffffffffffffffffffffffffffffffffffffff160217905550565b60085481565b600a5481565b600960009054906101000a900473ffffffffffffffffffffffffffffffffffffffff1681565b60015481565b60065481565b600080600080600080600080600080600354600454600154600654600754600854600260009054906101000a900473ffffffffffffffffffffffffffffffffffffffff16600560009054906101000a900473ffffffffffffffffffffffffffffffffffffffff16600b60009054906101000a900460ff16600281111561101c57fe5b600960009054906101000a900473ffffffffffffffffffffffffffffffffffffffff16995099509950995099509950995099509950995090919293949596979899565b600560009054906101000a900473ffffffffffffffffffffffffffffffffffffffff1681565b60075481565b6000809054906101000a900473ffffffffffffffffffffffffffffffffffffffff1673ffffffffffffffffffffffffffffffffffffffff163373ffffffffffffffffffffffffffffffffffffffff161415156110e657600080fd5b6110ef81611105565b50565b600b60009054906101000a900460ff1681565b600073ffffffffffffffffffffffffffffffffffffffff168173ffffffffffffffffffffffffffffffffffffffff161415151561114157600080fd5b8073ffffffffffffffffffffffffffffffffffffffff166000809054906101000a900473ffffffffffffffffffffffffffffffffffffffff1673ffffffffffffffffffffffffffffffffffffffff167f8be0079c531659141344cd1fd0a4f28419497f9722a3daafe3b4186f6b6457e060405160405180910390a3806000806101000a81548173ffffffffffffffffffffffffffffffffffffffff021916908373ffffffffffffffffffffffffffffffffffffffff160217905550505600a165627a7a72305820ea8f78fd44495a5bd96fd2a76609fb11c1aee245d310b2990c25aa782d9752b30029a165627a7a72305820af7bd5b81190547ccbd5a70d3c47f44eff5935be63f74860610a3fecd14b9e5f0029",
  "source": "pragma solidity ^0.4.2;\n\nimport \"./Transaction.sol\";\n\ncontract InsurableTransactionFactory {\n    address public owner;\n    mapping(address => address[]) contractsOwned;\n    address[] contracts;\n\n\n    constructor()  public {\n        owner = msg.sender;\n    \n    }\n\n    event NewContractCreated (string msg, address contractAddress);\n\n\n    /// @dev A lookup method for finding all contracts currently owned by parameter `address`\n    /// @param _address address to lookup\n    /// @return contracts an array of contracts owned by the user with parameter `address` in this factory\n    function getContractsOwnedBy(address _address) public view returns (address[] _contracts) {\n        return contractsOwned[_address];\n    }\n\n    /// @dev counts number of contracts currently in the factory\n    /// @return _count: count of contracts currently in the factory\n    function count() public view returns (uint _count) { \n        return contractsOwned[msg.sender].length;\n    }\n\n    /// @dev Factory method to create the insurable Transaction contracts\n    /// @param counterParty the counter party of the Transaction contract\n    /// @param name the name of Transaction contract\n    /// @param max the maximum desired insurance coverage (%) for the Transaction contract\n    /// @param desc the description for the Transaction contract\n    /// @param premium the agreed upon premium (%) to pay out to insurers of the Transaction contract\n    /// @return newContractAddress: the new Transaction address\n    function create(\n        address counterParty, \n        bytes32 name,\n        uint max,\n        bytes32 desc,\n        uint premium)external payable returns (Transaction newContractAddress) {\n    \n        require(counterParty!=0x0, \"Counterparty cannot be null\");\n        \n        Transaction newContract = new Transaction(counterParty,name,desc,max,premium,msg.sender,uint(msg.value));\n        contracts.push(newContract);\n        contractsOwned[msg.sender].push(newContract);\n        address(newContract).transfer(msg.value);\n        emit NewContractCreated(\"Contract created successfully.\", newContract);\n        return newContract;\n    }\n\n    /// @dev getter for all Transaction contracts\n    /// @return trxns An array of Transaction structs\n    function getTransactions() public view returns (address[] trxns) {\n        return contracts;\n    }\n\n\n    \n\n\n}",
  "sourcePath": "/Users/robert/dev/projects/eotim/contracts/InsurableTransactionFactory.sol",
  "compiler": {
    "name": "solc",
    "version": "0.4.24+commit.e67f0147.Emscripten.clang"
  },
  "schemaVersion": "2.0.1",
  "updatedAt": "2018-08-19T02:42:03.979Z"
}