{
  "contractName": "InsurableTransactionFactory",
  "abi": [
    {
      "constant": true,
      "inputs": [],
      "name": "owner",
      "outputs": [
        {
          "name": "",
          "type": "address"
        }
      ],
      "payable": false,
      "stateMutability": "view",
      "type": "function"
    },
    {
      "inputs": [],
      "payable": false,
      "stateMutability": "nonpayable",
      "type": "constructor"
    },
    {
      "anonymous": false,
      "inputs": [
        {
          "indexed": false,
          "name": "contractAddress",
          "type": "address"
        },
        {
          "indexed": false,
          "name": "contractCreator",
          "type": "address"
        }
      ],
      "name": "NewContractAddress",
      "type": "event"
    },
    {
      "constant": true,
      "inputs": [],
      "name": "count",
      "outputs": [
        {
          "name": "theCount",
          "type": "uint256"
        }
      ],
      "payable": false,
      "stateMutability": "view",
      "type": "function"
    },
    {
      "constant": false,
      "inputs": [
        {
          "name": "counterParty",
          "type": "address"
        },
        {
          "name": "name",
          "type": "bytes32"
        },
        {
          "name": "max",
          "type": "uint256"
        },
        {
          "name": "desc",
          "type": "bytes32"
        },
        {
          "name": "premium",
          "type": "uint256"
        }
      ],
      "name": "create",
      "outputs": [
        {
          "name": "newContractAddress",
          "type": "address"
        }
      ],
      "payable": true,
      "stateMutability": "payable",
      "type": "function"
    },
    {
      "constant": true,
      "inputs": [],
      "name": "getTransactions",
      "outputs": [
        {
          "name": "trxns",
          "type": "address[]"
        }
      ],
      "payable": false,
      "stateMutability": "view",
      "type": "function"
    },
    {
      "constant": true,
      "inputs": [],
      "name": "getAllOwnedTransactions",
      "outputs": [
        {
          "name": "transactions",
          "type": "address[]"
        }
      ],
      "payable": false,
      "stateMutability": "view",
      "type": "function"
    }
  ],
  "bytecode": "0x608060405234801561001057600080fd5b50336000806101000a81548173ffffffffffffffffffffffffffffffffffffffff021916908373ffffffffffffffffffffffffffffffffffffffff16021790555061148f806100606000396000f30060806040526004361061006d576000357c0100000000000000000000000000000000000000000000000000000000900463ffffffff16806306661abd1461007257806383920e901461009d5780638da5cb5b14610109578063aaadb84714610160578063ecc45862146101cc575b600080fd5b34801561007e57600080fd5b50610087610272565b6040518082815260200191505060405180910390f35b3480156100a957600080fd5b506100b26102bc565b6040518080602001828103825283818151815260200191508051906020019060200280838360005b838110156100f55780820151818401526020810190506100da565b505050509050019250505060405180910390f35b34801561011557600080fd5b5061011e61034a565b604051808273ffffffffffffffffffffffffffffffffffffffff1673ffffffffffffffffffffffffffffffffffffffff16815260200191505060405180910390f35b34801561016c57600080fd5b5061017561036f565b6040518080602001828103825283818151815260200191508051906020019060200280838360005b838110156101b857808201518184015260208101905061019d565b505050509050019250505060405180910390f35b610230600480360381019080803573ffffffffffffffffffffffffffffffffffffffff1690602001909291908035600019169060200190929190803590602001909291908035600019169060200190929190803590602001909291905050506104b1565b604051808273ffffffffffffffffffffffffffffffffffffffff1673ffffffffffffffffffffffffffffffffffffffff16815260200191505060405180910390f35b6000600160003373ffffffffffffffffffffffffffffffffffffffff1673ffffffffffffffffffffffffffffffffffffffff16815260200190815260200160002080549050905090565b6060600280548060200260200160405190810160405280929190818152602001828054801561034057602002820191906000526020600020905b8160009054906101000a900473ffffffffffffffffffffffffffffffffffffffff1673ffffffffffffffffffffffffffffffffffffffff16815260200190600101908083116102f6575b5050505050905090565b6000809054906101000a900473ffffffffffffffffffffffffffffffffffffffff1681565b6060600060606000600160003373ffffffffffffffffffffffffffffffffffffffff1673ffffffffffffffffffffffffffffffffffffffff168152602001908152602001600020925082805490506040519080825280602002602001820160405280156103eb5781602001602082028038833980820191505090505b509150600090505b82805490508110156104a8576002838281548110151561040f57fe5b906000526020600020015481548110151561042657fe5b9060005260206000200160009054906101000a900473ffffffffffffffffffffffffffffffffffffffff16828281518110151561045f57fe5b9060200190602002019073ffffffffffffffffffffffffffffffffffffffff16908173ffffffffffffffffffffffffffffffffffffffff168152505080806001019150506103f3565b81935050505090565b6000806000808873ffffffffffffffffffffffffffffffffffffffff1614151515610544576040517f08c379a000000000000000000000000000000000000000000000000000000000815260040180806020018281038252601b8152602001807f436f756e74657270617274792063616e6e6f74206265206e756c6c000000000081525060200191505060405180910390fd5b878786888733610552610735565b808773ffffffffffffffffffffffffffffffffffffffff1673ffffffffffffffffffffffffffffffffffffffff168152602001866000191660001916815260200185600019166000191681526020018481526020018381526020018273ffffffffffffffffffffffffffffffffffffffff1673ffffffffffffffffffffffffffffffffffffffff1681526020019650505050505050604051809103906000f080158015610603573d6000803e3d6000fd5b50915060028290806001815401808255809150509060018203906000526020600020016000909192909190916101000a81548173ffffffffffffffffffffffffffffffffffffffff021916908373ffffffffffffffffffffffffffffffffffffffff160217905550506001600280549050039050600160003373ffffffffffffffffffffffffffffffffffffffff1673ffffffffffffffffffffffffffffffffffffffff1681526020019081526020016000208190806001815401808255809150509060018203906000526020600020016000909192909190915055508173ffffffffffffffffffffffffffffffffffffffff166108fc349081150290604051600060405180830381858888f19350505050158015610726573d6000803e3d6000fd5b50819250505095945050505050565b604051610d1e80610746833901905600608060405234801561001057600080fd5b5060405160c080610d1e833981018060405281019080805190602001909291908051906020019092919080519060200190929190805190602001909291908051906020019092919080519060200190929190505050336000806101000a81548173ffffffffffffffffffffffffffffffffffffffff021916908373ffffffffffffffffffffffffffffffffffffffff16021790555060008673ffffffffffffffffffffffffffffffffffffffff16141515156100cb57600080fd5b85600260006101000a81548173ffffffffffffffffffffffffffffffffffffffff021916908373ffffffffffffffffffffffffffffffffffffffff160217905550806000806101000a81548173ffffffffffffffffffffffffffffffffffffffff021916908373ffffffffffffffffffffffffffffffffffffffff1602179055508260078190555081600881905550846003816000191690555083600481600019169055506001600960006101000a81548160ff0219169083600181111561018f57fe5b021790555034600181905550505050505050610b6e806101b06000396000f3006080604052600436106100e6576000357c0100000000000000000000000000000000000000000000000000000000900463ffffffff16806306fdde03146100e857806311da60b41461011b5780632c453bdf146101255780633c3ce17d1461017c5780633fa4f2451461019e57806341c0e1b5146101c957806355f150f1146101e05780636296391314610213578063715018a61461023e5780638da5cb5b14610255578063968e893e146102ac578063d8a5cc03146102d7578063dbc837c5146103d5578063e0a73a931461042c578063f2fde38b14610457578063f9c319141461049a575b005b3480156100f457600080fd5b506100fd6104d3565b60405180826000191660001916815260200191505060405180910390f35b6101236104d9565b005b34801561013157600080fd5b5061013a6105c8565b604051808273ffffffffffffffffffffffffffffffffffffffff1673ffffffffffffffffffffffffffffffffffffffff16815260200191505060405180910390f35b6101846105ee565b604051808215151515815260200191505060405180910390f35b3480156101aa57600080fd5b506101b3610799565b6040518082815260200191505060405180910390f35b3480156101d557600080fd5b506101de61079f565b005b3480156101ec57600080fd5b506101f5610834565b60405180826000191660001916815260200191505060405180910390f35b34801561021f57600080fd5b5061022861083a565b6040518082815260200191505060405180910390f35b34801561024a57600080fd5b50610253610840565b005b34801561026157600080fd5b5061026a610942565b604051808273ffffffffffffffffffffffffffffffffffffffff1673ffffffffffffffffffffffffffffffffffffffff16815260200191505060405180910390f35b3480156102b857600080fd5b506102c1610967565b6040518082815260200191505060405180910390f35b3480156102e357600080fd5b506102ec61096d565b604051808b600019166000191681526020018a600019166000191681526020018981526020018881526020018781526020018681526020018573ffffffffffffffffffffffffffffffffffffffff1673ffffffffffffffffffffffffffffffffffffffff1681526020018473ffffffffffffffffffffffffffffffffffffffff1673ffffffffffffffffffffffffffffffffffffffff1681526020018381526020018273ffffffffffffffffffffffffffffffffffffffff1673ffffffffffffffffffffffffffffffffffffffff1681526020019a505050505050505050505060405180910390f35b3480156103e157600080fd5b506103ea610a31565b604051808273ffffffffffffffffffffffffffffffffffffffff1673ffffffffffffffffffffffffffffffffffffffff16815260200191505060405180910390f35b34801561043857600080fd5b50610441610a57565b6040518082815260200191505060405180910390f35b34801561046357600080fd5b50610498600480360381019080803573ffffffffffffffffffffffffffffffffffffffff169060200190929190505050610a5d565b005b3480156104a657600080fd5b506104af610b2f565b604051808260018111156104bf57fe5b60ff16815260200191505060405180910390f35b60035481565b3073ffffffffffffffffffffffffffffffffffffffff1673ffffffffffffffffffffffffffffffffffffffff166108fc6001549081150290604051600060405180830381858888f19350505050158015610537573d6000803e3d6000fd5b506000600181111561054557fe5b600960009054906101000a900460ff16600181111561056057fe5b14156105c6573073ffffffffffffffffffffffffffffffffffffffff1673ffffffffffffffffffffffffffffffffffffffff166108fc6006549081150290604051600060405180830381858888f193505050501580156105c4573d6000803e3d6000fd5b505b565b600260009054906101000a900473ffffffffffffffffffffffffffffffffffffffff1681565b60008060018111156105fc57fe5b600960009054906101000a900460ff16600181111561061757fe5b1415151561068d576040517f08c379a000000000000000000000000000000000000000000000000000000000815260040180806020018281038252601e8152602001807f5472616e73616374696f6e20697320616c726561647920696e7375726564000081525060200191505060405180910390fd5b600a670de0b6b3a7640000600754028115156106a557fe5b04341115151561071d576040517f08c379a00000000000000000000000000000000000000000000000000000000081526004018080602001828103825260208152602001807f56616c75652063616e6e6f7420657863656564206d617820636f76657261676581525060200191505060405180910390fd5b346006600082825401925050819055506000600960006101000a81548160ff0219169083600181111561074c57fe5b021790555033600560006101000a81548173ffffffffffffffffffffffffffffffffffffffff021916908373ffffffffffffffffffffffffffffffffffffffff1602179055506001905090565b60015481565b6000809054906101000a900473ffffffffffffffffffffffffffffffffffffffff1673ffffffffffffffffffffffffffffffffffffffff163373ffffffffffffffffffffffffffffffffffffffff161415156107fa57600080fd5b6000809054906101000a900473ffffffffffffffffffffffffffffffffffffffff1673ffffffffffffffffffffffffffffffffffffffff16ff5b60045481565b60065481565b6000809054906101000a900473ffffffffffffffffffffffffffffffffffffffff1673ffffffffffffffffffffffffffffffffffffffff163373ffffffffffffffffffffffffffffffffffffffff1614151561089b57600080fd5b6000809054906101000a900473ffffffffffffffffffffffffffffffffffffffff1673ffffffffffffffffffffffffffffffffffffffff167ff8df31144d9c2f0f6b59d69b8b98abd5459d07f2742c4df920b25aae33c6482060405160405180910390a260008060006101000a81548173ffffffffffffffffffffffffffffffffffffffff021916908373ffffffffffffffffffffffffffffffffffffffff160217905550565b6000809054906101000a900473ffffffffffffffffffffffffffffffffffffffff1681565b60075481565b600080600080600080600080600080600354600454600154600654600754600854600260009054906101000a900473ffffffffffffffffffffffffffffffffffffffff16600560009054906101000a900473ffffffffffffffffffffffffffffffffffffffff16600960009054906101000a900460ff1660018111156109ef57fe5b6000809054906101000a900473ffffffffffffffffffffffffffffffffffffffff16995099509950995099509950995099509950995090919293949596979899565b600560009054906101000a900473ffffffffffffffffffffffffffffffffffffffff1681565b60085481565b600560009054906101000a900473ffffffffffffffffffffffffffffffffffffffff1673ffffffffffffffffffffffffffffffffffffffff163373ffffffffffffffffffffffffffffffffffffffff161415610b2c57600073ffffffffffffffffffffffffffffffffffffffff168173ffffffffffffffffffffffffffffffffffffffff16141515610b2b5780600560006101000a81548173ffffffffffffffffffffffffffffffffffffffff021916908373ffffffffffffffffffffffffffffffffffffffff1602179055505b5b50565b600960009054906101000a900460ff16815600a165627a7a7230582057f041cc87bb842b03909f2d9c9f187aa8be4375bd553269075762cb2ebf50ab0029a165627a7a72305820309f0b590d32eece9f451a4677d111e955eec42c062ae6b4b74f5e93d97e0db60029",
  "source": "pragma solidity ^0.4.2;\n\nimport \"./Transaction.sol\";\n\ncontract InsurableTransactionFactory {\n    address public owner;\n    mapping(address => uint[]) contractsOwned;\n    Transaction[] contracts;\n\n\n    constructor()  public {\n        owner = msg.sender;\n    }\n    \n    \n    event NewContractAddress (address contractAddress, address contractCreator);\n\n\n    function count() public constant returns (uint theCount) { \n        return contractsOwned[msg.sender].length;\n    }\n\n    function create(\n        address counterParty, \n        bytes32 name,\n        uint max,\n        bytes32 desc,\n        uint premium) payable external returns (Transaction newContractAddress) {\n    \n        require(counterParty!=0x0, \"Counterparty cannot be null\");\n\n        Transaction newContract = new Transaction(counterParty,name,desc,max,premium,msg.sender);\n\n        contracts.push(newContract);\n        uint id = contracts.length - 1; \n        contractsOwned[msg.sender].push(id);\n        newContract.transfer(msg.value);\n\n        return newContract;\n    }\n\n    function getTransactions() public view returns (Transaction[] trxns) {\n        return contracts;\n    }\n\n    function getAllOwnedTransactions() public view returns (Transaction[] transactions) \n    {\n        uint[] ids = contractsOwned[msg.sender];\n        \n        Transaction[] memory trx = new Transaction[](ids.length);\n        \n        for (uint counter = 0 ; counter < ids.length ; counter++) {\n            trx[counter] = contracts[ids[counter]];\n        }\n\n        return trx;\n    }\n\n\n}",
  "sourcePath": "/Users/robert/dev/projects/eotim/contracts/InsurableTransactionFactory.sol",
  "compiler": {
    "name": "solc",
    "version": "0.4.24+commit.e67f0147.Emscripten.clang"
  },
  "schemaVersion": "2.0.1",
  "updatedAt": "2018-08-12T02:30:47.659Z"
}