{
  "contractName": "InsurableTransactionFactory",
  "abi": [
    {
      "constant": true,
      "inputs": [],
      "name": "owner",
      "outputs": [
        {
          "name": "",
          "type": "address"
        }
      ],
      "payable": false,
      "stateMutability": "view",
      "type": "function"
    },
    {
      "inputs": [],
      "payable": false,
      "stateMutability": "nonpayable",
      "type": "constructor"
    },
    {
      "anonymous": false,
      "inputs": [
        {
          "indexed": false,
          "name": "contractAddress",
          "type": "address"
        },
        {
          "indexed": false,
          "name": "contractCreator",
          "type": "address"
        }
      ],
      "name": "NewContractAddress",
      "type": "event"
    },
    {
      "constant": false,
      "inputs": [
        {
          "name": "_address",
          "type": "address"
        }
      ],
      "name": "getContractIdsOwnedBy",
      "outputs": [
        {
          "name": "_ids",
          "type": "address[]"
        }
      ],
      "payable": false,
      "stateMutability": "nonpayable",
      "type": "function"
    },
    {
      "constant": true,
      "inputs": [],
      "name": "count",
      "outputs": [
        {
          "name": "theCount",
          "type": "uint256"
        }
      ],
      "payable": false,
      "stateMutability": "view",
      "type": "function"
    },
    {
      "constant": false,
      "inputs": [
        {
          "name": "counterParty",
          "type": "address"
        },
        {
          "name": "name",
          "type": "bytes32"
        },
        {
          "name": "max",
          "type": "uint256"
        },
        {
          "name": "desc",
          "type": "bytes32"
        },
        {
          "name": "premium",
          "type": "uint256"
        }
      ],
      "name": "create",
      "outputs": [
        {
          "name": "newContractAddress",
          "type": "address"
        }
      ],
      "payable": true,
      "stateMutability": "payable",
      "type": "function"
    },
    {
      "constant": true,
      "inputs": [],
      "name": "getTransactions",
      "outputs": [
        {
          "name": "trxns",
          "type": "address[]"
        }
      ],
      "payable": false,
      "stateMutability": "view",
      "type": "function"
    }
  ],
  "bytecode": "0x608060405234801561001057600080fd5b50336000806101000a81548173ffffffffffffffffffffffffffffffffffffffff021916908373ffffffffffffffffffffffffffffffffffffffff16021790555061138f806100606000396000f30060806040526004361061006d576000357c0100000000000000000000000000000000000000000000000000000000900463ffffffff16806306661abd1461007257806383920e901461009d5780638da5cb5b14610109578063d16e7d5914610160578063ecc45862146101f8575b600080fd5b34801561007e57600080fd5b5061008761029e565b6040518082815260200191505060405180910390f35b3480156100a957600080fd5b506100b26102e8565b6040518080602001828103825283818151815260200191508051906020019060200280838360005b838110156100f55780820151818401526020810190506100da565b505050509050019250505060405180910390f35b34801561011557600080fd5b5061011e610376565b604051808273ffffffffffffffffffffffffffffffffffffffff1673ffffffffffffffffffffffffffffffffffffffff16815260200191505060405180910390f35b34801561016c57600080fd5b506101a1600480360381019080803573ffffffffffffffffffffffffffffffffffffffff16906020019092919050505061039b565b6040518080602001828103825283818151815260200191508051906020019060200280838360005b838110156101e45780820151818401526020810190506101c9565b505050509050019250505060405180910390f35b61025c600480360381019080803573ffffffffffffffffffffffffffffffffffffffff169060200190929190803560001916906020019092919080359060200190929190803560001916906020019092919080359060200190929190505050610468565b604051808273ffffffffffffffffffffffffffffffffffffffff1673ffffffffffffffffffffffffffffffffffffffff16815260200191505060405180910390f35b6000600160003373ffffffffffffffffffffffffffffffffffffffff1673ffffffffffffffffffffffffffffffffffffffff16815260200190815260200160002080549050905090565b6060600280548060200260200160405190810160405280929190818152602001828054801561036c57602002820191906000526020600020905b8160009054906101000a900473ffffffffffffffffffffffffffffffffffffffff1673ffffffffffffffffffffffffffffffffffffffff1681526020019060010190808311610322575b5050505050905090565b6000809054906101000a900473ffffffffffffffffffffffffffffffffffffffff1681565b6060600160008373ffffffffffffffffffffffffffffffffffffffff1673ffffffffffffffffffffffffffffffffffffffff16815260200190815260200160002080548060200260200160405190810160405280929190818152602001828054801561045c57602002820191906000526020600020905b8160009054906101000a900473ffffffffffffffffffffffffffffffffffffffff1673ffffffffffffffffffffffffffffffffffffffff1681526020019060010190808311610412575b50505050509050919050565b60008060008773ffffffffffffffffffffffffffffffffffffffff16141515156104fa576040517f08c379a000000000000000000000000000000000000000000000000000000000815260040180806020018281038252601b8152602001807f436f756e74657270617274792063616e6e6f74206265206e756c6c000000000081525060200191505060405180910390fd5b86868587863334610509610721565b808873ffffffffffffffffffffffffffffffffffffffff1673ffffffffffffffffffffffffffffffffffffffff168152602001876000191660001916815260200186600019166000191681526020018581526020018481526020018373ffffffffffffffffffffffffffffffffffffffff1673ffffffffffffffffffffffffffffffffffffffff168152602001828152602001975050505050505050604051809103906000f0801580156105c1573d6000803e3d6000fd5b50905060028190806001815401808255809150509060018203906000526020600020016000909192909190916101000a81548173ffffffffffffffffffffffffffffffffffffffff021916908373ffffffffffffffffffffffffffffffffffffffff16021790555050600160003373ffffffffffffffffffffffffffffffffffffffff1673ffffffffffffffffffffffffffffffffffffffff1681526020019081526020016000208190806001815401808255809150509060018203906000526020600020016000909192909190916101000a81548173ffffffffffffffffffffffffffffffffffffffff021916908373ffffffffffffffffffffffffffffffffffffffff160217905550508073ffffffffffffffffffffffffffffffffffffffff166108fc349081150290604051600060405180830381858888f19350505050158015610713573d6000803e3d6000fd5b508091505095945050505050565b604051610c3280610732833901905600608060405260405160e080610c3283398101806040528101908080519060200190929190805190602001909291908051906020019092919080519060200190929190805190602001909291908051906020019092919080519060200190929190505050336000806101000a81548173ffffffffffffffffffffffffffffffffffffffff021916908373ffffffffffffffffffffffffffffffffffffffff16021790555060008773ffffffffffffffffffffffffffffffffffffffff16141515156100c857600080fd5b86600260006101000a81548173ffffffffffffffffffffffffffffffffffffffff021916908373ffffffffffffffffffffffffffffffffffffffff16021790555081600960006101000a81548173ffffffffffffffffffffffffffffffffffffffff021916908373ffffffffffffffffffffffffffffffffffffffff1602179055508360078190555082600881905550856003816000191690555084600481600019169055506001600960146101000a81548160ff0219169083600181111561018d57fe5b02179055508060018190555050505050505050610a83806101af6000396000f3006080604052600436106100e6576000357c0100000000000000000000000000000000000000000000000000000000900463ffffffff16806306fdde03146100e857806311da60b41461011b5780632c453bdf146101255780633c3ce17d1461017c5780633fa4f2451461019e57806341c0e1b5146101c957806355f150f1146101e05780636296391314610213578063715018a61461023e5780638da5cb5b14610255578063968e893e146102ac578063d8a5cc03146102d7578063dbc837c5146103d5578063e0a73a931461042c578063f2fde38b14610457578063f9c319141461049a575b005b3480156100f457600080fd5b506100fd6104d3565b60405180826000191660001916815260200191505060405180910390f35b6101236104d9565b005b34801561013157600080fd5b5061013a6104db565b604051808273ffffffffffffffffffffffffffffffffffffffff1673ffffffffffffffffffffffffffffffffffffffff16815260200191505060405180910390f35b610184610501565b604051808215151515815260200191505060405180910390f35b3480156101aa57600080fd5b506101b36106ac565b6040518082815260200191505060405180910390f35b3480156101d557600080fd5b506101de6106b2565b005b3480156101ec57600080fd5b506101f5610747565b60405180826000191660001916815260200191505060405180910390f35b34801561021f57600080fd5b5061022861074d565b6040518082815260200191505060405180910390f35b34801561024a57600080fd5b50610253610753565b005b34801561026157600080fd5b5061026a610855565b604051808273ffffffffffffffffffffffffffffffffffffffff1673ffffffffffffffffffffffffffffffffffffffff16815260200191505060405180910390f35b3480156102b857600080fd5b506102c161087b565b6040518082815260200191505060405180910390f35b3480156102e357600080fd5b506102ec610881565b604051808b600019166000191681526020018a600019166000191681526020018981526020018881526020018781526020018681526020018573ffffffffffffffffffffffffffffffffffffffff1673ffffffffffffffffffffffffffffffffffffffff1681526020018473ffffffffffffffffffffffffffffffffffffffff1673ffffffffffffffffffffffffffffffffffffffff1681526020018381526020018273ffffffffffffffffffffffffffffffffffffffff1673ffffffffffffffffffffffffffffffffffffffff1681526020019a505050505050505050505060405180910390f35b3480156103e157600080fd5b506103ea610946565b604051808273ffffffffffffffffffffffffffffffffffffffff1673ffffffffffffffffffffffffffffffffffffffff16815260200191505060405180910390f35b34801561043857600080fd5b5061044161096c565b6040518082815260200191505060405180910390f35b34801561046357600080fd5b50610498600480360381019080803573ffffffffffffffffffffffffffffffffffffffff169060200190929190505050610972565b005b3480156104a657600080fd5b506104af610a44565b604051808260018111156104bf57fe5b60ff16815260200191505060405180910390f35b60035481565b565b600260009054906101000a900473ffffffffffffffffffffffffffffffffffffffff1681565b600080600181111561050f57fe5b600960149054906101000a900460ff16600181111561052a57fe5b141515156105a0576040517f08c379a000000000000000000000000000000000000000000000000000000000815260040180806020018281038252601e8152602001807f5472616e73616374696f6e20697320616c726561647920696e7375726564000081525060200191505060405180910390fd5b600a670de0b6b3a7640000600754028115156105b857fe5b043411151515610630576040517f08c379a00000000000000000000000000000000000000000000000000000000081526004018080602001828103825260208152602001807f56616c75652063616e6e6f7420657863656564206d617820636f76657261676581525060200191505060405180910390fd5b346006600082825401925050819055506000600960146101000a81548160ff0219169083600181111561065f57fe5b021790555033600560006101000a81548173ffffffffffffffffffffffffffffffffffffffff021916908373ffffffffffffffffffffffffffffffffffffffff1602179055506001905090565b60015481565b6000809054906101000a900473ffffffffffffffffffffffffffffffffffffffff1673ffffffffffffffffffffffffffffffffffffffff163373ffffffffffffffffffffffffffffffffffffffff1614151561070d57600080fd5b6000809054906101000a900473ffffffffffffffffffffffffffffffffffffffff1673ffffffffffffffffffffffffffffffffffffffff16ff5b60045481565b60065481565b6000809054906101000a900473ffffffffffffffffffffffffffffffffffffffff1673ffffffffffffffffffffffffffffffffffffffff163373ffffffffffffffffffffffffffffffffffffffff161415156107ae57600080fd5b6000809054906101000a900473ffffffffffffffffffffffffffffffffffffffff1673ffffffffffffffffffffffffffffffffffffffff167ff8df31144d9c2f0f6b59d69b8b98abd5459d07f2742c4df920b25aae33c6482060405160405180910390a260008060006101000a81548173ffffffffffffffffffffffffffffffffffffffff021916908373ffffffffffffffffffffffffffffffffffffffff160217905550565b600960009054906101000a900473ffffffffffffffffffffffffffffffffffffffff1681565b60075481565b600080600080600080600080600080600354600454600154600654600754600854600260009054906101000a900473ffffffffffffffffffffffffffffffffffffffff16600560009054906101000a900473ffffffffffffffffffffffffffffffffffffffff16600960149054906101000a900460ff16600181111561090357fe5b600960009054906101000a900473ffffffffffffffffffffffffffffffffffffffff16995099509950995099509950995099509950995090919293949596979899565b600560009054906101000a900473ffffffffffffffffffffffffffffffffffffffff1681565b60085481565b600560009054906101000a900473ffffffffffffffffffffffffffffffffffffffff1673ffffffffffffffffffffffffffffffffffffffff163373ffffffffffffffffffffffffffffffffffffffff161415610a4157600073ffffffffffffffffffffffffffffffffffffffff168173ffffffffffffffffffffffffffffffffffffffff16141515610a405780600560006101000a81548173ffffffffffffffffffffffffffffffffffffffff021916908373ffffffffffffffffffffffffffffffffffffffff1602179055505b5b50565b600960149054906101000a900460ff16815600a165627a7a72305820d4af4e8d5bf8768a6e0be95418a48a7feea12e353f1046c832794096bb21f74a0029a165627a7a723058207afaa7ee7a37ffae5e1ef16cc5749b1fd68205e23d4ef0eaa8dd453b8280006f0029",
  "source": "pragma solidity ^0.4.2;\n\nimport \"./Transaction.sol\";\n\ncontract InsurableTransactionFactory {\n    address public owner;\n    mapping(address => address[]) contractsOwned;\n    Transaction[] contracts;\n\n\n    constructor()  public {\n        owner = msg.sender;\n    \n    }\n    \n    \n    event NewContractAddress (address contractAddress, address contractCreator);\n\n\n    function getContractIdsOwnedBy(address _address) public returns (address[] _ids) {\n        return contractsOwned[_address];\n    }\n\n    \n    function count() public constant returns (uint theCount) { \n        return contractsOwned[msg.sender].length;\n    }\n\n    function create(\n        address counterParty, \n        bytes32 name,\n        uint max,\n        bytes32 desc,\n        uint premium) payable external returns (Transaction newContractAddress) {\n    \n        require(counterParty!=0x0, \"Counterparty cannot be null\");\n\n        Transaction newContract = new Transaction(counterParty,name,desc,max,premium,msg.sender,uint(msg.value));\n\n        contracts.push(newContract);\n        contractsOwned[msg.sender].push(newContract);\n        address(newContract).transfer(msg.value);\n\n        return newContract;\n    }\n\n    function getTransactions() public view returns (Transaction[] trxns) {\n        return contracts;\n    }\n\n    \n\n}",
  "sourcePath": "/Users/robert/dev/projects/eotim/contracts/InsurableTransactionFactory.sol",
  "compiler": {
    "name": "solc",
    "version": "0.4.24+commit.e67f0147.Emscripten.clang"
  },
  "schemaVersion": "2.0.1",
  "updatedAt": "2018-08-18T23:46:57.187Z"
}