{
  "contractName": "InsurableTransactionFactory",
  "abi": [
    {
      "constant": true,
      "inputs": [],
      "name": "owner",
      "outputs": [
        {
          "name": "",
          "type": "address"
        }
      ],
      "payable": false,
      "stateMutability": "view",
      "type": "function"
    },
    {
      "inputs": [],
      "payable": false,
      "stateMutability": "nonpayable",
      "type": "constructor"
    },
    {
      "anonymous": false,
      "inputs": [
        {
          "indexed": false,
          "name": "contractAddress",
          "type": "address"
        },
        {
          "indexed": false,
          "name": "contractCreator",
          "type": "address"
        }
      ],
      "name": "NewContractAddress",
      "type": "event"
    },
    {
      "constant": true,
      "inputs": [],
      "name": "count",
      "outputs": [
        {
          "name": "theCount",
          "type": "uint256"
        }
      ],
      "payable": false,
      "stateMutability": "view",
      "type": "function"
    },
    {
      "constant": false,
      "inputs": [
        {
          "name": "counterParty",
          "type": "address"
        },
        {
          "name": "name",
          "type": "bytes32"
        },
        {
          "name": "max",
          "type": "uint256"
        },
        {
          "name": "desc",
          "type": "bytes32"
        },
        {
          "name": "premium",
          "type": "uint256"
        }
      ],
      "name": "create",
      "outputs": [
        {
          "name": "newContractAddress",
          "type": "address"
        }
      ],
      "payable": true,
      "stateMutability": "payable",
      "type": "function"
    },
    {
      "constant": true,
      "inputs": [],
      "name": "getTransactions",
      "outputs": [
        {
          "name": "trxns",
          "type": "address[]"
        }
      ],
      "payable": false,
      "stateMutability": "view",
      "type": "function"
    },
    {
      "constant": true,
      "inputs": [],
      "name": "getAllOwnedTransactions",
      "outputs": [
        {
          "name": "trxs",
          "type": "address[]"
        }
      ],
      "payable": false,
      "stateMutability": "view",
      "type": "function"
    },
    {
      "constant": true,
      "inputs": [],
      "name": "getAllIds",
      "outputs": [
        {
          "name": "ids",
          "type": "uint256[]"
        }
      ],
      "payable": false,
      "stateMutability": "view",
      "type": "function"
    }
  ],
  "bytecode": "0x608060405234801561001057600080fd5b50336000806101000a81548173ffffffffffffffffffffffffffffffffffffffff021916908373ffffffffffffffffffffffffffffffffffffffff160217905550611574806100606000396000f300608060405260043610610078576000357c0100000000000000000000000000000000000000000000000000000000900463ffffffff16806306661abd1461007d57806383920e90146100a85780638da5cb5b14610114578063aaa44e5c1461016b578063aaadb847146101d7578063ecc4586214610243575b600080fd5b34801561008957600080fd5b506100926102e9565b6040518082815260200191505060405180910390f35b3480156100b457600080fd5b506100bd6102f6565b6040518080602001828103825283818151815260200191508051906020019060200280838360005b838110156101005780820151818401526020810190506100e5565b505050509050019250505060405180910390f35b34801561012057600080fd5b50610129610384565b604051808273ffffffffffffffffffffffffffffffffffffffff1673ffffffffffffffffffffffffffffffffffffffff16815260200191505060405180910390f35b34801561017757600080fd5b506101806103a9565b6040518080602001828103825283818151815260200191508051906020019060200280838360005b838110156101c35780820151818401526020810190506101a8565b505050509050019250505060405180910390f35b3480156101e357600080fd5b506101ec610443565b6040518080602001828103825283818151815260200191508051906020019060200280838360005b8381101561022f578082015181840152602081019050610214565b505050509050019250505060405180910390f35b6102a7600480360381019080803573ffffffffffffffffffffffffffffffffffffffff1690602001909291908035600019169060200190929190803590602001909291908035600019169060200190929190803590602001909291905050506105cc565b604051808273ffffffffffffffffffffffffffffffffffffffff1673ffffffffffffffffffffffffffffffffffffffff16815260200191505060405180910390f35b6000600280549050905090565b6060600280548060200260200160405190810160405280929190818152602001828054801561037a57602002820191906000526020600020905b8160009054906101000a900473ffffffffffffffffffffffffffffffffffffffff1673ffffffffffffffffffffffffffffffffffffffff1681526020019060010190808311610330575b5050505050905090565b6000809054906101000a900473ffffffffffffffffffffffffffffffffffffffff1681565b606080600160003373ffffffffffffffffffffffffffffffffffffffff1673ffffffffffffffffffffffffffffffffffffffff16815260200190815260200160002080548060200260200160405190810160405280929190818152602001828054801561043557602002820191906000526020600020905b815481526020019060010190808311610421575b505050505090508091505090565b60608060606000600160003373ffffffffffffffffffffffffffffffffffffffff1673ffffffffffffffffffffffffffffffffffffffff1681526020019081526020016000208054806020026020016040519081016040528092919081815260200182805480156104d357602002820191906000526020600020905b8154815260200190600101908083116104bf575b50505050509250825160405190808252806020026020018201604052801561050a5781602001602082028038833980820191505090505b509150600090505b82518110156105c3576002838281518110151561052b57fe5b9060200190602002015181548110151561054157fe5b9060005260206000200160009054906101000a900473ffffffffffffffffffffffffffffffffffffffff16828281518110151561057a57fe5b9060200190602002019073ffffffffffffffffffffffffffffffffffffffff16908173ffffffffffffffffffffffffffffffffffffffff16815250508080600101915050610512565b81935050505090565b6000806000808873ffffffffffffffffffffffffffffffffffffffff16141515156105f657600080fd5b8787868887336106046107e8565b808773ffffffffffffffffffffffffffffffffffffffff1673ffffffffffffffffffffffffffffffffffffffff168152602001866000191660001916815260200185600019166000191681526020018481526020018381526020018273ffffffffffffffffffffffffffffffffffffffff1673ffffffffffffffffffffffffffffffffffffffff1681526020019650505050505050604051809103906000f0801580156106b5573d6000803e3d6000fd5b50915060028290806001815401808255809150509060018203906000526020600020016000909192909190916101000a81548173ffffffffffffffffffffffffffffffffffffffff021916908373ffffffffffffffffffffffffffffffffffffffff160217905550506001600280549050039050600160003373ffffffffffffffffffffffffffffffffffffffff1673ffffffffffffffffffffffffffffffffffffffff168152602001908152602001600020600490806001815401808255809150509060018203906000526020600020016000909192909190915055508173ffffffffffffffffffffffffffffffffffffffff166108fc349081150290604051600060405180830381858888f193505050501580156107d9573d6000803e3d6000fd5b50819250505095945050505050565b604051610d50806107f9833901905600608060405234801561001057600080fd5b5060405160c080610d50833981018060405281019080805190602001909291908051906020019092919080519060200190929190805190602001909291908051906020019092919080519060200190929190505050336000806101000a81548173ffffffffffffffffffffffffffffffffffffffff021916908373ffffffffffffffffffffffffffffffffffffffff16021790555060008673ffffffffffffffffffffffffffffffffffffffff16141515156100cb57600080fd5b85600160006101000a81548173ffffffffffffffffffffffffffffffffffffffff021916908373ffffffffffffffffffffffffffffffffffffffff160217905550806000806101000a81548173ffffffffffffffffffffffffffffffffffffffff021916908373ffffffffffffffffffffffffffffffffffffffff1602179055508260068190555081600781905550846002816000191690555083600381600019169055506001600860006101000a81548160ff0219169083600181111561018f57fe5b0217905550505050505050610ba7806101a96000396000f3006080604052600436106100f1576000357c0100000000000000000000000000000000000000000000000000000000900463ffffffff16806306fdde03146100f357806310ec214f14610126578063173416ae146101535780632c453bdf146101805780633c3ce17d146101d757806341c0e1b5146101f957806355f150f1146102105780636296391314610243578063715018a61461026e5780638da5cb5b14610285578063968e893e146102dc5780639ece77c814610307578063d8a5cc031461034a578063dbc837c514610448578063e0a73a931461049f578063f2fde38b146104ca578063f9c319141461050d575b005b3480156100ff57600080fd5b50610108610546565b60405180826000191660001916815260200191505060405180910390f35b34801561013257600080fd5b506101516004803603810190808035906020019092919050505061054c565b005b34801561015f57600080fd5b5061017e600480360381019080803590602001909291905050506105c0565b005b34801561018c57600080fd5b50610195610625565b604051808273ffffffffffffffffffffffffffffffffffffffff1673ffffffffffffffffffffffffffffffffffffffff16815260200191505060405180910390f35b6101df61064b565b604051808215151515815260200191505060405180910390f35b34801561020557600080fd5b5061020e610724565b005b34801561021c57600080fd5b506102256107b9565b60405180826000191660001916815260200191505060405180910390f35b34801561024f57600080fd5b506102586107bf565b6040518082815260200191505060405180910390f35b34801561027a57600080fd5b506102836107c5565b005b34801561029157600080fd5b5061029a6108c7565b604051808273ffffffffffffffffffffffffffffffffffffffff1673ffffffffffffffffffffffffffffffffffffffff16815260200191505060405180910390f35b3480156102e857600080fd5b506102f16108ec565b6040518082815260200191505060405180910390f35b34801561031357600080fd5b50610348600480360381019080803573ffffffffffffffffffffffffffffffffffffffff1690602001909291905050506108f2565b005b34801561035657600080fd5b5061035f610991565b604051808b600019166000191681526020018a600019166000191681526020018981526020018881526020018781526020018681526020018573ffffffffffffffffffffffffffffffffffffffff1673ffffffffffffffffffffffffffffffffffffffff1681526020018473ffffffffffffffffffffffffffffffffffffffff1673ffffffffffffffffffffffffffffffffffffffff1681526020018381526020018273ffffffffffffffffffffffffffffffffffffffff1673ffffffffffffffffffffffffffffffffffffffff1681526020019a505050505050505050505060405180910390f35b34801561045457600080fd5b5061045d610a6a565b604051808273ffffffffffffffffffffffffffffffffffffffff1673ffffffffffffffffffffffffffffffffffffffff16815260200191505060405180910390f35b3480156104ab57600080fd5b506104b4610a90565b6040518082815260200191505060405180910390f35b3480156104d657600080fd5b5061050b600480360381019080803573ffffffffffffffffffffffffffffffffffffffff169060200190929190505050610a96565b005b34801561051957600080fd5b50610522610b68565b6040518082600181111561053257fe5b60ff16815260200191505060405180910390f35b60025481565b6000809054906101000a900473ffffffffffffffffffffffffffffffffffffffff1673ffffffffffffffffffffffffffffffffffffffff163373ffffffffffffffffffffffffffffffffffffffff161415156105a757600080fd5b6000811115156105b657600080fd5b8060078190555050565b6000809054906101000a900473ffffffffffffffffffffffffffffffffffffffff1673ffffffffffffffffffffffffffffffffffffffff163373ffffffffffffffffffffffffffffffffffffffff1614151561061b57600080fd5b8060068190555050565b600160009054906101000a900473ffffffffffffffffffffffffffffffffffffffff1681565b600080600181111561065957fe5b600860009054906101000a900460ff16600181111561067457fe5b1415151561068157600080fd5b600a670de0b6b3a76400006006540281151561069957fe5b0434111515156106a857600080fd5b346005600082825401925050819055506000600860006101000a81548160ff021916908360018111156106d757fe5b021790555033600460006101000a81548173ffffffffffffffffffffffffffffffffffffffff021916908373ffffffffffffffffffffffffffffffffffffffff1602179055506001905090565b6000809054906101000a900473ffffffffffffffffffffffffffffffffffffffff1673ffffffffffffffffffffffffffffffffffffffff163373ffffffffffffffffffffffffffffffffffffffff1614151561077f57600080fd5b6000809054906101000a900473ffffffffffffffffffffffffffffffffffffffff1673ffffffffffffffffffffffffffffffffffffffff16ff5b60035481565b60055481565b6000809054906101000a900473ffffffffffffffffffffffffffffffffffffffff1673ffffffffffffffffffffffffffffffffffffffff163373ffffffffffffffffffffffffffffffffffffffff1614151561082057600080fd5b6000809054906101000a900473ffffffffffffffffffffffffffffffffffffffff1673ffffffffffffffffffffffffffffffffffffffff167ff8df31144d9c2f0f6b59d69b8b98abd5459d07f2742c4df920b25aae33c6482060405160405180910390a260008060006101000a81548173ffffffffffffffffffffffffffffffffffffffff021916908373ffffffffffffffffffffffffffffffffffffffff160217905550565b6000809054906101000a900473ffffffffffffffffffffffffffffffffffffffff1681565b60065481565b6000809054906101000a900473ffffffffffffffffffffffffffffffffffffffff1673ffffffffffffffffffffffffffffffffffffffff163373ffffffffffffffffffffffffffffffffffffffff1614151561094d57600080fd5b80600160006101000a81548173ffffffffffffffffffffffffffffffffffffffff021916908373ffffffffffffffffffffffffffffffffffffffff16021790555050565b6000806000806000806000806000806002546003543073ffffffffffffffffffffffffffffffffffffffff1631600554600654600754600160009054906101000a900473ffffffffffffffffffffffffffffffffffffffff16600460009054906101000a900473ffffffffffffffffffffffffffffffffffffffff16600860009054906101000a900460ff166001811115610a2857fe5b6000809054906101000a900473ffffffffffffffffffffffffffffffffffffffff16995099509950995099509950995099509950995090919293949596979899565b600460009054906101000a900473ffffffffffffffffffffffffffffffffffffffff1681565b60075481565b600460009054906101000a900473ffffffffffffffffffffffffffffffffffffffff1673ffffffffffffffffffffffffffffffffffffffff163373ffffffffffffffffffffffffffffffffffffffff161415610b6557600073ffffffffffffffffffffffffffffffffffffffff168173ffffffffffffffffffffffffffffffffffffffff16141515610b645780600460006101000a81548173ffffffffffffffffffffffffffffffffffffffff021916908373ffffffffffffffffffffffffffffffffffffffff1602179055505b5b50565b600860009054906101000a900460ff16815600a165627a7a7230582015cbc88be6558e01103d81271aba2f5e4f74b1affa0d573185dd39fe2f7f44050029a165627a7a72305820c64785b4e897cab2fe85cb6c2bc582cc78924d4661d13625378a1796b85c67470029",
  "source": "pragma solidity ^0.4.2;\n\nimport \"./Transaction.sol\";\n\ncontract InsurableTransactionFactory {\n    address public owner;\n    mapping(address => uint[]) contractsOwned;\n    Transaction[] contracts;\n\n\n    constructor()  public {\n        owner = msg.sender;\n    }\n    \n    \n    event NewContractAddress (address contractAddress, address contractCreator);\n\n\n    function count() public constant returns (uint theCount) { \n        return contracts.length;\n    }\n\n    function create(\n        address counterParty, \n        bytes32 name,\n        uint max,\n        bytes32 desc,\n        uint premium) payable external returns (Transaction newContractAddress) {\n    \n        require(counterParty!=0x0);\n\n        Transaction newContract = new Transaction(counterParty,name,desc,max,premium,msg.sender);\n\n        contracts.push(newContract);\n        uint id = contracts.length - 1; \n        contractsOwned[msg.sender].push(4);\n\n        address(newContract).transfer(msg.value);\n\n        return newContract;\n    }\n\n    function getTransactions() public view returns (Transaction[] trxns) {\n        return contracts;\n    }\n\n    function getAllOwnedTransactions() public view returns \n    (Transaction[] trxs) \n    {\n        uint[] memory ids = contractsOwned[msg.sender];\n        \n        Transaction[] memory trx = new Transaction[](ids.length);\n        \n        for (uint counter = 0 ; counter < ids.length ; counter++) {\n        \n            trx[counter] = contracts[ids[counter]];\n        }\n\n        return trx;\n    }\n\n    function getAllIds() public view returns \n    (uint[] ids) \n    {\n        uint[] memory _ids = contractsOwned[msg.sender];\n        return _ids;\n    }\n\n}",
  "sourcePath": "/Users/robert/dev/projects/eotim/contracts/InsurableTransactionFactory.sol",
  "compiler": {
    "name": "solc",
    "version": "0.4.24+commit.e67f0147.Emscripten.clang"
  },
  "schemaVersion": "2.0.1",
  "updatedAt": "2018-08-11T01:59:30.799Z"
}