{
  "contractName": "InsurableTransactionFactory",
  "abi": [
    {
      "constant": true,
      "inputs": [],
      "name": "owner",
      "outputs": [
        {
          "name": "",
          "type": "address"
        }
      ],
      "payable": false,
      "stateMutability": "view",
      "type": "function"
    },
    {
      "inputs": [],
      "payable": false,
      "stateMutability": "nonpayable",
      "type": "constructor"
    },
    {
      "anonymous": false,
      "inputs": [
        {
          "indexed": false,
          "name": "contractAddress",
          "type": "address"
        },
        {
          "indexed": false,
          "name": "contractCreator",
          "type": "address"
        }
      ],
      "name": "NewContractAddress",
      "type": "event"
    },
    {
      "constant": true,
      "inputs": [],
      "name": "count",
      "outputs": [
        {
          "name": "theCount",
          "type": "uint256"
        }
      ],
      "payable": false,
      "stateMutability": "view",
      "type": "function"
    },
    {
      "constant": false,
      "inputs": [
        {
          "name": "counterParty",
          "type": "address"
        },
        {
          "name": "name",
          "type": "bytes32"
        },
        {
          "name": "max",
          "type": "uint256"
        },
        {
          "name": "desc",
          "type": "bytes32"
        },
        {
          "name": "premium",
          "type": "uint256"
        }
      ],
      "name": "create",
      "outputs": [
        {
          "name": "newContractAddress",
          "type": "address"
        }
      ],
      "payable": true,
      "stateMutability": "payable",
      "type": "function"
    },
    {
      "constant": true,
      "inputs": [],
      "name": "getTransactions",
      "outputs": [
        {
          "name": "trxns",
          "type": "address[]"
        }
      ],
      "payable": false,
      "stateMutability": "view",
      "type": "function"
    },
    {
      "constant": true,
      "inputs": [],
      "name": "zeroStub",
      "outputs": [
        {
          "name": "z",
          "type": "uint256"
        }
      ],
      "payable": false,
      "stateMutability": "pure",
      "type": "function"
    },
    {
      "constant": true,
      "inputs": [],
      "name": "getAllOwnedTransactions",
      "outputs": [
        {
          "name": "trxs",
          "type": "address[]"
        }
      ],
      "payable": false,
      "stateMutability": "view",
      "type": "function"
    }
  ],
  "bytecode": "0x608060405234801561001057600080fd5b50336000806101000a81548173ffffffffffffffffffffffffffffffffffffffff021916908373ffffffffffffffffffffffffffffffffffffffff16021790555061130c806100606000396000f300608060405260043610610078576000357c0100000000000000000000000000000000000000000000000000000000900463ffffffff16806306661abd1461007d5780636412f66b146100a857806383920e90146100d35780638da5cb5b1461013f578063aaadb84714610196578063ecc4586214610202575b600080fd5b34801561008957600080fd5b506100926102a8565b6040518082815260200191505060405180910390f35b3480156100b457600080fd5b506100bd6102b5565b6040518082815260200191505060405180910390f35b3480156100df57600080fd5b506100e86102bd565b6040518080602001828103825283818151815260200191508051906020019060200280838360005b8381101561012b578082015181840152602081019050610110565b505050509050019250505060405180910390f35b34801561014b57600080fd5b5061015461034b565b604051808273ffffffffffffffffffffffffffffffffffffffff1673ffffffffffffffffffffffffffffffffffffffff16815260200191505060405180910390f35b3480156101a257600080fd5b506101ab610370565b6040518080602001828103825283818151815260200191508051906020019060200280838360005b838110156101ee5780820151818401526020810190506101d3565b505050509050019250505060405180910390f35b610266600480360381019080803573ffffffffffffffffffffffffffffffffffffffff1690602001909291908035600019169060200190929190803590602001909291908035600019169060200190929190803590602001909291905050506104b2565b604051808273ffffffffffffffffffffffffffffffffffffffff1673ffffffffffffffffffffffffffffffffffffffff16815260200191505060405180910390f35b6000600280549050905090565b600080905090565b6060600280548060200260200160405190810160405280929190818152602001828054801561034157602002820191906000526020600020905b8160009054906101000a900473ffffffffffffffffffffffffffffffffffffffff1673ffffffffffffffffffffffffffffffffffffffff16815260200190600101908083116102f7575b5050505050905090565b6000809054906101000a900473ffffffffffffffffffffffffffffffffffffffff1681565b6060600060606000600160003373ffffffffffffffffffffffffffffffffffffffff1673ffffffffffffffffffffffffffffffffffffffff168152602001908152602001600020925082805490506040519080825280602002602001820160405280156103ec5781602001602082028038833980820191505090505b509150600090505b82805490508110156104a9576002838281548110151561041057fe5b906000526020600020015481548110151561042757fe5b9060005260206000200160009054906101000a900473ffffffffffffffffffffffffffffffffffffffff16828281518110151561046057fe5b9060200190602002019073ffffffffffffffffffffffffffffffffffffffff16908173ffffffffffffffffffffffffffffffffffffffff168152505080806001019150506103f4565b81935050505090565b6000806000808873ffffffffffffffffffffffffffffffffffffffff16141515156104dc57600080fd5b8787868887336104ea6106cd565b808773ffffffffffffffffffffffffffffffffffffffff1673ffffffffffffffffffffffffffffffffffffffff168152602001866000191660001916815260200185600019166000191681526020018481526020018381526020018273ffffffffffffffffffffffffffffffffffffffff1673ffffffffffffffffffffffffffffffffffffffff1681526020019650505050505050604051809103906000f08015801561059b573d6000803e3d6000fd5b50915060028290806001815401808255809150509060018203906000526020600020016000909192909190916101000a81548173ffffffffffffffffffffffffffffffffffffffff021916908373ffffffffffffffffffffffffffffffffffffffff160217905550506001600280549050039050600160003373ffffffffffffffffffffffffffffffffffffffff1673ffffffffffffffffffffffffffffffffffffffff1681526020019081526020016000208190806001815401808255809150509060018203906000526020600020016000909192909190915055508173ffffffffffffffffffffffffffffffffffffffff166108fc349081150290604051600060405180830381858888f193505050501580156106be573d6000803e3d6000fd5b50819250505095945050505050565b604051610c03806106de833901905600608060405234801561001057600080fd5b5060405160c080610c03833981018060405281019080805190602001909291908051906020019092919080519060200190929190805190602001909291908051906020019092919080519060200190929190505050336000806101000a81548173ffffffffffffffffffffffffffffffffffffffff021916908373ffffffffffffffffffffffffffffffffffffffff16021790555060008673ffffffffffffffffffffffffffffffffffffffff16141515156100cb57600080fd5b85600160006101000a81548173ffffffffffffffffffffffffffffffffffffffff021916908373ffffffffffffffffffffffffffffffffffffffff160217905550806000806101000a81548173ffffffffffffffffffffffffffffffffffffffff021916908373ffffffffffffffffffffffffffffffffffffffff1602179055508260068190555081600781905550846002816000191690555083600381600019169055506001600860006101000a81548160ff0219169083600181111561018f57fe5b0217905550505050505050610a5a806101a96000396000f3006080604052600436106100e6576000357c0100000000000000000000000000000000000000000000000000000000900463ffffffff16806306fdde03146100e857806310ec214f1461011b578063173416ae146101485780632c453bdf146101755780633c3ce17d146101cc57806341c0e1b5146101ee57806355f150f11461020557806362963913146102385780638da5cb5b14610263578063968e893e146102ba5780639ece77c8146102e5578063d8a5cc0314610328578063dbc837c514610426578063e0a73a931461047d578063f2fde38b146104a8578063f9c31914146104eb575b005b3480156100f457600080fd5b506100fd610524565b60405180826000191660001916815260200191505060405180910390f35b34801561012757600080fd5b506101466004803603810190808035906020019092919050505061052a565b005b34801561015457600080fd5b5061017360048036038101908080359060200190929190505050610599565b005b34801561018157600080fd5b5061018a6105f9565b604051808273ffffffffffffffffffffffffffffffffffffffff1673ffffffffffffffffffffffffffffffffffffffff16815260200191505060405180910390f35b6101d461061f565b604051808215151515815260200191505060405180910390f35b3480156101fa57600080fd5b506102036106e2565b005b34801561021157600080fd5b5061021a610773565b60405180826000191660001916815260200191505060405180910390f35b34801561024457600080fd5b5061024d610779565b6040518082815260200191505060405180910390f35b34801561026f57600080fd5b5061027861077f565b604051808273ffffffffffffffffffffffffffffffffffffffff1673ffffffffffffffffffffffffffffffffffffffff16815260200191505060405180910390f35b3480156102c657600080fd5b506102cf6107a4565b6040518082815260200191505060405180910390f35b3480156102f157600080fd5b50610326600480360381019080803573ffffffffffffffffffffffffffffffffffffffff1690602001909291905050506107aa565b005b34801561033457600080fd5b5061033d610844565b604051808b600019166000191681526020018a600019166000191681526020018981526020018881526020018781526020018681526020018573ffffffffffffffffffffffffffffffffffffffff1673ffffffffffffffffffffffffffffffffffffffff1681526020018473ffffffffffffffffffffffffffffffffffffffff1673ffffffffffffffffffffffffffffffffffffffff1681526020018381526020018273ffffffffffffffffffffffffffffffffffffffff1673ffffffffffffffffffffffffffffffffffffffff1681526020019a505050505050505050505060405180910390f35b34801561043257600080fd5b5061043b61091d565b604051808273ffffffffffffffffffffffffffffffffffffffff1673ffffffffffffffffffffffffffffffffffffffff16815260200191505060405180910390f35b34801561048957600080fd5b50610492610943565b6040518082815260200191505060405180910390f35b3480156104b457600080fd5b506104e9600480360381019080803573ffffffffffffffffffffffffffffffffffffffff169060200190929190505050610949565b005b3480156104f757600080fd5b50610500610a1b565b6040518082600181111561051057fe5b60ff16815260200191505060405180910390f35b60025481565b6000809054906101000a900473ffffffffffffffffffffffffffffffffffffffff1673ffffffffffffffffffffffffffffffffffffffff163373ffffffffffffffffffffffffffffffffffffffff1614156105965760008111151561058e57600080fd5b806007819055505b50565b6000809054906101000a900473ffffffffffffffffffffffffffffffffffffffff1673ffffffffffffffffffffffffffffffffffffffff163373ffffffffffffffffffffffffffffffffffffffff1614156105f657806006819055505b50565b600160009054906101000a900473ffffffffffffffffffffffffffffffffffffffff1681565b600080600181111561062d57fe5b600860009054906101000a900460ff16600181111561064857fe5b1415151561065557600080fd5b600654341115151561066657600080fd5b346005600082825401925050819055506000600860006101000a81548160ff0219169083600181111561069557fe5b021790555033600460006101000a81548173ffffffffffffffffffffffffffffffffffffffff021916908373ffffffffffffffffffffffffffffffffffffffff1602179055506001905090565b6000809054906101000a900473ffffffffffffffffffffffffffffffffffffffff1673ffffffffffffffffffffffffffffffffffffffff163373ffffffffffffffffffffffffffffffffffffffff161415610771576000809054906101000a900473ffffffffffffffffffffffffffffffffffffffff1673ffffffffffffffffffffffffffffffffffffffff16ff5b565b60035481565b60055481565b6000809054906101000a900473ffffffffffffffffffffffffffffffffffffffff1681565b60065481565b6000809054906101000a900473ffffffffffffffffffffffffffffffffffffffff1673ffffffffffffffffffffffffffffffffffffffff163373ffffffffffffffffffffffffffffffffffffffff1614156108415780600160006101000a81548173ffffffffffffffffffffffffffffffffffffffff021916908373ffffffffffffffffffffffffffffffffffffffff1602179055505b50565b6000806000806000806000806000806002546003543073ffffffffffffffffffffffffffffffffffffffff1631600554600654600754600160009054906101000a900473ffffffffffffffffffffffffffffffffffffffff16600460009054906101000a900473ffffffffffffffffffffffffffffffffffffffff16600860009054906101000a900460ff1660018111156108db57fe5b6000809054906101000a900473ffffffffffffffffffffffffffffffffffffffff16995099509950995099509950995099509950995090919293949596979899565b600460009054906101000a900473ffffffffffffffffffffffffffffffffffffffff1681565b60075481565b600460009054906101000a900473ffffffffffffffffffffffffffffffffffffffff1673ffffffffffffffffffffffffffffffffffffffff163373ffffffffffffffffffffffffffffffffffffffff161415610a1857600073ffffffffffffffffffffffffffffffffffffffff168173ffffffffffffffffffffffffffffffffffffffff16141515610a175780600460006101000a81548173ffffffffffffffffffffffffffffffffffffffff021916908373ffffffffffffffffffffffffffffffffffffffff1602179055505b5b50565b600860009054906101000a900460ff16815600a165627a7a72305820e4c4a6a7118bc025247fa06dd1e6d8d4248887e1c30e5234af262f17081453660029a165627a7a72305820d0b6fb25f77065681768fdb23029f5d245e98c13c4a94ded0d97f45916e0ebbe0029",
  "source": "pragma solidity ^0.4.2;\n\nimport \"./Transaction.sol\";\n\ncontract InsurableTransactionFactory {\n    address public owner;\n    mapping(address => uint[]) contractsOwned;\n    Transaction[] contracts;\n\n\n    constructor()  public {\n        owner = msg.sender;\n    }\n    \n    \n    event NewContractAddress (address contractAddress, address contractCreator);\n\n\n    function count() public constant returns (uint theCount) { \n        return contracts.length;\n    }\n\n    function create(\n        address counterParty, \n        bytes32 name,\n        uint max,\n        bytes32 desc,\n        uint premium) payable external returns (Transaction newContractAddress) {\n    \n        require(counterParty!=0x0);\n\n        Transaction newContract = new Transaction(counterParty,name,desc,max,premium,msg.sender);\n\n        contracts.push(newContract);\n        uint id = contracts.length - 1; \n        contractsOwned[msg.sender].push(id);\n\n        address(newContract).transfer(msg.value);\n\n        return newContract;\n    }\n\n    function getTransactions() public view returns (Transaction[] trxns) {\n        return contracts;\n    }\n\n    function zeroStub() public pure returns (uint z) {\n        return 0;\n    }\n    \n    function getAllOwnedTransactions() public view returns \n    (Transaction[] trxs) \n    {\n        uint[] storage ids = contractsOwned[msg.sender];\n        \n        Transaction[] memory trx = new Transaction[](ids.length);\n        \n        for (uint counter=0 ;counter<ids.length;counter++) {\n        \n            trx[counter] = contracts[ids[counter]];\n        }\n\n        return trx;\n    }\n\n}",
  "sourcePath": "/Users/robert/dev/projects/eotim/contracts/InsurableTransactionFactory.sol",
  "compiler": {
    "name": "solc",
    "version": "0.4.24+commit.e67f0147.Emscripten.clang"
  },
  "schemaVersion": "2.0.1",
  "updatedAt": "2018-08-01T04:05:11.667Z"
}