{
  "contractName": "Transaction",
  "abi": [
    {
      "constant": true,
      "inputs": [],
      "name": "name",
      "outputs": [
        {
          "name": "",
          "type": "bytes32"
        }
      ],
      "payable": false,
      "stateMutability": "view",
      "type": "function"
    },
    {
      "constant": true,
      "inputs": [],
      "name": "counter_party",
      "outputs": [
        {
          "name": "",
          "type": "address"
        }
      ],
      "payable": false,
      "stateMutability": "view",
      "type": "function"
    },
    {
      "constant": true,
      "inputs": [],
      "name": "demoClaimHash",
      "outputs": [
        {
          "name": "",
          "type": "string"
        }
      ],
      "payable": false,
      "stateMutability": "view",
      "type": "function"
    },
    {
      "constant": false,
      "inputs": [],
      "name": "kill",
      "outputs": [],
      "payable": false,
      "stateMutability": "nonpayable",
      "type": "function"
    },
    {
      "constant": true,
      "inputs": [],
      "name": "contract_state",
      "outputs": [
        {
          "name": "",
          "type": "uint8"
        }
      ],
      "payable": false,
      "stateMutability": "view",
      "type": "function"
    },
    {
      "constant": true,
      "inputs": [],
      "name": "desc",
      "outputs": [
        {
          "name": "",
          "type": "bytes32"
        }
      ],
      "payable": false,
      "stateMutability": "view",
      "type": "function"
    },
    {
      "constant": false,
      "inputs": [],
      "name": "renounceOwnership",
      "outputs": [],
      "payable": false,
      "stateMutability": "nonpayable",
      "type": "function"
    },
    {
      "constant": true,
      "inputs": [],
      "name": "premium_percent",
      "outputs": [
        {
          "name": "",
          "type": "uint256"
        }
      ],
      "payable": false,
      "stateMutability": "view",
      "type": "function"
    },
    {
      "constant": true,
      "inputs": [],
      "name": "owner",
      "outputs": [
        {
          "name": "",
          "type": "address"
        }
      ],
      "payable": false,
      "stateMutability": "view",
      "type": "function"
    },
    {
      "constant": true,
      "inputs": [],
      "name": "transaction_value",
      "outputs": [
        {
          "name": "",
          "type": "uint256"
        }
      ],
      "payable": false,
      "stateMutability": "view",
      "type": "function"
    },
    {
      "constant": true,
      "inputs": [],
      "name": "current_coverage",
      "outputs": [
        {
          "name": "",
          "type": "uint256"
        }
      ],
      "payable": false,
      "stateMutability": "view",
      "type": "function"
    },
    {
      "constant": true,
      "inputs": [],
      "name": "insurer",
      "outputs": [
        {
          "name": "",
          "type": "address"
        }
      ],
      "payable": false,
      "stateMutability": "view",
      "type": "function"
    },
    {
      "constant": true,
      "inputs": [],
      "name": "max_coverage",
      "outputs": [
        {
          "name": "",
          "type": "uint256"
        }
      ],
      "payable": false,
      "stateMutability": "view",
      "type": "function"
    },
    {
      "constant": false,
      "inputs": [
        {
          "name": "_newOwner",
          "type": "address"
        }
      ],
      "name": "transferOwnership",
      "outputs": [],
      "payable": false,
      "stateMutability": "nonpayable",
      "type": "function"
    },
    {
      "inputs": [
        {
          "name": "_counterparty",
          "type": "address"
        },
        {
          "name": "_name",
          "type": "bytes32"
        },
        {
          "name": "_desc",
          "type": "bytes32"
        },
        {
          "name": "_max_coverage",
          "type": "uint256"
        },
        {
          "name": "_prem",
          "type": "uint256"
        },
        {
          "name": "_owner",
          "type": "address"
        },
        {
          "name": "_value",
          "type": "uint256"
        }
      ],
      "payable": true,
      "stateMutability": "payable",
      "type": "constructor"
    },
    {
      "payable": true,
      "stateMutability": "payable",
      "type": "fallback"
    },
    {
      "anonymous": false,
      "inputs": [
        {
          "indexed": false,
          "name": "message",
          "type": "string"
        },
        {
          "indexed": false,
          "name": "state",
          "type": "uint8"
        }
      ],
      "name": "TransactionStatusChange",
      "type": "event"
    },
    {
      "anonymous": false,
      "inputs": [
        {
          "indexed": false,
          "name": "message",
          "type": "string"
        },
        {
          "indexed": false,
          "name": "value",
          "type": "uint256"
        }
      ],
      "name": "PremiumPaid",
      "type": "event"
    },
    {
      "anonymous": false,
      "inputs": [
        {
          "indexed": true,
          "name": "previousOwner",
          "type": "address"
        }
      ],
      "name": "OwnershipRenounced",
      "type": "event"
    },
    {
      "anonymous": false,
      "inputs": [
        {
          "indexed": true,
          "name": "previousOwner",
          "type": "address"
        },
        {
          "indexed": true,
          "name": "newOwner",
          "type": "address"
        }
      ],
      "name": "OwnershipTransferred",
      "type": "event"
    },
    {
      "constant": true,
      "inputs": [],
      "name": "getState",
      "outputs": [
        {
          "name": "state",
          "type": "uint8"
        }
      ],
      "payable": false,
      "stateMutability": "view",
      "type": "function"
    },
    {
      "constant": true,
      "inputs": [],
      "name": "getTransactionDetails",
      "outputs": [
        {
          "name": "_name",
          "type": "bytes32"
        },
        {
          "name": "_desc",
          "type": "bytes32"
        },
        {
          "name": "_value",
          "type": "uint256"
        },
        {
          "name": "_coverage",
          "type": "uint256"
        },
        {
          "name": "_maxCoverage",
          "type": "uint256"
        },
        {
          "name": "_premium_percent",
          "type": "uint256"
        },
        {
          "name": "_counterParty",
          "type": "address"
        },
        {
          "name": "_insurer",
          "type": "address"
        },
        {
          "name": "status",
          "type": "uint256"
        },
        {
          "name": "_owner",
          "type": "address"
        },
        {
          "name": "_balance",
          "type": "uint256"
        }
      ],
      "payable": false,
      "stateMutability": "view",
      "type": "function"
    },
    {
      "constant": false,
      "inputs": [
        {
          "name": "newOwner",
          "type": "address"
        }
      ],
      "name": "transferInsurer",
      "outputs": [],
      "payable": false,
      "stateMutability": "nonpayable",
      "type": "function"
    },
    {
      "constant": false,
      "inputs": [],
      "name": "insure",
      "outputs": [
        {
          "name": "_success",
          "type": "bool"
        }
      ],
      "payable": true,
      "stateMutability": "payable",
      "type": "function"
    },
    {
      "constant": false,
      "inputs": [],
      "name": "settle",
      "outputs": [
        {
          "name": "_success",
          "type": "bool"
        }
      ],
      "payable": true,
      "stateMutability": "payable",
      "type": "function"
    },
    {
      "constant": true,
      "inputs": [],
      "name": "getBalance",
      "outputs": [
        {
          "name": "_balance",
          "type": "uint256"
        }
      ],
      "payable": false,
      "stateMutability": "view",
      "type": "function"
    },
    {
      "constant": false,
      "inputs": [
        {
          "name": "proofHash",
          "type": "string"
        }
      ],
      "name": "fMakeDemoClaim",
      "outputs": [],
      "payable": false,
      "stateMutability": "nonpayable",
      "type": "function"
    }
  ],
  "bytecode": "0x60806040526040805190810160405280600781526020017f6e6f747265616c00000000000000000000000000000000000000000000000000815250600a90805190602001906200005192919062000260565b5060405160e08062001aa583398101806040528101908080519060200190929190805190602001909291908051906020019092919080519060200190929190805190602001909291908051906020019092919080519060200190929190505050336000806101000a81548173ffffffffffffffffffffffffffffffffffffffff021916908373ffffffffffffffffffffffffffffffffffffffff16021790555060008773ffffffffffffffffffffffffffffffffffffffff161415151562000181576040517f08c379a000000000000000000000000000000000000000000000000000000000815260040180806020018281038252601d8152602001807f436f756e7465722070617274792063616e6e6f7420626520626c616e6b00000081525060200191505060405180910390fd5b86600260006101000a81548173ffffffffffffffffffffffffffffffffffffffff021916908373ffffffffffffffffffffffffffffffffffffffff16021790555081600960006101000a81548173ffffffffffffffffffffffffffffffffffffffff021916908373ffffffffffffffffffffffffffffffffffffffff1602179055508360078190555082600881905550856003816000191690555084600481600019169055506000600b60006101000a81548160ff021916908360038111156200024757fe5b021790555080600181905550505050505050506200030f565b828054600181600116156101000203166002900490600052602060002090601f016020900481019282601f10620002a357805160ff1916838001178555620002d4565b82800160010185558215620002d4579182015b82811115620002d3578251825591602001919060010190620002b6565b5b509050620002e39190620002e7565b5090565b6200030c91905b8082111562000308576000816000905550600101620002ee565b5090565b90565b611786806200031f6000396000f30060806040526004361061011d576000357c0100000000000000000000000000000000000000000000000000000000900463ffffffff16806306fdde031461011f5780630a5d2fc81461015257806311da60b4146101a957806312065fe0146101cb5780631865c57d146101f657806328d4ea8b1461022f5780633c3ce17d146102bf5780634173fb9d146102e157806341c0e1b5146103245780634aaf6b861461033b57806350f941cf1461037457806355f150f1146103af578063715018a6146103e2578063830361b6146103f95780638da5cb5b14610424578063a4da04e41461047b578063c84d7087146104a6578063d8a5cc03146104d1578063dbc837c5146105d6578063eec8cb921461062d578063f2fde38b14610658575b005b34801561012b57600080fd5b5061013461069b565b60405180826000191660001916815260200191505060405180910390f35b34801561015e57600080fd5b506101676106a1565b604051808273ffffffffffffffffffffffffffffffffffffffff1673ffffffffffffffffffffffffffffffffffffffff16815260200191505060405180910390f35b6101b16106c7565b604051808215151515815260200191505060405180910390f35b3480156101d757600080fd5b506101e0610ac3565b6040518082815260200191505060405180910390f35b34801561020257600080fd5b5061020b610ae2565b6040518082600381111561021b57fe5b60ff16815260200191505060405180910390f35b34801561023b57600080fd5b50610244610af9565b6040518080602001828103825283818151815260200191508051906020019080838360005b83811015610284578082015181840152602081019050610269565b50505050905090810190601f1680156102b15780820380516001836020036101000a031916815260200191505b509250505060405180910390f35b6102c7610b97565b604051808215151515815260200191505060405180910390f35b3480156102ed57600080fd5b50610322600480360381019080803573ffffffffffffffffffffffffffffffffffffffff169060200190929190505050610ea8565b005b34801561033057600080fd5b50610339610f7a565b005b34801561034757600080fd5b5061035061100f565b6040518082600381111561036057fe5b60ff16815260200191505060405180910390f35b34801561038057600080fd5b506103ad600480360381019080803590602001908201803590602001919091929391929390505050611022565b005b3480156103bb57600080fd5b506103c461135d565b60405180826000191660001916815260200191505060405180910390f35b3480156103ee57600080fd5b506103f7611363565b005b34801561040557600080fd5b5061040e611465565b6040518082815260200191505060405180910390f35b34801561043057600080fd5b5061043961146b565b604051808273ffffffffffffffffffffffffffffffffffffffff1673ffffffffffffffffffffffffffffffffffffffff16815260200191505060405180910390f35b34801561048757600080fd5b50610490611491565b6040518082815260200191505060405180910390f35b3480156104b257600080fd5b506104bb611497565b6040518082815260200191505060405180910390f35b3480156104dd57600080fd5b506104e661149d565b604051808c600019166000191681526020018b600019166000191681526020018a81526020018981526020018881526020018781526020018673ffffffffffffffffffffffffffffffffffffffff1673ffffffffffffffffffffffffffffffffffffffff1681526020018573ffffffffffffffffffffffffffffffffffffffff1673ffffffffffffffffffffffffffffffffffffffff1681526020018481526020018373ffffffffffffffffffffffffffffffffffffffff1673ffffffffffffffffffffffffffffffffffffffff1681526020018281526020019b50505050505050505050505060405180910390f35b3480156105e257600080fd5b506105eb61157f565b604051808273ffffffffffffffffffffffffffffffffffffffff1673ffffffffffffffffffffffffffffffffffffffff16815260200191505060405180910390f35b34801561063957600080fd5b506106426115a5565b6040518082815260200191505060405180910390f35b34801561066457600080fd5b50610699600480360381019080803573ffffffffffffffffffffffffffffffffffffffff1690602001909291905050506115ab565b005b60035481565b600260009054906101000a900473ffffffffffffffffffffffffffffffffffffffff1681565b6000806000600260038111156106d957fe5b600b60009054906101000a900460ff1660038111156106f457fe5b14151515610790576040517f08c379a00000000000000000000000000000000000000000000000000000000081526004018080602001828103825260258152602001807f5472616e73616374696f6e2068617320616c7265616479206265656e2073657481526020017f746c65642e00000000000000000000000000000000000000000000000000000081525060400191505060405180910390fd5b600960009054906101000a900473ffffffffffffffffffffffffffffffffffffffff1673ffffffffffffffffffffffffffffffffffffffff163373ffffffffffffffffffffffffffffffffffffffff1614151561087b576040517f08c379a000000000000000000000000000000000000000000000000000000000815260040180806020018281038252602e8152602001807f5472616e736163746f6e2063616e206f6e6c7920626520736574746c6564206281526020017f7920636c61696d206f776e65722e00000000000000000000000000000000000081525060400191505060405180910390fd5b60015491506000600181905550600260009054906101000a900473ffffffffffffffffffffffffffffffffffffffff1673ffffffffffffffffffffffffffffffffffffffff166108fc839081150290604051600060405180830381858888f193505050501580156108f0573d6000803e3d6000fd5b50600160038111156108fe57fe5b600b60009054906101000a900460ff16600381111561091957fe5b1415610a0957346006540190506000600681905550600560009054906101000a900473ffffffffffffffffffffffffffffffffffffffff1673ffffffffffffffffffffffffffffffffffffffff166108fc829081150290604051600060405180830381858888f19350505050158015610996573d6000803e3d6000fd5b507f77980fe590ec3aaa964f83e59bc67228e62b66441607d8ac9eb58645d0a2cc6a600160405180806020018381526020018281038252601b8152602001807f496e737572616e6365207072656d69756d2077617320706169642e00000000008152506020019250505060405180910390a15b6002600b60006101000a81548160ff02191690836003811115610a2857fe5b02179055507fbe71ffd27116cb4f6c570ac59edc69736978c960d2995ff2164848cfe24ec449600b60009054906101000a900460ff166040518080602001836003811115610a7257fe5b60ff1681526020018281038252601d8152602001807f54686520636f6e747261637420686173206265656e20736574746c65640000008152506020019250505060405180910390a160019250505090565b60003073ffffffffffffffffffffffffffffffffffffffff1631905090565b6000600b60009054906101000a900460ff16905090565b600a8054600181600116156101000203166002900480601f016020809104026020016040519081016040528092919081815260200182805460018160011615610100020316600290048015610b8f5780601f10610b6457610100808354040283529160200191610b8f565b820191906000526020600020905b815481529060010190602001808311610b7257829003601f168201915b505050505081565b600060016003811115610ba657fe5b600b60009054906101000a900460ff166003811115610bc157fe5b14151515610c37576040517f08c379a000000000000000000000000000000000000000000000000000000000815260040180806020018281038252601e8152602001807f5472616e73616374696f6e20697320616c726561647920696e7375726564000081525060200191505060405180910390fd5b60026003811115610c4457fe5b600b60009054906101000a900460ff166003811115610c5f57fe5b14151515610cfb576040517f08c379a00000000000000000000000000000000000000000000000000000000081526004018080602001828103825260258152602001807f5472616e73616374696f6e2068617320616c7265616479206265656e2073657481526020017f746c65642e00000000000000000000000000000000000000000000000000000081525060400191505060405180910390fd5b610d28600754610d233073ffffffffffffffffffffffffffffffffffffffff16316064611612565b611628565b3411151515610d9f576040517f08c379a00000000000000000000000000000000000000000000000000000000081526004018080602001828103825260208152602001807f56616c75652063616e6e6f7420657863656564206d617820636f76657261676581525060200191505060405180910390fd5b3460066000828254019250508190555033600560006101000a81548173ffffffffffffffffffffffffffffffffffffffff021916908373ffffffffffffffffffffffffffffffffffffffff1602179055506001600b60006101000a81548160ff02191690836003811115610e0f57fe5b02179055507fbe71ffd27116cb4f6c570ac59edc69736978c960d2995ff2164848cfe24ec449600b60009054906101000a900460ff166040518080602001836003811115610e5957fe5b60ff1681526020018281038252601e8152602001807f54686520636f6e747261637420686173206265656e20696e73757265642e00008152506020019250505060405180910390a16001905090565b600560009054906101000a900473ffffffffffffffffffffffffffffffffffffffff1673ffffffffffffffffffffffffffffffffffffffff163373ffffffffffffffffffffffffffffffffffffffff161415610f7757600073ffffffffffffffffffffffffffffffffffffffff168173ffffffffffffffffffffffffffffffffffffffff16141515610f765780600560006101000a81548173ffffffffffffffffffffffffffffffffffffffff021916908373ffffffffffffffffffffffffffffffffffffffff1602179055505b5b50565b6000809054906101000a900473ffffffffffffffffffffffffffffffffffffffff1673ffffffffffffffffffffffffffffffffffffffff163373ffffffffffffffffffffffffffffffffffffffff16141515610fd557600080fd5b6000809054906101000a900473ffffffffffffffffffffffffffffffffffffffff1673ffffffffffffffffffffffffffffffffffffffff16ff5b600b60009054906101000a900460ff1681565b6001600381111561102f57fe5b600b60009054906101000a900460ff16600381111561104a57fe5b1415156110e5576040517f08c379a00000000000000000000000000000000000000000000000000000000081526004018080602001828103825260378152602001807f5472616e73616374696f6e206d75737420626520696e737572656420746f206581526020017f7363616c61746520746f206d616b65206120636c61696d00000000000000000081525060400191505060405180910390fd5b600a60405180828054600181600116156101000203166002900480156111425780601f10611120576101008083540402835291820191611142565b820191906000526020600020905b81548152906001019060200180831161112e575b505091505060405180910390206000191682826040518083838082843782019150509250505060405180910390206000191614151561120f576040517f08c379a00000000000000000000000000000000000000000000000000000000081526004018080602001828103825260408152602001807f45766964656e6365206973206e6f74207375627374616e7469616c20656e6f7581526020017f676820746f20657363616c61746520746f20636c61696d732070726f6365737381525060400191505060405180910390fd5b600260009054906101000a900473ffffffffffffffffffffffffffffffffffffffff1673ffffffffffffffffffffffffffffffffffffffff166108fc6006549081150290604051600060405180830381858888f19350505050158015611279573d6000803e3d6000fd5b5060006006819055506002600b60006101000a81548160ff021916908360038111156112a157fe5b02179055507fbe71ffd27116cb4f6c570ac59edc69736978c960d2995ff2164848cfe24ec449600b60009054906101000a900460ff1660405180806020018360038111156112eb57fe5b60ff1681526020018281038252602a8152602001807f54686520636c61696d206f6e2074686520636f6e74726163742068617320626581526020017f656e20736574746c6564000000000000000000000000000000000000000000008152506040019250505060405180910390a15050565b60045481565b6000809054906101000a900473ffffffffffffffffffffffffffffffffffffffff1673ffffffffffffffffffffffffffffffffffffffff163373ffffffffffffffffffffffffffffffffffffffff161415156113be57600080fd5b6000809054906101000a900473ffffffffffffffffffffffffffffffffffffffff1673ffffffffffffffffffffffffffffffffffffffff167ff8df31144d9c2f0f6b59d69b8b98abd5459d07f2742c4df920b25aae33c6482060405160405180910390a260008060006101000a81548173ffffffffffffffffffffffffffffffffffffffff021916908373ffffffffffffffffffffffffffffffffffffffff160217905550565b60085481565b600960009054906101000a900473ffffffffffffffffffffffffffffffffffffffff1681565b60015481565b60065481565b6000806000806000806000806000806000600354600454600154600654600754600854600260009054906101000a900473ffffffffffffffffffffffffffffffffffffffff16600560009054906101000a900473ffffffffffffffffffffffffffffffffffffffff16600b60009054906101000a900460ff16600381111561152157fe5b600960009054906101000a900473ffffffffffffffffffffffffffffffffffffffff163073ffffffffffffffffffffffffffffffffffffffff16319a509a509a509a509a509a509a509a509a509a509a50909192939495969798999a565b600560009054906101000a900473ffffffffffffffffffffffffffffffffffffffff1681565b60075481565b6000809054906101000a900473ffffffffffffffffffffffffffffffffffffffff1673ffffffffffffffffffffffffffffffffffffffff163373ffffffffffffffffffffffffffffffffffffffff1614151561160657600080fd5b61160f81611660565b50565b6000818381151561161f57fe5b04905092915050565b60008083141561163b576000905061165a565b818302905081838281151561164c57fe5b0414151561165657fe5b8090505b92915050565b600073ffffffffffffffffffffffffffffffffffffffff168173ffffffffffffffffffffffffffffffffffffffff161415151561169c57600080fd5b8073ffffffffffffffffffffffffffffffffffffffff166000809054906101000a900473ffffffffffffffffffffffffffffffffffffffff1673ffffffffffffffffffffffffffffffffffffffff167f8be0079c531659141344cd1fd0a4f28419497f9722a3daafe3b4186f6b6457e060405160405180910390a3806000806101000a81548173ffffffffffffffffffffffffffffffffffffffff021916908373ffffffffffffffffffffffffffffffffffffffff160217905550505600a165627a7a72305820f38c2ae27334e0a7df49a947cb1eb2a9669f7150f5eff56d3d10c1163198e0bd0029",
  "source": "pragma solidity ^0.4.24;\n\n\nimport \"./Killable.sol\";\nimport 'openzeppelin-solidity/contracts/math/SafeMath.sol';\n\ncontract Transaction  is Killable {\n    using SafeMath for uint256;\n\n    // value of the transaction \n    uint256 public transaction_value;\n    // Counter party is the party which is on the receiving end of this transaction\n    address public counter_party;\n    // Name of the transaction contract\n    bytes32 public name;\n    // description of the transaction\n    bytes32 public desc;\n    // person insuring this contract\n    address public insurer;\n    // the current insurance coverage deposited in this contract\n    uint public current_coverage;\n    // maximum coverage allowed\n    uint public max_coverage;\n    // premium to be paid for the insurance\n    uint public premium_percent;\n    // owner\n    address public owner;\n\n    // DEMO PURPOSES ONLY:\n    string public demoClaimHash = \"notreal\";\n    //\n\n    enum TransactionState { Uninsured, Insured, Settled, ClaimPending }\n    TransactionState public contract_state;\n\n    event TransactionStatusChange(string message, TransactionState state);\n    event PremiumPaid(string message, uint value);\n\n    /// @dev basic constructor \n    /// @param  _counterparty counter party of contract\n    /// @param _name name of transaction\n    /// @param _desc description of transaction\n    /// @param _max_coverage maximum set converage\n    /// @param _prem premium of transaction\n    /// @param _owner owner of transaction\n    /// @param _value value of the transaction\n    /// @return new transaction\n    constructor(\n        address _counterparty, \n        bytes32 _name, \n        bytes32 _desc, \n        uint _max_coverage, \n        uint _prem,\n        address _owner,\n        uint _value) public payable {\n        \n        require(_counterparty!=0x0, \"Counter party cannot be blank\");\n        \n        counter_party = _counterparty;\n        owner = _owner;\n        max_coverage = _max_coverage;\n        premium_percent = _prem;\n        name = _name;\n        desc = _desc;\n        contract_state = TransactionState.Uninsured;\n        transaction_value = _value;\n    }\n\n    /// @dev The current state of the contract in the lifecycle\n    /// @return state, the state of the transaction\n    function getState() public view returns (TransactionState state) {\n        return contract_state;\n    }\n\n    /// @dev gets the transaction details \n    /// @return _name, name of transaction\n    /// @return _desc,  description of transaction\n    /// @return _value, value of transaction\n    /// @return _coverage, current coverage\n    /// @return _maxCoverage, maximum set coverage\n    /// @return _premium_percent, premium perecent\n    /// @return _counterParty, counterparty of the transaction\n    /// @return _insurer, insurer address\n    /// @return _status, the state of the contract\n    /// @return _owner, owner of this contract\n    /// @return _balance, balance of contract\n    function getTransactionDetails() public view returns (\n            bytes32 _name, \n            bytes32 _desc, \n            uint _value,\n            uint _coverage,\n            uint _maxCoverage,\n            uint _premium_percent,\n            address _counterParty,\n            address _insurer,\n            uint status,\n            address _owner,\n            uint _balance\n            ) {\n\n        return (\n            name, \n            desc, \n            transaction_value, \n            current_coverage, \n            max_coverage,\n            premium_percent,\n            counter_party,\n            insurer,\n            uint(contract_state),\n            owner,\n            uint(address(this).balance)\n        );\n    }\n\n    /// @dev insurer modifier\n    modifier onlyInsurer() {\n        if (msg.sender == insurer)\n        _;\n    }\n\n    /// @dev allows the currently insurer to transfer their rights to a new insurer\n    /// @param newOwner new insurer who is entitle to insurance settlment\n    function transferInsurer(address newOwner) public onlyInsurer  {\n        if (newOwner != address(0)) {\n            insurer = newOwner;\n        }\n    }\n\n    /// @dev insures the transaction locking up to the maximum coverage \n    /// @return _success \n    function insure() public payable returns (bool _success) {\n        require(contract_state!=TransactionState.Insured,\"Transaction is already insured\");\n        require(contract_state!=TransactionState.Settled, \"Transaction has already been settled.\");\n        require((msg.value) <= (SafeMath.mul(max_coverage,SafeMath.div(address(this).balance,100))),\"Value cannot exceed max coverage\");\n        \n        current_coverage += msg.value;\n        insurer = msg.sender;\n        contract_state = TransactionState.Insured;\n        emit TransactionStatusChange(\"The contract has been insured.\",contract_state);\n        return true;\n    }\n\n    /// @dev Begins a flow to settle the state of the escrow transaction, transfering the value\n    /// ---- of contract to the counter party, and if insured transfers the exisiting coverage\n    /// ---- and settlement fee is transfered to the insurer.  \n    /// @return _success, successfully insured the contract or not\n    function settle() public payable returns (bool _success) {\n        require(contract_state!=TransactionState.Settled, \"Transaction has already been settled.\"); \n        require(msg.sender == owner, \"Transacton can only be settled by claim owner.\");\n        \n        uint amount = transaction_value;\n        transaction_value = 0;\n        address(counter_party).transfer(amount);\n        if (contract_state==TransactionState.Insured)\n        {\n            uint insurer_payback = current_coverage+msg.value;\n            current_coverage = 0;\n            address(insurer).transfer(insurer_payback);\n            emit PremiumPaid(\"Insurance premium was paid.\",1);\n        } \n        contract_state = TransactionState.Settled;\n        emit TransactionStatusChange(\"The contract has been settled\", contract_state);\n        return true;\n    }\n\n    \n\n    /// @dev gets the balance of the contract\n    /// @return _balance balance of this contract\n    function getBalance() public view returns (uint _balance) {\n        return address(this).balance;\n    }\n\n      /// @dev fallback payable function\n    function() public payable {}\n\n\n    /// =================== NOT REAL =============================\n\n    /// @dev THIS IS FOR FUN PURPOSES ONLY & WOULD BE DELETED IN A REAL APP\n    /// ---- a true clams process would need to provide a real IPFS document hash\n    /// ---- and a set of validations would be made using perhaps an oracle\n    /// ---- in order to execute the claims payback\n    function fMakeDemoClaim(string proofHash) external  {\n        require(contract_state == TransactionState.Insured, \"Transaction must be insured to escalate to make a claim\");\n        require(keccak256(proofHash) == keccak256(demoClaimHash), \"Evidence is not substantial enough to escalate to claims process\");\n        // Proof has been provided yay, transfer coverage to defaultee!\n\n        address(counter_party).transfer(current_coverage);\n        current_coverage = 0;\n\n        contract_state = TransactionState.Settled;\n        emit TransactionStatusChange(\"The claim on the contract has been settled\", contract_state);\n    }\n\n    /// ==========================================================\n}",
  "sourcePath": "/Users/robert/dev/projects/eotim/contracts/Transaction.sol",
  "compiler": {
    "name": "solc",
    "version": "0.4.24+commit.e67f0147.Emscripten.clang"
  },
  "schemaVersion": "2.0.1",
  "updatedAt": "2018-08-22T03:35:43.992Z"
}