{
  "contractName": "Transaction",
  "abi": [
    {
      "constant": true,
      "inputs": [],
      "name": "name",
      "outputs": [
        {
          "name": "",
          "type": "bytes32"
        }
      ],
      "payable": false,
      "stateMutability": "view",
      "type": "function"
    },
    {
      "constant": true,
      "inputs": [],
      "name": "counterParty",
      "outputs": [
        {
          "name": "",
          "type": "address"
        }
      ],
      "payable": false,
      "stateMutability": "view",
      "type": "function"
    },
    {
      "constant": true,
      "inputs": [],
      "name": "value",
      "outputs": [
        {
          "name": "",
          "type": "uint256"
        }
      ],
      "payable": false,
      "stateMutability": "view",
      "type": "function"
    },
    {
      "constant": false,
      "inputs": [],
      "name": "kill",
      "outputs": [],
      "payable": false,
      "stateMutability": "nonpayable",
      "type": "function"
    },
    {
      "constant": true,
      "inputs": [],
      "name": "desc",
      "outputs": [
        {
          "name": "",
          "type": "bytes32"
        }
      ],
      "payable": false,
      "stateMutability": "view",
      "type": "function"
    },
    {
      "constant": true,
      "inputs": [],
      "name": "currentCoverage",
      "outputs": [
        {
          "name": "",
          "type": "uint256"
        }
      ],
      "payable": false,
      "stateMutability": "view",
      "type": "function"
    },
    {
      "constant": false,
      "inputs": [],
      "name": "renounceOwnership",
      "outputs": [],
      "payable": false,
      "stateMutability": "nonpayable",
      "type": "function"
    },
    {
      "constant": true,
      "inputs": [],
      "name": "owner",
      "outputs": [
        {
          "name": "",
          "type": "address"
        }
      ],
      "payable": false,
      "stateMutability": "view",
      "type": "function"
    },
    {
      "constant": true,
      "inputs": [],
      "name": "maxCoverage",
      "outputs": [
        {
          "name": "",
          "type": "uint256"
        }
      ],
      "payable": false,
      "stateMutability": "view",
      "type": "function"
    },
    {
      "constant": true,
      "inputs": [],
      "name": "insurer",
      "outputs": [
        {
          "name": "",
          "type": "address"
        }
      ],
      "payable": false,
      "stateMutability": "view",
      "type": "function"
    },
    {
      "constant": true,
      "inputs": [],
      "name": "premium",
      "outputs": [
        {
          "name": "",
          "type": "uint256"
        }
      ],
      "payable": false,
      "stateMutability": "view",
      "type": "function"
    },
    {
      "constant": true,
      "inputs": [],
      "name": "insuranceStatus",
      "outputs": [
        {
          "name": "",
          "type": "uint8"
        }
      ],
      "payable": false,
      "stateMutability": "view",
      "type": "function"
    },
    {
      "inputs": [
        {
          "name": "_counterparty",
          "type": "address"
        },
        {
          "name": "_name",
          "type": "bytes32"
        },
        {
          "name": "_desc",
          "type": "bytes32"
        },
        {
          "name": "_max_coverage",
          "type": "uint256"
        },
        {
          "name": "_prem",
          "type": "uint256"
        },
        {
          "name": "_owner",
          "type": "address"
        },
        {
          "name": "_value",
          "type": "uint256"
        }
      ],
      "payable": true,
      "stateMutability": "payable",
      "type": "constructor"
    },
    {
      "payable": true,
      "stateMutability": "payable",
      "type": "fallback"
    },
    {
      "anonymous": false,
      "inputs": [
        {
          "indexed": false,
          "name": "message",
          "type": "string"
        }
      ],
      "name": "TransactionInsured",
      "type": "event"
    },
    {
      "anonymous": false,
      "inputs": [
        {
          "indexed": true,
          "name": "previousOwner",
          "type": "address"
        }
      ],
      "name": "OwnershipRenounced",
      "type": "event"
    },
    {
      "anonymous": false,
      "inputs": [
        {
          "indexed": true,
          "name": "previousOwner",
          "type": "address"
        },
        {
          "indexed": true,
          "name": "newOwner",
          "type": "address"
        }
      ],
      "name": "OwnershipTransferred",
      "type": "event"
    },
    {
      "constant": true,
      "inputs": [],
      "name": "getTransactionDetails",
      "outputs": [
        {
          "name": "_name",
          "type": "bytes32"
        },
        {
          "name": "_desc",
          "type": "bytes32"
        },
        {
          "name": "_value",
          "type": "uint256"
        },
        {
          "name": "_coverage",
          "type": "uint256"
        },
        {
          "name": "_maxCoverage",
          "type": "uint256"
        },
        {
          "name": "_premium",
          "type": "uint256"
        },
        {
          "name": "_counterParty",
          "type": "address"
        },
        {
          "name": "_insurer",
          "type": "address"
        },
        {
          "name": "_insured",
          "type": "uint256"
        },
        {
          "name": "_owner",
          "type": "address"
        }
      ],
      "payable": false,
      "stateMutability": "view",
      "type": "function"
    },
    {
      "constant": false,
      "inputs": [
        {
          "name": "newOwner",
          "type": "address"
        }
      ],
      "name": "transferOwnership",
      "outputs": [],
      "payable": false,
      "stateMutability": "nonpayable",
      "type": "function"
    },
    {
      "constant": false,
      "inputs": [],
      "name": "insure",
      "outputs": [
        {
          "name": "_success",
          "type": "bool"
        }
      ],
      "payable": true,
      "stateMutability": "payable",
      "type": "function"
    },
    {
      "constant": false,
      "inputs": [],
      "name": "settle",
      "outputs": [],
      "payable": true,
      "stateMutability": "payable",
      "type": "function"
    }
  ],
  "bytecode": "0x608060405260405160e080610c3283398101806040528101908080519060200190929190805190602001909291908051906020019092919080519060200190929190805190602001909291908051906020019092919080519060200190929190505050336000806101000a81548173ffffffffffffffffffffffffffffffffffffffff021916908373ffffffffffffffffffffffffffffffffffffffff16021790555060008773ffffffffffffffffffffffffffffffffffffffff16141515156100c857600080fd5b86600260006101000a81548173ffffffffffffffffffffffffffffffffffffffff021916908373ffffffffffffffffffffffffffffffffffffffff16021790555081600960006101000a81548173ffffffffffffffffffffffffffffffffffffffff021916908373ffffffffffffffffffffffffffffffffffffffff1602179055508360078190555082600881905550856003816000191690555084600481600019169055506001600960146101000a81548160ff0219169083600181111561018d57fe5b02179055508060018190555050505050505050610a83806101af6000396000f3006080604052600436106100e6576000357c0100000000000000000000000000000000000000000000000000000000900463ffffffff16806306fdde03146100e857806311da60b41461011b5780632c453bdf146101255780633c3ce17d1461017c5780633fa4f2451461019e57806341c0e1b5146101c957806355f150f1146101e05780636296391314610213578063715018a61461023e5780638da5cb5b14610255578063968e893e146102ac578063d8a5cc03146102d7578063dbc837c5146103d5578063e0a73a931461042c578063f2fde38b14610457578063f9c319141461049a575b005b3480156100f457600080fd5b506100fd6104d3565b60405180826000191660001916815260200191505060405180910390f35b6101236104d9565b005b34801561013157600080fd5b5061013a6104db565b604051808273ffffffffffffffffffffffffffffffffffffffff1673ffffffffffffffffffffffffffffffffffffffff16815260200191505060405180910390f35b610184610501565b604051808215151515815260200191505060405180910390f35b3480156101aa57600080fd5b506101b36106ac565b6040518082815260200191505060405180910390f35b3480156101d557600080fd5b506101de6106b2565b005b3480156101ec57600080fd5b506101f5610747565b60405180826000191660001916815260200191505060405180910390f35b34801561021f57600080fd5b5061022861074d565b6040518082815260200191505060405180910390f35b34801561024a57600080fd5b50610253610753565b005b34801561026157600080fd5b5061026a610855565b604051808273ffffffffffffffffffffffffffffffffffffffff1673ffffffffffffffffffffffffffffffffffffffff16815260200191505060405180910390f35b3480156102b857600080fd5b506102c161087b565b6040518082815260200191505060405180910390f35b3480156102e357600080fd5b506102ec610881565b604051808b600019166000191681526020018a600019166000191681526020018981526020018881526020018781526020018681526020018573ffffffffffffffffffffffffffffffffffffffff1673ffffffffffffffffffffffffffffffffffffffff1681526020018473ffffffffffffffffffffffffffffffffffffffff1673ffffffffffffffffffffffffffffffffffffffff1681526020018381526020018273ffffffffffffffffffffffffffffffffffffffff1673ffffffffffffffffffffffffffffffffffffffff1681526020019a505050505050505050505060405180910390f35b3480156103e157600080fd5b506103ea610946565b604051808273ffffffffffffffffffffffffffffffffffffffff1673ffffffffffffffffffffffffffffffffffffffff16815260200191505060405180910390f35b34801561043857600080fd5b5061044161096c565b6040518082815260200191505060405180910390f35b34801561046357600080fd5b50610498600480360381019080803573ffffffffffffffffffffffffffffffffffffffff169060200190929190505050610972565b005b3480156104a657600080fd5b506104af610a44565b604051808260018111156104bf57fe5b60ff16815260200191505060405180910390f35b60035481565b565b600260009054906101000a900473ffffffffffffffffffffffffffffffffffffffff1681565b600080600181111561050f57fe5b600960149054906101000a900460ff16600181111561052a57fe5b141515156105a0576040517f08c379a000000000000000000000000000000000000000000000000000000000815260040180806020018281038252601e8152602001807f5472616e73616374696f6e20697320616c726561647920696e7375726564000081525060200191505060405180910390fd5b600a670de0b6b3a7640000600754028115156105b857fe5b043411151515610630576040517f08c379a00000000000000000000000000000000000000000000000000000000081526004018080602001828103825260208152602001807f56616c75652063616e6e6f7420657863656564206d617820636f76657261676581525060200191505060405180910390fd5b346006600082825401925050819055506000600960146101000a81548160ff0219169083600181111561065f57fe5b021790555033600560006101000a81548173ffffffffffffffffffffffffffffffffffffffff021916908373ffffffffffffffffffffffffffffffffffffffff1602179055506001905090565b60015481565b6000809054906101000a900473ffffffffffffffffffffffffffffffffffffffff1673ffffffffffffffffffffffffffffffffffffffff163373ffffffffffffffffffffffffffffffffffffffff1614151561070d57600080fd5b6000809054906101000a900473ffffffffffffffffffffffffffffffffffffffff1673ffffffffffffffffffffffffffffffffffffffff16ff5b60045481565b60065481565b6000809054906101000a900473ffffffffffffffffffffffffffffffffffffffff1673ffffffffffffffffffffffffffffffffffffffff163373ffffffffffffffffffffffffffffffffffffffff161415156107ae57600080fd5b6000809054906101000a900473ffffffffffffffffffffffffffffffffffffffff1673ffffffffffffffffffffffffffffffffffffffff167ff8df31144d9c2f0f6b59d69b8b98abd5459d07f2742c4df920b25aae33c6482060405160405180910390a260008060006101000a81548173ffffffffffffffffffffffffffffffffffffffff021916908373ffffffffffffffffffffffffffffffffffffffff160217905550565b600960009054906101000a900473ffffffffffffffffffffffffffffffffffffffff1681565b60075481565b600080600080600080600080600080600354600454600154600654600754600854600260009054906101000a900473ffffffffffffffffffffffffffffffffffffffff16600560009054906101000a900473ffffffffffffffffffffffffffffffffffffffff16600960149054906101000a900460ff16600181111561090357fe5b600960009054906101000a900473ffffffffffffffffffffffffffffffffffffffff16995099509950995099509950995099509950995090919293949596979899565b600560009054906101000a900473ffffffffffffffffffffffffffffffffffffffff1681565b60085481565b600560009054906101000a900473ffffffffffffffffffffffffffffffffffffffff1673ffffffffffffffffffffffffffffffffffffffff163373ffffffffffffffffffffffffffffffffffffffff161415610a4157600073ffffffffffffffffffffffffffffffffffffffff168173ffffffffffffffffffffffffffffffffffffffff16141515610a405780600560006101000a81548173ffffffffffffffffffffffffffffffffffffffff021916908373ffffffffffffffffffffffffffffffffffffffff1602179055505b5b50565b600960149054906101000a900460ff16815600a165627a7a72305820d4af4e8d5bf8768a6e0be95418a48a7feea12e353f1046c832794096bb21f74a0029",
  "source": "pragma solidity ^0.4.2;\n\n\nimport \"./Killable.sol\";\nimport 'openzeppelin-solidity/contracts/math/SafeMath.sol';\n\ncontract Transaction  is Killable {\n    using SafeMath for uint256;\n\n    // value of the transaction \n    uint256 public value;\n    // Counter party is the party which is on the receiving end of this transaction\n    address public counterParty;\n    // Name of the transaction contract\n    bytes32 public name;\n    // description of the transaction\n    bytes32 public desc;\n    // person insuring this contract\n    address public insurer;\n    // the current insurance coverage deposited in this contract\n    uint public currentCoverage;\n    // maximum coverage allowed\n    uint public maxCoverage;\n    // premium to be paid for the insurance\n    uint public premium;\n    // owner\n    address public owner;\n\n    Insurance public insuranceStatus;\n\n    event TransactionInsured(string message);\n    enum Insurance { Insured, Uninsured }\n\n    constructor(\n        address _counterparty, \n        bytes32 _name, \n        bytes32 _desc, \n        uint _max_coverage, \n        uint _prem,\n        address _owner,\n        uint _value\n        ) public payable {\n        require(_counterparty!=0x0);\n        counterParty = _counterparty;\n        owner = _owner;\n        maxCoverage = _max_coverage;\n        premium = _prem;\n        name = _name;\n        desc = _desc;\n        insuranceStatus = Insurance.Uninsured;\n        value = _value;\n    }\n\n\n    // Fallback function\n    function() public payable {}\n\n    // Only return relevant details for would be insurer\n    function getTransactionDetails() public constant returns (\n            bytes32 _name, \n            bytes32 _desc, \n            uint _value,\n            uint _coverage,\n            uint _maxCoverage,\n            uint _premium,\n            address _counterParty,\n            address _insurer,\n            uint _insured,\n            address _owner\n            ) {\n\n        return (\n            name, \n            desc, \n            value, \n            currentCoverage, \n            maxCoverage,\n            premium,\n            counterParty,\n            insurer,\n            uint(insuranceStatus),\n            owner\n        );\n    }\n\n\n    modifier onlyInsurer() {\n        if (msg.sender == insurer)\n        _;\n    }\n\n    function transferOwnership(address newOwner) public onlyInsurer  {\n        if (newOwner != address(0)) {\n            insurer = newOwner;\n        }\n    }\n\n\n    function insure() public payable returns (bool _success) {\n        require(insuranceStatus!=Insurance.Insured,\"Transaction is already insured\");\n        require((msg.value)<=(maxCoverage*1 ether)/10,\"Value cannot exceed max coverage\");\n        \n        currentCoverage += msg.value;\n        insuranceStatus = Insurance.Insured;\n        insurer = msg.sender;\n        return true;\n    }\n\n    function settle() public payable {\n        //TODO Settle contract and pay back insurer \n        // address(counterParty).transfer(value);\n        // if (insuranceStatus==Insurance.Insured) {\n        //     address(insurer).transfer(currentCoverage);\n        // }\n\n        return;\n    }\n\n\n}",
  "sourcePath": "/Users/robert/dev/projects/eotim/contracts/Transaction.sol",
  "compiler": {
    "name": "solc",
    "version": "0.4.24+commit.e67f0147.Emscripten.clang"
  },
  "schemaVersion": "2.0.1",
  "updatedAt": "2018-08-18T23:46:56.542Z"
}