{
  "contractName": "Transaction",
  "abi": [
    {
      "constant": true,
      "inputs": [],
      "name": "name",
      "outputs": [
        {
          "name": "",
          "type": "bytes32"
        }
      ],
      "payable": false,
      "stateMutability": "view",
      "type": "function"
    },
    {
      "constant": true,
      "inputs": [],
      "name": "counterParty",
      "outputs": [
        {
          "name": "",
          "type": "address"
        }
      ],
      "payable": false,
      "stateMutability": "view",
      "type": "function"
    },
    {
      "constant": false,
      "inputs": [],
      "name": "kill",
      "outputs": [],
      "payable": false,
      "stateMutability": "nonpayable",
      "type": "function"
    },
    {
      "constant": true,
      "inputs": [],
      "name": "desc",
      "outputs": [
        {
          "name": "",
          "type": "bytes32"
        }
      ],
      "payable": false,
      "stateMutability": "view",
      "type": "function"
    },
    {
      "constant": true,
      "inputs": [],
      "name": "currentCoverage",
      "outputs": [
        {
          "name": "",
          "type": "uint256"
        }
      ],
      "payable": false,
      "stateMutability": "view",
      "type": "function"
    },
    {
      "constant": true,
      "inputs": [],
      "name": "owner",
      "outputs": [
        {
          "name": "",
          "type": "address"
        }
      ],
      "payable": false,
      "stateMutability": "view",
      "type": "function"
    },
    {
      "constant": true,
      "inputs": [],
      "name": "maxCoverage",
      "outputs": [
        {
          "name": "",
          "type": "uint256"
        }
      ],
      "payable": false,
      "stateMutability": "view",
      "type": "function"
    },
    {
      "constant": true,
      "inputs": [],
      "name": "insurer",
      "outputs": [
        {
          "name": "",
          "type": "address"
        }
      ],
      "payable": false,
      "stateMutability": "view",
      "type": "function"
    },
    {
      "constant": true,
      "inputs": [],
      "name": "premium",
      "outputs": [
        {
          "name": "",
          "type": "uint256"
        }
      ],
      "payable": false,
      "stateMutability": "view",
      "type": "function"
    },
    {
      "constant": true,
      "inputs": [],
      "name": "insuranceStatus",
      "outputs": [
        {
          "name": "",
          "type": "uint8"
        }
      ],
      "payable": false,
      "stateMutability": "view",
      "type": "function"
    },
    {
      "inputs": [
        {
          "name": "_counterparty",
          "type": "address"
        },
        {
          "name": "_name",
          "type": "bytes32"
        },
        {
          "name": "_desc",
          "type": "bytes32"
        },
        {
          "name": "_max_coverage",
          "type": "uint256"
        },
        {
          "name": "_prem",
          "type": "uint256"
        },
        {
          "name": "_owner",
          "type": "address"
        }
      ],
      "payable": false,
      "stateMutability": "nonpayable",
      "type": "constructor"
    },
    {
      "payable": true,
      "stateMutability": "payable",
      "type": "fallback"
    },
    {
      "anonymous": false,
      "inputs": [
        {
          "indexed": false,
          "name": "message",
          "type": "string"
        }
      ],
      "name": "TransactionInsured",
      "type": "event"
    },
    {
      "constant": false,
      "inputs": [
        {
          "name": "_party",
          "type": "address"
        }
      ],
      "name": "setCounterParty",
      "outputs": [],
      "payable": false,
      "stateMutability": "nonpayable",
      "type": "function"
    },
    {
      "constant": true,
      "inputs": [],
      "name": "getTransactionDetails",
      "outputs": [
        {
          "name": "_name",
          "type": "bytes32"
        },
        {
          "name": "_desc",
          "type": "bytes32"
        },
        {
          "name": "_value",
          "type": "uint256"
        },
        {
          "name": "_coverage",
          "type": "uint256"
        },
        {
          "name": "_maxCoverage",
          "type": "uint256"
        },
        {
          "name": "_premium",
          "type": "uint256"
        },
        {
          "name": "_counterParty",
          "type": "address"
        },
        {
          "name": "_insurer",
          "type": "address"
        },
        {
          "name": "_insured",
          "type": "uint256"
        },
        {
          "name": "_owner",
          "type": "address"
        }
      ],
      "payable": false,
      "stateMutability": "view",
      "type": "function"
    },
    {
      "constant": false,
      "inputs": [
        {
          "name": "newOwner",
          "type": "address"
        }
      ],
      "name": "transferOwnership",
      "outputs": [],
      "payable": false,
      "stateMutability": "nonpayable",
      "type": "function"
    },
    {
      "constant": false,
      "inputs": [],
      "name": "insure",
      "outputs": [
        {
          "name": "_success",
          "type": "bool"
        }
      ],
      "payable": true,
      "stateMutability": "payable",
      "type": "function"
    },
    {
      "constant": false,
      "inputs": [
        {
          "name": "_coverage",
          "type": "uint256"
        }
      ],
      "name": "setMaxCoverage",
      "outputs": [],
      "payable": false,
      "stateMutability": "nonpayable",
      "type": "function"
    },
    {
      "constant": false,
      "inputs": [
        {
          "name": "_premium",
          "type": "uint256"
        }
      ],
      "name": "setPremium",
      "outputs": [],
      "payable": false,
      "stateMutability": "nonpayable",
      "type": "function"
    }
  ],
  "bytecode": "0x608060405234801561001057600080fd5b5060405160c080610c03833981018060405281019080805190602001909291908051906020019092919080519060200190929190805190602001909291908051906020019092919080519060200190929190505050336000806101000a81548173ffffffffffffffffffffffffffffffffffffffff021916908373ffffffffffffffffffffffffffffffffffffffff16021790555060008673ffffffffffffffffffffffffffffffffffffffff16141515156100cb57600080fd5b85600160006101000a81548173ffffffffffffffffffffffffffffffffffffffff021916908373ffffffffffffffffffffffffffffffffffffffff160217905550336000806101000a81548173ffffffffffffffffffffffffffffffffffffffff021916908373ffffffffffffffffffffffffffffffffffffffff1602179055508260068190555081600781905550846002816000191690555083600381600019169055506001600860006101000a81548160ff0219169083600181111561018f57fe5b0217905550505050505050610a5a806101a96000396000f3006080604052600436106100e6576000357c0100000000000000000000000000000000000000000000000000000000900463ffffffff16806306fdde03146100e857806310ec214f1461011b578063173416ae146101485780632c453bdf146101755780633c3ce17d146101cc57806341c0e1b5146101ee57806355f150f11461020557806362963913146102385780638da5cb5b14610263578063968e893e146102ba5780639ece77c8146102e5578063d8a5cc0314610328578063dbc837c514610426578063e0a73a931461047d578063f2fde38b146104a8578063f9c31914146104eb575b005b3480156100f457600080fd5b506100fd610524565b60405180826000191660001916815260200191505060405180910390f35b34801561012757600080fd5b506101466004803603810190808035906020019092919050505061052a565b005b34801561015457600080fd5b5061017360048036038101908080359060200190929190505050610599565b005b34801561018157600080fd5b5061018a6105f9565b604051808273ffffffffffffffffffffffffffffffffffffffff1673ffffffffffffffffffffffffffffffffffffffff16815260200191505060405180910390f35b6101d461061f565b604051808215151515815260200191505060405180910390f35b3480156101fa57600080fd5b506102036106e2565b005b34801561021157600080fd5b5061021a610773565b60405180826000191660001916815260200191505060405180910390f35b34801561024457600080fd5b5061024d610779565b6040518082815260200191505060405180910390f35b34801561026f57600080fd5b5061027861077f565b604051808273ffffffffffffffffffffffffffffffffffffffff1673ffffffffffffffffffffffffffffffffffffffff16815260200191505060405180910390f35b3480156102c657600080fd5b506102cf6107a4565b6040518082815260200191505060405180910390f35b3480156102f157600080fd5b50610326600480360381019080803573ffffffffffffffffffffffffffffffffffffffff1690602001909291905050506107aa565b005b34801561033457600080fd5b5061033d610844565b604051808b600019166000191681526020018a600019166000191681526020018981526020018881526020018781526020018681526020018573ffffffffffffffffffffffffffffffffffffffff1673ffffffffffffffffffffffffffffffffffffffff1681526020018473ffffffffffffffffffffffffffffffffffffffff1673ffffffffffffffffffffffffffffffffffffffff1681526020018381526020018273ffffffffffffffffffffffffffffffffffffffff1673ffffffffffffffffffffffffffffffffffffffff1681526020019a505050505050505050505060405180910390f35b34801561043257600080fd5b5061043b61091d565b604051808273ffffffffffffffffffffffffffffffffffffffff1673ffffffffffffffffffffffffffffffffffffffff16815260200191505060405180910390f35b34801561048957600080fd5b50610492610943565b6040518082815260200191505060405180910390f35b3480156104b457600080fd5b506104e9600480360381019080803573ffffffffffffffffffffffffffffffffffffffff169060200190929190505050610949565b005b3480156104f757600080fd5b50610500610a1b565b6040518082600181111561051057fe5b60ff16815260200191505060405180910390f35b60025481565b6000809054906101000a900473ffffffffffffffffffffffffffffffffffffffff1673ffffffffffffffffffffffffffffffffffffffff163373ffffffffffffffffffffffffffffffffffffffff1614156105965760008111151561058e57600080fd5b806007819055505b50565b6000809054906101000a900473ffffffffffffffffffffffffffffffffffffffff1673ffffffffffffffffffffffffffffffffffffffff163373ffffffffffffffffffffffffffffffffffffffff1614156105f657806006819055505b50565b600160009054906101000a900473ffffffffffffffffffffffffffffffffffffffff1681565b600080600181111561062d57fe5b600860009054906101000a900460ff16600181111561064857fe5b1415151561065557600080fd5b600654341115151561066657600080fd5b346005600082825401925050819055506000600860006101000a81548160ff0219169083600181111561069557fe5b021790555033600460006101000a81548173ffffffffffffffffffffffffffffffffffffffff021916908373ffffffffffffffffffffffffffffffffffffffff1602179055506001905090565b6000809054906101000a900473ffffffffffffffffffffffffffffffffffffffff1673ffffffffffffffffffffffffffffffffffffffff163373ffffffffffffffffffffffffffffffffffffffff161415610771576000809054906101000a900473ffffffffffffffffffffffffffffffffffffffff1673ffffffffffffffffffffffffffffffffffffffff16ff5b565b60035481565b60055481565b6000809054906101000a900473ffffffffffffffffffffffffffffffffffffffff1681565b60065481565b6000809054906101000a900473ffffffffffffffffffffffffffffffffffffffff1673ffffffffffffffffffffffffffffffffffffffff163373ffffffffffffffffffffffffffffffffffffffff1614156108415780600160006101000a81548173ffffffffffffffffffffffffffffffffffffffff021916908373ffffffffffffffffffffffffffffffffffffffff1602179055505b50565b6000806000806000806000806000806002546003543073ffffffffffffffffffffffffffffffffffffffff1631600554600654600754600160009054906101000a900473ffffffffffffffffffffffffffffffffffffffff16600460009054906101000a900473ffffffffffffffffffffffffffffffffffffffff16600860009054906101000a900460ff1660018111156108db57fe5b6000809054906101000a900473ffffffffffffffffffffffffffffffffffffffff16995099509950995099509950995099509950995090919293949596979899565b600460009054906101000a900473ffffffffffffffffffffffffffffffffffffffff1681565b60075481565b600460009054906101000a900473ffffffffffffffffffffffffffffffffffffffff1673ffffffffffffffffffffffffffffffffffffffff163373ffffffffffffffffffffffffffffffffffffffff161415610a1857600073ffffffffffffffffffffffffffffffffffffffff168173ffffffffffffffffffffffffffffffffffffffff16141515610a175780600460006101000a81548173ffffffffffffffffffffffffffffffffffffffff021916908373ffffffffffffffffffffffffffffffffffffffff1602179055505b5b50565b600860009054906101000a900460ff16815600a165627a7a723058205f569c3714adae6ef926f68489a82cb6ade8328a497864dc855773c870e722f20029",
  "source": "pragma solidity ^0.4.2;\n\n\nimport \"./Killable.sol\";\n\ncontract Transaction is Killable {\n    // Counter party is the party which is on the receiving end of this transaction\n    address public counterParty;\n    // Name of the transaction contract\n    bytes32 public name;\n    // description of the transaction\n    bytes32 public desc;\n    // person insuring this contract\n    address public insurer;\n    // the current insurance coverage deposited in this contract\n    uint public currentCoverage;\n    // maximum coverage allowed\n    uint public maxCoverage;\n    // premium to be paid for the insurance\n    uint public premium;\n\n    Insurance public insuranceStatus;\n\n    event TransactionInsured(string message);\n    enum Insurance { Insured, Uninsured }\n\n    constructor(\n        address _counterparty, \n        bytes32 _name, \n        bytes32 _desc, \n        uint _max_coverage, \n        uint _prem,\n        address _owner) public {\n        require(_counterparty!=0x0);\n        counterParty = _counterparty;\n        owner = msg.sender;\n        maxCoverage = _max_coverage;\n        premium = _prem;\n        name = _name;\n        desc = _desc;\n        insuranceStatus = Insurance.Uninsured;\n    }\n\n    function setCounterParty(address _party) public onlyOwner {\n        counterParty = _party;\n    }\n\n    // Fallback function\n    function() public payable {}\n\n    // Only return relevant details for would be insurer\n    function getTransactionDetails() public constant returns (\n            bytes32 _name, \n            bytes32 _desc, \n            uint _value,\n            uint _coverage,\n            uint _maxCoverage,\n            uint _premium,\n            address _counterParty,\n            address _insurer,\n            uint _insured,\n            address _owner\n            ) {\n\n        return (\n            name, \n            desc, \n            address(this).balance, \n            currentCoverage, \n            maxCoverage,\n            premium,\n            counterParty,\n            insurer,\n            uint(insuranceStatus),\n            owner\n        );\n    }\n\n\n    modifier onlyInsurer() {\n        if (msg.sender == insurer)\n        _;\n    }\n\n    function transferOwnership(address newOwner) public onlyInsurer  {\n        if (newOwner != address(0)) {\n            insurer = newOwner;\n        }\n    }\n\n\n    function insure() public payable returns (bool _success) {\n        require(insuranceStatus!=Insurance.Insured);\n        require((msg.value)<=maxCoverage);\n        \n        currentCoverage += msg.value;\n        insuranceStatus = Insurance.Insured;\n        insurer = msg.sender;\n        return true;\n    }\n\n\n\n    function setMaxCoverage(uint _coverage) onlyOwner public  {\n        maxCoverage = _coverage;\n    }\n\n    function setPremium(uint _premium) onlyOwner public {\n        require(_premium>0);\n        premium = _premium;\n    }\n\n\n}",
  "sourcePath": "/Users/robert/dev/projects/eotim/contracts/Transaction.sol",
  "compiler": {
    "name": "solc",
    "version": "0.4.24+commit.e67f0147.Emscripten.clang"
  },
  "schemaVersion": "2.0.1",
  "updatedAt": "2018-08-02T01:53:56.511Z"
}