{
  "contractName": "Transaction",
  "abi": [
    {
      "constant": true,
      "inputs": [],
      "name": "name",
      "outputs": [
        {
          "name": "",
          "type": "bytes32"
        }
      ],
      "payable": false,
      "stateMutability": "view",
      "type": "function"
    },
    {
      "constant": true,
      "inputs": [],
      "name": "counter_party",
      "outputs": [
        {
          "name": "",
          "type": "address"
        }
      ],
      "payable": false,
      "stateMutability": "view",
      "type": "function"
    },
    {
      "constant": false,
      "inputs": [],
      "name": "kill",
      "outputs": [],
      "payable": false,
      "stateMutability": "nonpayable",
      "type": "function"
    },
    {
      "constant": true,
      "inputs": [],
      "name": "contract_state",
      "outputs": [
        {
          "name": "",
          "type": "uint8"
        }
      ],
      "payable": false,
      "stateMutability": "view",
      "type": "function"
    },
    {
      "constant": true,
      "inputs": [],
      "name": "desc",
      "outputs": [
        {
          "name": "",
          "type": "bytes32"
        }
      ],
      "payable": false,
      "stateMutability": "view",
      "type": "function"
    },
    {
      "constant": false,
      "inputs": [],
      "name": "renounceOwnership",
      "outputs": [],
      "payable": false,
      "stateMutability": "nonpayable",
      "type": "function"
    },
    {
      "constant": true,
      "inputs": [],
      "name": "premium_percent",
      "outputs": [
        {
          "name": "",
          "type": "uint256"
        }
      ],
      "payable": false,
      "stateMutability": "view",
      "type": "function"
    },
    {
      "constant": true,
      "inputs": [],
      "name": "owner",
      "outputs": [
        {
          "name": "",
          "type": "address"
        }
      ],
      "payable": false,
      "stateMutability": "view",
      "type": "function"
    },
    {
      "constant": true,
      "inputs": [],
      "name": "transaction_value",
      "outputs": [
        {
          "name": "",
          "type": "uint256"
        }
      ],
      "payable": false,
      "stateMutability": "view",
      "type": "function"
    },
    {
      "constant": true,
      "inputs": [],
      "name": "current_coverage",
      "outputs": [
        {
          "name": "",
          "type": "uint256"
        }
      ],
      "payable": false,
      "stateMutability": "view",
      "type": "function"
    },
    {
      "constant": true,
      "inputs": [],
      "name": "insurer",
      "outputs": [
        {
          "name": "",
          "type": "address"
        }
      ],
      "payable": false,
      "stateMutability": "view",
      "type": "function"
    },
    {
      "constant": true,
      "inputs": [],
      "name": "max_coverage",
      "outputs": [
        {
          "name": "",
          "type": "uint256"
        }
      ],
      "payable": false,
      "stateMutability": "view",
      "type": "function"
    },
    {
      "constant": false,
      "inputs": [
        {
          "name": "_newOwner",
          "type": "address"
        }
      ],
      "name": "transferOwnership",
      "outputs": [],
      "payable": false,
      "stateMutability": "nonpayable",
      "type": "function"
    },
    {
      "inputs": [
        {
          "name": "_counterparty",
          "type": "address"
        },
        {
          "name": "_name",
          "type": "bytes32"
        },
        {
          "name": "_desc",
          "type": "bytes32"
        },
        {
          "name": "_max_coverage",
          "type": "uint256"
        },
        {
          "name": "_prem",
          "type": "uint256"
        },
        {
          "name": "_owner",
          "type": "address"
        },
        {
          "name": "_value",
          "type": "uint256"
        }
      ],
      "payable": true,
      "stateMutability": "payable",
      "type": "constructor"
    },
    {
      "payable": true,
      "stateMutability": "payable",
      "type": "fallback"
    },
    {
      "anonymous": false,
      "inputs": [
        {
          "indexed": false,
          "name": "message",
          "type": "string"
        },
        {
          "indexed": false,
          "name": "state",
          "type": "uint8"
        }
      ],
      "name": "TransactionStatusChange",
      "type": "event"
    },
    {
      "anonymous": false,
      "inputs": [
        {
          "indexed": false,
          "name": "message",
          "type": "string"
        },
        {
          "indexed": false,
          "name": "value",
          "type": "uint256"
        }
      ],
      "name": "PremiumPaid",
      "type": "event"
    },
    {
      "anonymous": false,
      "inputs": [
        {
          "indexed": true,
          "name": "previousOwner",
          "type": "address"
        }
      ],
      "name": "OwnershipRenounced",
      "type": "event"
    },
    {
      "anonymous": false,
      "inputs": [
        {
          "indexed": true,
          "name": "previousOwner",
          "type": "address"
        },
        {
          "indexed": true,
          "name": "newOwner",
          "type": "address"
        }
      ],
      "name": "OwnershipTransferred",
      "type": "event"
    },
    {
      "constant": true,
      "inputs": [],
      "name": "getState",
      "outputs": [
        {
          "name": "state",
          "type": "uint8"
        }
      ],
      "payable": false,
      "stateMutability": "view",
      "type": "function"
    },
    {
      "constant": true,
      "inputs": [],
      "name": "getTransactionDetails",
      "outputs": [
        {
          "name": "_name",
          "type": "bytes32"
        },
        {
          "name": "_desc",
          "type": "bytes32"
        },
        {
          "name": "_value",
          "type": "uint256"
        },
        {
          "name": "_coverage",
          "type": "uint256"
        },
        {
          "name": "_maxCoverage",
          "type": "uint256"
        },
        {
          "name": "_premium_percent",
          "type": "uint256"
        },
        {
          "name": "_counterParty",
          "type": "address"
        },
        {
          "name": "_insurer",
          "type": "address"
        },
        {
          "name": "status",
          "type": "uint256"
        },
        {
          "name": "_owner",
          "type": "address"
        },
        {
          "name": "_balance",
          "type": "uint256"
        }
      ],
      "payable": false,
      "stateMutability": "view",
      "type": "function"
    },
    {
      "constant": false,
      "inputs": [
        {
          "name": "newOwner",
          "type": "address"
        }
      ],
      "name": "transferInsurer",
      "outputs": [],
      "payable": false,
      "stateMutability": "nonpayable",
      "type": "function"
    },
    {
      "constant": false,
      "inputs": [],
      "name": "insure",
      "outputs": [
        {
          "name": "_success",
          "type": "bool"
        }
      ],
      "payable": true,
      "stateMutability": "payable",
      "type": "function"
    },
    {
      "constant": false,
      "inputs": [],
      "name": "settle",
      "outputs": [
        {
          "name": "_success",
          "type": "bool"
        }
      ],
      "payable": true,
      "stateMutability": "payable",
      "type": "function"
    },
    {
      "constant": true,
      "inputs": [],
      "name": "getBalance",
      "outputs": [
        {
          "name": "_balance",
          "type": "uint256"
        }
      ],
      "payable": false,
      "stateMutability": "view",
      "type": "function"
    }
  ],
  "bytecode": "0x608060405260405160e0806114e283398101806040528101908080519060200190929190805190602001909291908051906020019092919080519060200190929190805190602001909291908051906020019092919080519060200190929190505050336000806101000a81548173ffffffffffffffffffffffffffffffffffffffff021916908373ffffffffffffffffffffffffffffffffffffffff16021790555060008773ffffffffffffffffffffffffffffffffffffffff1614151515610131576040517f08c379a000000000000000000000000000000000000000000000000000000000815260040180806020018281038252601d8152602001807f436f756e7465722070617274792063616e6e6f7420626520626c616e6b00000081525060200191505060405180910390fd5b86600260006101000a81548173ffffffffffffffffffffffffffffffffffffffff021916908373ffffffffffffffffffffffffffffffffffffffff16021790555081600960006101000a81548173ffffffffffffffffffffffffffffffffffffffff021916908373ffffffffffffffffffffffffffffffffffffffff1602179055508360078190555082600881905550856003816000191690555084600481600019169055506000600960146101000a81548160ff021916908360028111156101f657fe5b021790555080600181905550505050505050506112ca806102186000396000f300608060405260043610610107576000357c0100000000000000000000000000000000000000000000000000000000900463ffffffff16806306fdde03146101095780630a5d2fc81461013c57806311da60b41461019357806312065fe0146101b55780631865c57d146101e05780633c3ce17d146102195780634173fb9d1461023b57806341c0e1b51461027e5780634aaf6b861461029557806355f150f1146102ce578063715018a614610301578063830361b6146103185780638da5cb5b14610343578063a4da04e41461039a578063c84d7087146103c5578063d8a5cc03146103f0578063dbc837c5146104f5578063eec8cb921461054c578063f2fde38b14610577575b005b34801561011557600080fd5b5061011e6105ba565b60405180826000191660001916815260200191505060405180910390f35b34801561014857600080fd5b506101516105c0565b604051808273ffffffffffffffffffffffffffffffffffffffff1673ffffffffffffffffffffffffffffffffffffffff16815260200191505060405180910390f35b61019b6105e6565b604051808215151515815260200191505060405180910390f35b3480156101c157600080fd5b506101ca6109e1565b6040518082815260200191505060405180910390f35b3480156101ec57600080fd5b506101f5610a00565b6040518082600281111561020557fe5b60ff16815260200191505060405180910390f35b610221610a17565b604051808215151515815260200191505060405180910390f35b34801561024757600080fd5b5061027c600480360381019080803573ffffffffffffffffffffffffffffffffffffffff169060200190929190505050610d27565b005b34801561028a57600080fd5b50610293610df9565b005b3480156102a157600080fd5b506102aa610e8e565b604051808260028111156102ba57fe5b60ff16815260200191505060405180910390f35b3480156102da57600080fd5b506102e3610ea1565b60405180826000191660001916815260200191505060405180910390f35b34801561030d57600080fd5b50610316610ea7565b005b34801561032457600080fd5b5061032d610fa9565b6040518082815260200191505060405180910390f35b34801561034f57600080fd5b50610358610faf565b604051808273ffffffffffffffffffffffffffffffffffffffff1673ffffffffffffffffffffffffffffffffffffffff16815260200191505060405180910390f35b3480156103a657600080fd5b506103af610fd5565b6040518082815260200191505060405180910390f35b3480156103d157600080fd5b506103da610fdb565b6040518082815260200191505060405180910390f35b3480156103fc57600080fd5b50610405610fe1565b604051808c600019166000191681526020018b600019166000191681526020018a81526020018981526020018881526020018781526020018673ffffffffffffffffffffffffffffffffffffffff1673ffffffffffffffffffffffffffffffffffffffff1681526020018573ffffffffffffffffffffffffffffffffffffffff1673ffffffffffffffffffffffffffffffffffffffff1681526020018481526020018373ffffffffffffffffffffffffffffffffffffffff1673ffffffffffffffffffffffffffffffffffffffff1681526020018281526020019b50505050505050505050505060405180910390f35b34801561050157600080fd5b5061050a6110c3565b604051808273ffffffffffffffffffffffffffffffffffffffff1673ffffffffffffffffffffffffffffffffffffffff16815260200191505060405180910390f35b34801561055857600080fd5b506105616110e9565b6040518082815260200191505060405180910390f35b34801561058357600080fd5b506105b8600480360381019080803573ffffffffffffffffffffffffffffffffffffffff1690602001909291905050506110ef565b005b60035481565b600260009054906101000a900473ffffffffffffffffffffffffffffffffffffffff1681565b60008060006002808111156105f757fe5b600960149054906101000a900460ff16600281111561061257fe5b141515156106ae576040517f08c379a00000000000000000000000000000000000000000000000000000000081526004018080602001828103825260258152602001807f5472616e73616374696f6e2068617320616c7265616479206265656e2073657481526020017f746c65642e00000000000000000000000000000000000000000000000000000081525060400191505060405180910390fd5b600960009054906101000a900473ffffffffffffffffffffffffffffffffffffffff1673ffffffffffffffffffffffffffffffffffffffff163373ffffffffffffffffffffffffffffffffffffffff16141515610799576040517f08c379a000000000000000000000000000000000000000000000000000000000815260040180806020018281038252602e8152602001807f5472616e736163746f6e2063616e206f6e6c7920626520736574746c6564206281526020017f7920636c61696d206f776e65722e00000000000000000000000000000000000081525060400191505060405180910390fd5b60015491506000600181905550600260009054906101000a900473ffffffffffffffffffffffffffffffffffffffff1673ffffffffffffffffffffffffffffffffffffffff166108fc839081150290604051600060405180830381858888f1935050505015801561080e573d6000803e3d6000fd5b506001600281111561081c57fe5b600960149054906101000a900460ff16600281111561083757fe5b141561092757346006540190506000600681905550600560009054906101000a900473ffffffffffffffffffffffffffffffffffffffff1673ffffffffffffffffffffffffffffffffffffffff166108fc829081150290604051600060405180830381858888f193505050501580156108b4573d6000803e3d6000fd5b507f77980fe590ec3aaa964f83e59bc67228e62b66441607d8ac9eb58645d0a2cc6a600160405180806020018381526020018281038252601b8152602001807f496e737572616e6365207072656d69756d2077617320706169642e00000000008152506020019250505060405180910390a15b6002600960146101000a81548160ff0219169083600281111561094657fe5b02179055507fbe71ffd27116cb4f6c570ac59edc69736978c960d2995ff2164848cfe24ec449600960149054906101000a900460ff16604051808060200183600281111561099057fe5b60ff1681526020018281038252601d8152602001807f54686520636f6e747261637420686173206265656e20736574746c65640000008152506020019250505060405180910390a160019250505090565b60003073ffffffffffffffffffffffffffffffffffffffff1631905090565b6000600960149054906101000a900460ff16905090565b600060016002811115610a2657fe5b600960149054906101000a900460ff166002811115610a4157fe5b14151515610ab7576040517f08c379a000000000000000000000000000000000000000000000000000000000815260040180806020018281038252601e8152602001807f5472616e73616374696f6e20697320616c726561647920696e7375726564000081525060200191505060405180910390fd5b600280811115610ac357fe5b600960149054906101000a900460ff166002811115610ade57fe5b14151515610b7a576040517f08c379a00000000000000000000000000000000000000000000000000000000081526004018080602001828103825260258152602001807f5472616e73616374696f6e2068617320616c7265616479206265656e2073657481526020017f746c65642e00000000000000000000000000000000000000000000000000000081525060400191505060405180910390fd5b610ba7600754610ba23073ffffffffffffffffffffffffffffffffffffffff16316064611156565b61116c565b3411151515610c1e576040517f08c379a00000000000000000000000000000000000000000000000000000000081526004018080602001828103825260208152602001807f56616c75652063616e6e6f7420657863656564206d617820636f76657261676581525060200191505060405180910390fd5b3460066000828254019250508190555033600560006101000a81548173ffffffffffffffffffffffffffffffffffffffff021916908373ffffffffffffffffffffffffffffffffffffffff1602179055506001600960146101000a81548160ff02191690836002811115610c8e57fe5b02179055507fbe71ffd27116cb4f6c570ac59edc69736978c960d2995ff2164848cfe24ec449600960149054906101000a900460ff166040518080602001836002811115610cd857fe5b60ff1681526020018281038252601e8152602001807f54686520636f6e747261637420686173206265656e20696e73757265642e00008152506020019250505060405180910390a16001905090565b600560009054906101000a900473ffffffffffffffffffffffffffffffffffffffff1673ffffffffffffffffffffffffffffffffffffffff163373ffffffffffffffffffffffffffffffffffffffff161415610df657600073ffffffffffffffffffffffffffffffffffffffff168173ffffffffffffffffffffffffffffffffffffffff16141515610df55780600560006101000a81548173ffffffffffffffffffffffffffffffffffffffff021916908373ffffffffffffffffffffffffffffffffffffffff1602179055505b5b50565b6000809054906101000a900473ffffffffffffffffffffffffffffffffffffffff1673ffffffffffffffffffffffffffffffffffffffff163373ffffffffffffffffffffffffffffffffffffffff16141515610e5457600080fd5b6000809054906101000a900473ffffffffffffffffffffffffffffffffffffffff1673ffffffffffffffffffffffffffffffffffffffff16ff5b600960149054906101000a900460ff1681565b60045481565b6000809054906101000a900473ffffffffffffffffffffffffffffffffffffffff1673ffffffffffffffffffffffffffffffffffffffff163373ffffffffffffffffffffffffffffffffffffffff16141515610f0257600080fd5b6000809054906101000a900473ffffffffffffffffffffffffffffffffffffffff1673ffffffffffffffffffffffffffffffffffffffff167ff8df31144d9c2f0f6b59d69b8b98abd5459d07f2742c4df920b25aae33c6482060405160405180910390a260008060006101000a81548173ffffffffffffffffffffffffffffffffffffffff021916908373ffffffffffffffffffffffffffffffffffffffff160217905550565b60085481565b600960009054906101000a900473ffffffffffffffffffffffffffffffffffffffff1681565b60015481565b60065481565b6000806000806000806000806000806000600354600454600154600654600754600854600260009054906101000a900473ffffffffffffffffffffffffffffffffffffffff16600560009054906101000a900473ffffffffffffffffffffffffffffffffffffffff16600960149054906101000a900460ff16600281111561106557fe5b600960009054906101000a900473ffffffffffffffffffffffffffffffffffffffff163073ffffffffffffffffffffffffffffffffffffffff16319a509a509a509a509a509a509a509a509a509a509a50909192939495969798999a565b600560009054906101000a900473ffffffffffffffffffffffffffffffffffffffff1681565b60075481565b6000809054906101000a900473ffffffffffffffffffffffffffffffffffffffff1673ffffffffffffffffffffffffffffffffffffffff163373ffffffffffffffffffffffffffffffffffffffff1614151561114a57600080fd5b611153816111a4565b50565b6000818381151561116357fe5b04905092915050565b60008083141561117f576000905061119e565b818302905081838281151561119057fe5b0414151561119a57fe5b8090505b92915050565b600073ffffffffffffffffffffffffffffffffffffffff168173ffffffffffffffffffffffffffffffffffffffff16141515156111e057600080fd5b8073ffffffffffffffffffffffffffffffffffffffff166000809054906101000a900473ffffffffffffffffffffffffffffffffffffffff1673ffffffffffffffffffffffffffffffffffffffff167f8be0079c531659141344cd1fd0a4f28419497f9722a3daafe3b4186f6b6457e060405160405180910390a3806000806101000a81548173ffffffffffffffffffffffffffffffffffffffff021916908373ffffffffffffffffffffffffffffffffffffffff160217905550505600a165627a7a723058205c2aa3363dba2379a48e9a5c83b0a09dfea77e3bd62af5c7a2c89100539e10ed0029",
  "source": "pragma solidity ^0.4.24;\n\n\nimport \"./Killable.sol\";\nimport 'openzeppelin-solidity/contracts/math/SafeMath.sol';\n\ncontract Transaction  is Killable {\n    using SafeMath for uint256;\n\n    // value of the transaction \n    uint256 public transaction_value;\n    // Counter party is the party which is on the receiving end of this transaction\n    address public counter_party;\n    // Name of the transaction contract\n    bytes32 public name;\n    // description of the transaction\n    bytes32 public desc;\n    // person insuring this contract\n    address public insurer;\n    // the current insurance coverage deposited in this contract\n    uint public current_coverage;\n    // maximum coverage allowed\n    uint public max_coverage;\n    // premium to be paid for the insurance\n    uint public premium_percent;\n    // owner\n    address public owner;\n\n    enum TransactionState { Uninsured, Insured, Settled }\n    TransactionState public contract_state;\n\n    event TransactionStatusChange(string message, TransactionState state);\n    event PremiumPaid(string message, uint value);\n\n    /// @dev basic constructor \n    /// @param  _counterparty counter party of contract\n    /// @param _name name of transaction\n    /// @param _desc description of transaction\n    /// @param _max_coverage maximum set converage\n    /// @param _prem premium of transaction\n    /// @param _owner owner of transaction\n    /// @param _value value of the transaction\n    /// @return new transaction\n    constructor(\n        address _counterparty, \n        bytes32 _name, \n        bytes32 _desc, \n        uint _max_coverage, \n        uint _prem,\n        address _owner,\n        uint _value) public payable {\n        \n        require(_counterparty!=0x0, \"Counter party cannot be blank\");\n        \n        counter_party = _counterparty;\n        owner = _owner;\n        max_coverage = _max_coverage;\n        premium_percent = _prem;\n        name = _name;\n        desc = _desc;\n        contract_state = TransactionState.Uninsured;\n        transaction_value = _value;\n    }\n\n    /// @dev The current state of the contract in the lifecycle\n    /// @return state, the state of the transaction\n    function getState() public view returns (TransactionState state) {\n        return contract_state;\n    }\n\n    /// @dev gets the transaction details \n    /// @return _name, name of transaction\n    /// @return _desc,  description of transaction\n    /// @return _value, value of transaction\n    /// @return _coverage, current coverage\n    /// @return _maxCoverage, maximum set coverage\n    /// @return _premium_percent, premium perecent\n    /// @return _counterParty, counterparty of the transaction\n    /// @return _insurer, insurer address\n    /// @return _status, the state of the contract\n    /// @return _owner, owner of this contract\n    /// @return _balance, balance of contract\n    function getTransactionDetails() public view returns (\n            bytes32 _name, \n            bytes32 _desc, \n            uint _value,\n            uint _coverage,\n            uint _maxCoverage,\n            uint _premium_percent,\n            address _counterParty,\n            address _insurer,\n            uint status,\n            address _owner,\n            uint _balance\n            ) {\n\n        return (\n            name, \n            desc, \n            transaction_value, \n            current_coverage, \n            max_coverage,\n            premium_percent,\n            counter_party,\n            insurer,\n            uint(contract_state),\n            owner,\n            uint(address(this).balance)\n        );\n    }\n\n    /// @dev insurer modifier\n    modifier onlyInsurer() {\n        if (msg.sender == insurer)\n        _;\n    }\n\n    /// @dev allows the currently insurer to transfer their rights to a new insurer\n    /// @param newOwner new insurer who is entitle to insurance settlment\n    function transferInsurer(address newOwner) public onlyInsurer  {\n        if (newOwner != address(0)) {\n            insurer = newOwner;\n        }\n    }\n\n    /// @dev insures the transaction locking up to the maximum coverage \n    /// @return _success \n    function insure() public payable returns (bool _success) {\n        require(contract_state!=TransactionState.Insured,\"Transaction is already insured\");\n        require(contract_state!=TransactionState.Settled, \"Transaction has already been settled.\");\n        require((msg.value) <= (SafeMath.mul(max_coverage,SafeMath.div(address(this).balance,100))),\"Value cannot exceed max coverage\");\n        \n        current_coverage += msg.value;\n        insurer = msg.sender;\n        contract_state = TransactionState.Insured;\n        emit TransactionStatusChange(\"The contract has been insured.\",contract_state);\n        return true;\n    }\n\n    /// @dev Begins a flow to settle the state of the escrow transaction, transfering the value\n    /// ---- of contract to the counter party, and if insured transfers the exisiting coverage\n    /// ---- and settlement fee is transfered to the insurer.  \n    /// @return _success, successfully insured the contract or not\n    function settle() public payable returns (bool _success) {\n        require(contract_state!=TransactionState.Settled, \"Transaction has already been settled.\"); \n        require(msg.sender == owner, \"Transacton can only be settled by claim owner.\");\n        \n        uint amount = transaction_value;\n        transaction_value = 0;\n        address(counter_party).transfer(amount);\n        if (contract_state==TransactionState.Insured)\n        {\n            uint insurer_payback = current_coverage+msg.value;\n            current_coverage = 0;\n            address(insurer).transfer(insurer_payback);\n            emit PremiumPaid(\"Insurance premium was paid.\",1);\n        } \n        contract_state = TransactionState.Settled;\n        emit TransactionStatusChange(\"The contract has been settled\", contract_state);\n        return true;\n    }\n\n    //TODO Claims \n    // function makeClaim() {}\n\n    /// @dev gets the balance of the contract\n    /// @return _balance balance of this contract\n    function getBalance() public view returns (uint _balance) {\n        return address(this).balance;\n    }\n\n      /// @dev fallback payable function\n    function() public payable {}\n\n}",
  "sourcePath": "/Users/robert/dev/projects/eotim/contracts/Transaction.sol",
  "compiler": {
    "name": "solc",
    "version": "0.4.24+commit.e67f0147.Emscripten.clang"
  },
  "schemaVersion": "2.0.1",
  "updatedAt": "2018-08-21T04:35:47.855Z"
}