{
  "contractName": "Transaction",
  "abi": [
    {
      "constant": true,
      "inputs": [],
      "name": "name",
      "outputs": [
        {
          "name": "",
          "type": "bytes32"
        }
      ],
      "payable": false,
      "stateMutability": "view",
      "type": "function"
    },
    {
      "constant": true,
      "inputs": [],
      "name": "counter_party",
      "outputs": [
        {
          "name": "",
          "type": "address"
        }
      ],
      "payable": false,
      "stateMutability": "view",
      "type": "function"
    },
    {
      "constant": false,
      "inputs": [],
      "name": "kill",
      "outputs": [],
      "payable": false,
      "stateMutability": "nonpayable",
      "type": "function"
    },
    {
      "constant": true,
      "inputs": [],
      "name": "desc",
      "outputs": [
        {
          "name": "",
          "type": "bytes32"
        }
      ],
      "payable": false,
      "stateMutability": "view",
      "type": "function"
    },
    {
      "constant": false,
      "inputs": [],
      "name": "renounceOwnership",
      "outputs": [],
      "payable": false,
      "stateMutability": "nonpayable",
      "type": "function"
    },
    {
      "constant": true,
      "inputs": [],
      "name": "premium_percent",
      "outputs": [
        {
          "name": "",
          "type": "uint256"
        }
      ],
      "payable": false,
      "stateMutability": "view",
      "type": "function"
    },
    {
      "constant": true,
      "inputs": [],
      "name": "premium_payout",
      "outputs": [
        {
          "name": "",
          "type": "uint256"
        }
      ],
      "payable": false,
      "stateMutability": "view",
      "type": "function"
    },
    {
      "constant": true,
      "inputs": [],
      "name": "owner",
      "outputs": [
        {
          "name": "",
          "type": "address"
        }
      ],
      "payable": false,
      "stateMutability": "view",
      "type": "function"
    },
    {
      "constant": true,
      "inputs": [],
      "name": "transaction_value",
      "outputs": [
        {
          "name": "",
          "type": "uint256"
        }
      ],
      "payable": false,
      "stateMutability": "view",
      "type": "function"
    },
    {
      "constant": true,
      "inputs": [],
      "name": "current_coverage",
      "outputs": [
        {
          "name": "",
          "type": "uint256"
        }
      ],
      "payable": false,
      "stateMutability": "view",
      "type": "function"
    },
    {
      "constant": true,
      "inputs": [],
      "name": "insurer",
      "outputs": [
        {
          "name": "",
          "type": "address"
        }
      ],
      "payable": false,
      "stateMutability": "view",
      "type": "function"
    },
    {
      "constant": true,
      "inputs": [],
      "name": "max_coverage",
      "outputs": [
        {
          "name": "",
          "type": "uint256"
        }
      ],
      "payable": false,
      "stateMutability": "view",
      "type": "function"
    },
    {
      "constant": false,
      "inputs": [
        {
          "name": "_newOwner",
          "type": "address"
        }
      ],
      "name": "transferOwnership",
      "outputs": [],
      "payable": false,
      "stateMutability": "nonpayable",
      "type": "function"
    },
    {
      "constant": true,
      "inputs": [],
      "name": "insuranceStatus",
      "outputs": [
        {
          "name": "",
          "type": "uint8"
        }
      ],
      "payable": false,
      "stateMutability": "view",
      "type": "function"
    },
    {
      "inputs": [
        {
          "name": "_counterparty",
          "type": "address"
        },
        {
          "name": "_name",
          "type": "bytes32"
        },
        {
          "name": "_desc",
          "type": "bytes32"
        },
        {
          "name": "_max_coverage",
          "type": "uint256"
        },
        {
          "name": "_prem",
          "type": "uint256"
        },
        {
          "name": "_owner",
          "type": "address"
        },
        {
          "name": "_value",
          "type": "uint256"
        }
      ],
      "payable": true,
      "stateMutability": "payable",
      "type": "constructor"
    },
    {
      "payable": true,
      "stateMutability": "payable",
      "type": "fallback"
    },
    {
      "anonymous": false,
      "inputs": [
        {
          "indexed": false,
          "name": "message",
          "type": "string"
        },
        {
          "indexed": false,
          "name": "state",
          "type": "uint8"
        }
      ],
      "name": "TransactionStatusChange",
      "type": "event"
    },
    {
      "anonymous": false,
      "inputs": [
        {
          "indexed": false,
          "name": "message",
          "type": "string"
        },
        {
          "indexed": false,
          "name": "value",
          "type": "uint256"
        }
      ],
      "name": "PremiumPaid",
      "type": "event"
    },
    {
      "anonymous": false,
      "inputs": [
        {
          "indexed": true,
          "name": "previousOwner",
          "type": "address"
        }
      ],
      "name": "OwnershipRenounced",
      "type": "event"
    },
    {
      "anonymous": false,
      "inputs": [
        {
          "indexed": true,
          "name": "previousOwner",
          "type": "address"
        },
        {
          "indexed": true,
          "name": "newOwner",
          "type": "address"
        }
      ],
      "name": "OwnershipTransferred",
      "type": "event"
    },
    {
      "constant": true,
      "inputs": [],
      "name": "getState",
      "outputs": [
        {
          "name": "state",
          "type": "uint8"
        }
      ],
      "payable": false,
      "stateMutability": "view",
      "type": "function"
    },
    {
      "constant": true,
      "inputs": [],
      "name": "getTransactionDetails",
      "outputs": [
        {
          "name": "_name",
          "type": "bytes32"
        },
        {
          "name": "_desc",
          "type": "bytes32"
        },
        {
          "name": "_value",
          "type": "uint256"
        },
        {
          "name": "_coverage",
          "type": "uint256"
        },
        {
          "name": "_maxCoverage",
          "type": "uint256"
        },
        {
          "name": "_premium_percent",
          "type": "uint256"
        },
        {
          "name": "_counterParty",
          "type": "address"
        },
        {
          "name": "_insurer",
          "type": "address"
        },
        {
          "name": "status",
          "type": "uint256"
        },
        {
          "name": "_owner",
          "type": "address"
        },
        {
          "name": "_balance",
          "type": "uint256"
        }
      ],
      "payable": false,
      "stateMutability": "view",
      "type": "function"
    },
    {
      "constant": false,
      "inputs": [
        {
          "name": "newOwner",
          "type": "address"
        }
      ],
      "name": "transferInsurer",
      "outputs": [],
      "payable": false,
      "stateMutability": "nonpayable",
      "type": "function"
    },
    {
      "constant": false,
      "inputs": [],
      "name": "insure",
      "outputs": [
        {
          "name": "_success",
          "type": "bool"
        }
      ],
      "payable": true,
      "stateMutability": "payable",
      "type": "function"
    },
    {
      "constant": false,
      "inputs": [],
      "name": "settle",
      "outputs": [
        {
          "name": "_success",
          "type": "bool"
        }
      ],
      "payable": true,
      "stateMutability": "payable",
      "type": "function"
    },
    {
      "constant": true,
      "inputs": [],
      "name": "getBalance",
      "outputs": [
        {
          "name": "",
          "type": "uint256"
        }
      ],
      "payable": false,
      "stateMutability": "view",
      "type": "function"
    }
  ],
  "bytecode": "0x608060405260405160e0806114c383398101806040528101908080519060200190929190805190602001909291908051906020019092919080519060200190929190805190602001909291908051906020019092919080519060200190929190505050336000806101000a81548173ffffffffffffffffffffffffffffffffffffffff021916908373ffffffffffffffffffffffffffffffffffffffff16021790555060008773ffffffffffffffffffffffffffffffffffffffff16141515156100c857600080fd5b86600260006101000a81548173ffffffffffffffffffffffffffffffffffffffff021916908373ffffffffffffffffffffffffffffffffffffffff16021790555081600960006101000a81548173ffffffffffffffffffffffffffffffffffffffff021916908373ffffffffffffffffffffffffffffffffffffffff1602179055508360078190555082600881905550856003816000191690555084600481600019169055506000600b60006101000a81548160ff0219169083600281111561018d57fe5b02179055508060018190555050505050505050611314806101af6000396000f300608060405260043610610112576000357c0100000000000000000000000000000000000000000000000000000000900463ffffffff16806306fdde03146101145780630a5d2fc81461014757806311da60b41461019e57806312065fe0146101c05780631865c57d146101eb5780633c3ce17d146102245780634173fb9d1461024657806341c0e1b51461028957806355f150f1146102a0578063715018a6146102d3578063830361b6146102ea57806388ac429e146103155780638da5cb5b14610340578063a4da04e414610397578063c84d7087146103c2578063d8a5cc03146103ed578063dbc837c5146104f2578063eec8cb9214610549578063f2fde38b14610574578063f9c31914146105b7575b005b34801561012057600080fd5b506101296105f0565b60405180826000191660001916815260200191505060405180910390f35b34801561015357600080fd5b5061015c6105f6565b604051808273ffffffffffffffffffffffffffffffffffffffff1673ffffffffffffffffffffffffffffffffffffffff16815260200191505060405180910390f35b6101a661061c565b604051808215151515815260200191505060405180910390f35b3480156101cc57600080fd5b506101d5610a0f565b6040518082815260200191505060405180910390f35b3480156101f757600080fd5b50610200610a2e565b6040518082600281111561021057fe5b60ff16815260200191505060405180910390f35b61022c610a45565b604051808215151515815260200191505060405180910390f35b34801561025257600080fd5b50610287600480360381019080803573ffffffffffffffffffffffffffffffffffffffff169060200190929190505050610d6b565b005b34801561029557600080fd5b5061029e610e3d565b005b3480156102ac57600080fd5b506102b5610ed2565b60405180826000191660001916815260200191505060405180910390f35b3480156102df57600080fd5b506102e8610ed8565b005b3480156102f657600080fd5b506102ff610fda565b6040518082815260200191505060405180910390f35b34801561032157600080fd5b5061032a610fe0565b6040518082815260200191505060405180910390f35b34801561034c57600080fd5b50610355610fe6565b604051808273ffffffffffffffffffffffffffffffffffffffff1673ffffffffffffffffffffffffffffffffffffffff16815260200191505060405180910390f35b3480156103a357600080fd5b506103ac61100c565b6040518082815260200191505060405180910390f35b3480156103ce57600080fd5b506103d7611012565b6040518082815260200191505060405180910390f35b3480156103f957600080fd5b50610402611018565b604051808c600019166000191681526020018b600019166000191681526020018a81526020018981526020018881526020018781526020018673ffffffffffffffffffffffffffffffffffffffff1673ffffffffffffffffffffffffffffffffffffffff1681526020018573ffffffffffffffffffffffffffffffffffffffff1673ffffffffffffffffffffffffffffffffffffffff1681526020018481526020018373ffffffffffffffffffffffffffffffffffffffff1673ffffffffffffffffffffffffffffffffffffffff1681526020018281526020019b50505050505050505050505060405180910390f35b3480156104fe57600080fd5b506105076110fa565b604051808273ffffffffffffffffffffffffffffffffffffffff1673ffffffffffffffffffffffffffffffffffffffff16815260200191505060405180910390f35b34801561055557600080fd5b5061055e611120565b6040518082815260200191505060405180910390f35b34801561058057600080fd5b506105b5600480360381019080803573ffffffffffffffffffffffffffffffffffffffff169060200190929190505050611126565b005b3480156105c357600080fd5b506105cc61118d565b604051808260028111156105dc57fe5b60ff16815260200191505060405180910390f35b60035481565b600260009054906101000a900473ffffffffffffffffffffffffffffffffffffffff1681565b600080600060028081111561062d57fe5b600b60009054906101000a900460ff16600281111561064857fe5b141515156106e4576040517f08c379a00000000000000000000000000000000000000000000000000000000081526004018080602001828103825260258152602001807f5472616e73616374696f6e2068617320616c7265616479206265656e2073657481526020017f746c65642e00000000000000000000000000000000000000000000000000000081525060400191505060405180910390fd5b600960009054906101000a900473ffffffffffffffffffffffffffffffffffffffff1673ffffffffffffffffffffffffffffffffffffffff163373ffffffffffffffffffffffffffffffffffffffff161415156107cf576040517f08c379a000000000000000000000000000000000000000000000000000000000815260040180806020018281038252602e8152602001807f5472616e736163746f6e2063616e206f6e6c7920626520736574746c6564206281526020017f7920636c61696d206f776e65722e00000000000000000000000000000000000081525060400191505060405180910390fd5b60015491506000600181905550600260009054906101000a900473ffffffffffffffffffffffffffffffffffffffff1673ffffffffffffffffffffffffffffffffffffffff166108fc839081150290604051600060405180830381858888f19350505050158015610844573d6000803e3d6000fd5b506001600281111561085257fe5b600b60009054906101000a900460ff16600281111561086d57fe5b14156109555734600654019050600560009054906101000a900473ffffffffffffffffffffffffffffffffffffffff1673ffffffffffffffffffffffffffffffffffffffff166108fc829081150290604051600060405180830381858888f193505050501580156108e2573d6000803e3d6000fd5b507f77980fe590ec3aaa964f83e59bc67228e62b66441607d8ac9eb58645d0a2cc6a600160405180806020018381526020018281038252601b8152602001807f496e737572616e6365207072656d69756d2077617320706169642e00000000008152506020019250505060405180910390a15b6002600b60006101000a81548160ff0219169083600281111561097457fe5b02179055507fbe71ffd27116cb4f6c570ac59edc69736978c960d2995ff2164848cfe24ec449600b60009054906101000a900460ff1660405180806020018360028111156109be57fe5b60ff1681526020018281038252601d8152602001807f54686520636f6e747261637420686173206265656e20736574746c65640000008152506020019250505060405180910390a160019250505090565b60003073ffffffffffffffffffffffffffffffffffffffff1631905090565b6000600b60009054906101000a900460ff16905090565b600060016002811115610a5457fe5b600b60009054906101000a900460ff166002811115610a6f57fe5b14151515610ae5576040517f08c379a000000000000000000000000000000000000000000000000000000000815260040180806020018281038252601e8152602001807f5472616e73616374696f6e20697320616c726561647920696e7375726564000081525060200191505060405180910390fd5b600280811115610af157fe5b600b60009054906101000a900460ff166002811115610b0c57fe5b14151515610ba8576040517f08c379a00000000000000000000000000000000000000000000000000000000081526004018080602001828103825260258152602001807f5472616e73616374696f6e2068617320616c7265616479206265656e2073657481526020017f746c65642e00000000000000000000000000000000000000000000000000000081525060400191505060405180910390fd5b600a670de0b6b3a764000060075402811515610bc057fe5b043411151515610c38576040517f08c379a00000000000000000000000000000000000000000000000000000000081526004018080602001828103825260208152602001807f56616c75652063616e6e6f7420657863656564206d617820636f76657261676581525060200191505060405180910390fd5b34600660008282540192505081905550610c6c610c64610c5c6007546008546111a0565b6127106111d8565b6001546111a0565b600a819055506001600b60006101000a81548160ff02191690836002811115610c9157fe5b021790555033600560006101000a81548173ffffffffffffffffffffffffffffffffffffffff021916908373ffffffffffffffffffffffffffffffffffffffff1602179055507fbe71ffd27116cb4f6c570ac59edc69736978c960d2995ff2164848cfe24ec449600b60009054906101000a900460ff166040518080602001836002811115610d1c57fe5b60ff1681526020018281038252601e8152602001807f54686520636f6e747261637420686173206265656e20696e73757265642e00008152506020019250505060405180910390a16001905090565b600560009054906101000a900473ffffffffffffffffffffffffffffffffffffffff1673ffffffffffffffffffffffffffffffffffffffff163373ffffffffffffffffffffffffffffffffffffffff161415610e3a57600073ffffffffffffffffffffffffffffffffffffffff168173ffffffffffffffffffffffffffffffffffffffff16141515610e395780600560006101000a81548173ffffffffffffffffffffffffffffffffffffffff021916908373ffffffffffffffffffffffffffffffffffffffff1602179055505b5b50565b6000809054906101000a900473ffffffffffffffffffffffffffffffffffffffff1673ffffffffffffffffffffffffffffffffffffffff163373ffffffffffffffffffffffffffffffffffffffff16141515610e9857600080fd5b6000809054906101000a900473ffffffffffffffffffffffffffffffffffffffff1673ffffffffffffffffffffffffffffffffffffffff16ff5b60045481565b6000809054906101000a900473ffffffffffffffffffffffffffffffffffffffff1673ffffffffffffffffffffffffffffffffffffffff163373ffffffffffffffffffffffffffffffffffffffff16141515610f3357600080fd5b6000809054906101000a900473ffffffffffffffffffffffffffffffffffffffff1673ffffffffffffffffffffffffffffffffffffffff167ff8df31144d9c2f0f6b59d69b8b98abd5459d07f2742c4df920b25aae33c6482060405160405180910390a260008060006101000a81548173ffffffffffffffffffffffffffffffffffffffff021916908373ffffffffffffffffffffffffffffffffffffffff160217905550565b60085481565b600a5481565b600960009054906101000a900473ffffffffffffffffffffffffffffffffffffffff1681565b60015481565b60065481565b6000806000806000806000806000806000600354600454600154600654600754600854600260009054906101000a900473ffffffffffffffffffffffffffffffffffffffff16600560009054906101000a900473ffffffffffffffffffffffffffffffffffffffff16600b60009054906101000a900460ff16600281111561109c57fe5b600960009054906101000a900473ffffffffffffffffffffffffffffffffffffffff163073ffffffffffffffffffffffffffffffffffffffff16319a509a509a509a509a509a509a509a509a509a509a50909192939495969798999a565b600560009054906101000a900473ffffffffffffffffffffffffffffffffffffffff1681565b60075481565b6000809054906101000a900473ffffffffffffffffffffffffffffffffffffffff1673ffffffffffffffffffffffffffffffffffffffff163373ffffffffffffffffffffffffffffffffffffffff1614151561118157600080fd5b61118a816111ee565b50565b600b60009054906101000a900460ff1681565b6000808314156111b357600090506111d2565b81830290508183828115156111c457fe5b041415156111ce57fe5b8090505b92915050565b600081838115156111e557fe5b04905092915050565b600073ffffffffffffffffffffffffffffffffffffffff168173ffffffffffffffffffffffffffffffffffffffff161415151561122a57600080fd5b8073ffffffffffffffffffffffffffffffffffffffff166000809054906101000a900473ffffffffffffffffffffffffffffffffffffffff1673ffffffffffffffffffffffffffffffffffffffff167f8be0079c531659141344cd1fd0a4f28419497f9722a3daafe3b4186f6b6457e060405160405180910390a3806000806101000a81548173ffffffffffffffffffffffffffffffffffffffff021916908373ffffffffffffffffffffffffffffffffffffffff160217905550505600a165627a7a72305820408c4c7ee69097ea5169aff75cbb2feec8a12c0f2cc9a17ed14ce5fabd2cd18a0029",
  "source": "pragma solidity ^0.4.24;\n\n\nimport \"./Killable.sol\";\nimport 'openzeppelin-solidity/contracts/math/SafeMath.sol';\n\ncontract Transaction  is Killable {\n    using SafeMath for uint256;\n\n    // value of the transaction \n    uint256 public transaction_value;\n    // Counter party is the party which is on the receiving end of this transaction\n    address public counter_party;\n    // Name of the transaction contract\n    bytes32 public name;\n    // description of the transaction\n    bytes32 public desc;\n    // person insuring this contract\n    address public insurer;\n    // the current insurance coverage deposited in this contract\n    uint public current_coverage;\n    // maximum coverage allowed\n    uint public max_coverage;\n    // premium to be paid for the insurance\n    uint public premium_percent;\n    // owner\n    address public owner;\n    // premium_payout\n    uint public premium_payout;\n\n    enum TransactionState { Uninsured, Insured, Settled }\n    TransactionState public insuranceStatus;\n\n    event TransactionStatusChange(string message, TransactionState state);\n    event PremiumPaid(string message, uint value);\n\n\n\n    constructor(\n        address _counterparty, \n        bytes32 _name, \n        bytes32 _desc, \n        uint _max_coverage, \n        uint _prem,\n        address _owner,\n        uint _value\n        ) public payable {\n        require(_counterparty!=0x0);\n        counter_party = _counterparty;\n        owner = _owner;\n        max_coverage = _max_coverage;\n        premium_percent = _prem;\n        name = _name;\n        desc = _desc;\n        insuranceStatus = TransactionState.Uninsured;\n        transaction_value = _value;\n        \n    }\n\n    /// @dev The current state of the contract in the lifecycle\n    /// @return state, the state of the transaction\n    function getState() public view returns (TransactionState state) {\n        return insuranceStatus;\n    }\n\n    // Only return relevant details for would be insurer\n    function getTransactionDetails() public view returns (\n            bytes32 _name, \n            bytes32 _desc, \n            uint _value,\n            uint _coverage,\n            uint _maxCoverage,\n            uint _premium_percent,\n            address _counterParty,\n            address _insurer,\n            uint status,\n            address _owner,\n            uint _balance\n            ) {\n\n        return (\n            name, \n            desc, \n            transaction_value, \n            current_coverage, \n            max_coverage,\n            premium_percent,\n            counter_party,\n            insurer,\n            uint(insuranceStatus),\n            owner,\n            uint(this.balance)\n        );\n    }\n\n\n    modifier onlyInsurer() {\n        if (msg.sender == insurer)\n        _;\n    }\n\n    function transferInsurer(address newOwner) public onlyInsurer  {\n        if (newOwner != address(0)) {\n            insurer = newOwner;\n        }\n    }\n\n    function insure() public payable returns (bool _success) {\n        require(insuranceStatus!=TransactionState.Insured,\"Transaction is already insured\");\n        require(insuranceStatus!=TransactionState.Settled, \"Transaction has already been settled.\");\n        require((msg.value)<=(max_coverage*1 ether)/10,\"Value cannot exceed max coverage\");\n        current_coverage += msg.value;\n        // premium payout is equal to (max_coverage*transaction_value)*premium_percent\n        // percentages are stored as integers / 100\n        premium_payout = SafeMath.mul(SafeMath.div(SafeMath.mul(max_coverage,premium_percent),10000),transaction_value);\n        \n        insuranceStatus = TransactionState.Insured;\n        insurer = msg.sender;\n        emit TransactionStatusChange(\"The contract has been insured.\",insuranceStatus);\n        return true;\n    }\n\n    // TODO have claims maker deposit premium + value of transaction into escrow \n    // settlment, insurer takes premium claim + back their insurance\n    // TODO error here.. \n    function settle() public payable returns (bool _success) {\n        require(insuranceStatus!=TransactionState.Settled, \"Transaction has already been settled.\"); \n        require(msg.sender == owner, \"Transacton can only be settled by claim owner.\");\n        \n        uint amount = transaction_value;\n        transaction_value = 0;\n        address(counter_party).transfer(amount);\n\n        if (insuranceStatus==TransactionState.Insured)\n        {\n            uint insurer_payback = current_coverage+msg.value;\n            address(insurer).transfer(insurer_payback);\n            emit PremiumPaid(\"Insurance premium was paid.\",1);\n        } \n        // else \n        // {\n        // No insurance, user get's back prepaid premium\n        // }\n\n        insuranceStatus = TransactionState.Settled;\n        emit TransactionStatusChange(\"The contract has been settled\", insuranceStatus);\n        \n        return true;\n    }\n\n    //TODO Claims \n    // function makeClaim() {}\n\n\n    // Fallback function\n    function() public payable {}\n\n    function getBalance() public view returns (uint) {\n        return address(this).balance;\n    }\n\n}",
  "sourcePath": "/Users/robert/dev/projects/eotim/contracts/Transaction.sol",
  "compiler": {
    "name": "solc",
    "version": "0.4.24+commit.e67f0147.Emscripten.clang"
  },
  "schemaVersion": "2.0.1",
  "updatedAt": "2018-08-20T18:43:26.746Z"
}